:020000041000EA
:10000000002008205D0100101301001015010010F0
:100010001101001011010010110100101101001058
:100020001101001011010010110100101701001042
:100030001101001011010010190100101B01001026
:100040001D0100101D0100101D0100101D010010F8
:100050001D0100101D0100101D0100101D010010E8
:100060001D0100101D0100101D0100101D010010D8
:100070001D0100101D0100101D0100101D010010C8
:100080001D0100101D0100101D0100101D010010B8
:100090001D0100101D0100101D0100101D010010A8
:1000A0001D0100101D0100101D0100101D01001098
:1000B0001D0100101D0100101D0100101D01001088
:1000C0001D0100101D0100101D0100101D01001078
:1000D0001D0100101D0100101D0100101D01001068
:1000E0001D0100101D0100101D0100101D01001058
:1000F0001D0100101D0100101D0100101D01001048
:100100001D0100101D0100101D0100101D01001037
:1001100000BE00BE00BE00BE00BE00BEEFF3058004
:10012000103800BEF2EB88713CF1001060F1001055
:10013000A801001090A31AE7D3DEFFFF42012110AF
:10014000FF010000B8FD0000793512AB4FF0000050
:100150002049086006C881F3088810474FF05040D6
:10016000006810B14FF00000F2E70FA40ECC002998
:1001700002D000F015F8F9E71749184A002000E00E
:1001800001C19142FCD1002080F30A8814498847BC
:10019000144988471449884700BEFDE701C901C2D8
:1001A0009A42FBD3704700BF60F10010100100209D
:1001B000A00E0020F0FE0010000008200000082023
:1001C000F0FE0010001008200010082000000000C1
:1001D0007047000008ED00E0A00E0020685F0020DE
:1001E000FDA30010E1030010C1A30010F8B500BF8B
:1001F000064B0749C91A891048BF0131491003D07D
:10020000044B0BB101481847704700BFA00E0020F7
:10021000A00E00200000000008B5054B1BB10549E9
:100220000548AFF30080BDE80840FFF7E1BF00BF1D
:1002300000000000D857002090CE0010034640F286
:10024000EA5282830F2280F82520002098614522FF
:1002500083F82620582283F82720024A5A61024A4E
:100260001A617047F9020010F102001010B50C4637
:1002700004490CF03BFC08B1002010BD024B236088
:100280000120FAE790CE0010C0A8070110B584B095
:1002900000F078FD0F4C062384F824300E4B1868CC
:1002A000C4F81E009B88638494F8233083F0010314
:1002B00084F82330094B0293094B019300230093E8
:1002C000084B094A0949204601F0BCF801F0EEF854
:1002D00004B010BDA0570020C80D002045600010DC
:1002E0003D0200107CD7001080D7001084D700108A
:1002F00008B505F0A3FC08BD10B50C460DE00AF0EA
:10030000F5FE80B90123B3B120890BF085FF60B9F8
:1003100000214FF0FF300BF099FA0AF0DFFE0028C1
:10032000EDD10023EFE70023EDE7002120460BF09D
:100330009DFF002001E06FF0070010BD10B5084BD5
:10034000186850B1074906F0B1FB054C206801F070
:100350009EF9002323600BF0BFFF04F03FFE10BDA9
:10036000005F0020A057002008B508F0D5FA29B199
:100370004FF47A7200230CF04FFD08BD024BA3FB33
:1003800000308009F9E700BFD34D62100E4B1B68A7
:100390000BB10020704770B505460C4609B9012025
:1003A00070BD4FF4C172002001F0A5F9064640B1BE
:1003B0002246294640680CF077FC034B1E60012062
:1003C000EEE70120ECE700BF005F002008B584469F
:1003D000084600230A89614601F0EDFA08BD0000D5
:1003E00008B50AF06BFA00200AF090FE124B0BB130
:1003F000AFF30080FFF74AFF104B93F8253013F05E
:10040000010FF9D00E4800F0ABFA0028FAD10D4ADE
:1004100035210D4800F0A6FB0028F8D106F0FEFEBD
:100420000021084607F050FA00214FF0FF300BF092
:100430000DFAFFF783FFF7E700000000A057002048
:1004400064D700106D0200101CD900100020704706
:10045000704708B5FFF788FF08BD000070B588B089
:1004600004460D461D4B5BB110210DEB01000AF057
:100470003BFA6E08B0EB550F00D80646002524E085
:10048000174B049303F1883305930820F1E7154BCC
:10049000EE460FCB8EE80F0005F120036B4413F8F6
:1004A000103C4FEA8C02134103F00F03CCEB4502E2
:1004B000013220336B4413F8203C24F812300CF145
:1004C000010CBCF1010FE2D90135AE4202D94FF067
:1004D000000CF6E7700008B070BD00BFE9A800107E
:1004E00001234567A0CE00100048704708D80010CF
:1004F00018B9034A52F8200070470020704700BF27
:10050000A0D7001010B5032808D0052827D048BB75
:10051000204B40F209425A80012018E020211E4859
:10052000FFF79CFF13E01D4B9B5C190900F1010CC8
:100530001B4C14F801E0174921F81CE003F00F03ED
:100540000230E35C21F810300132052AEBD9431C5C
:100550005B009BB243F440730E48038010BD002241
:100560001046F2E7042812D80E4B53F820402046DC
:100570000CF010FC202800D92020002304E0E15CCE
:100580000133044A22F813109842F8D8DFE700201C
:10059000E4E700BF381000203A100020C80D00200A
:1005A000A0CE001088D70010006870470160704727
:1005B0008446002300E00133064A1268116999421B
:1005C00006DD506900EB031082686245F3D100E05C
:1005D000002070470413002070B50646002500E097
:1005E0000135094B1B681A69AA420ADD5C6904EBF4
:1005F00005140622314620460CF050F90028EFD1B0
:1006000000E00024204670BD0413002038B500250A
:1006100000E00135094B1B681A69AA420ADD5C69D2
:1006200004EB05140622214605480CF037F9002892
:10063000EFD100E00024204638BD00BF04130020A5
:100640001CD8001084460023581C884218DA00B5D4
:1006500002E0581C88420EDA9E460CEB03004078FC
:1006600003440233994209DB0CEB0E001CF80EE048
:100670009645EED100E000205DF804FB0020FBE78A
:10068000002070472DE9F047044616469846089D1D
:100690000A9F352303704FF0010A80F801A0817092
:1006A0003623C3704FF0040980F80490099905308F
:1006B000FFF77CFF3323637284F80A902B0EE372FA
:1006C0002B1423732B126373A57384F80FA084F883
:1006D00010900B9904F11100FFF768FF04F1150564
:1006E000CFB97EB130460CF055FB0746A9460F2323
:1006F00009F8023B68700246314648460CF0D4FACD
:1007000009EB0705B8F1000F11D1FF2305F8013BF4
:10071000281BBDE8F0870323637584F816903946DB
:1007200004F11700FFF742FF04F11B05D9E7284643
:10073000062300F8023B04236B704146FFF736FFA7
:100740000635E2E72DE9F04F85B00E461446BDF8B8
:100750003870D07B00F0B0FE80466289B2F5017F30
:1007600001D94FF40172714D616828460CF09CFA72
:10077000352240F2131105F1F000FFF763FF50B18D
:100780008378012B0BD0032B60D0204600F07FFF35
:1007900005B0BDE8F08F204600F079FFF8E7644827
:1007A000FFF71AFF824600284AD0604D4FF0020B37
:1007B00085F800B04FF00009A5F80890A5F80A9058
:1007C000DAF8081005F11000FFF7F0FE594B1B682E
:1007D000C5F8EC30F03540F21312494628460CF0CB
:1007E0008BF8554B1968CA68DAF80C00D1F808C0C4
:1007F000D8F80430039309680291D8F800100191E9
:100800000090634659462846FFF73CFF4FF4C172FB
:100810004FF40171362000F06EFF05460028B4D079
:100820004FF40172414940680CF03EFA3B46434A9E
:100830002946304604F04CFE284600F028FFA4E785
:10084000FFF7E4FE82460028AFD19EE7322240F255
:1008500013113B48FFF7F6FE0546002895D0437874
:10086000042B92D100F102093148FFF7B5FE10B117
:100870000022026082804846FFF796FEFFF798FE4E
:100880008146002881D0062201462E480CF006F849
:1008900000287FF47AAFD5F80230244D2B61022373
:1008A0002B70002129816981224B1B68C5F8EC302F
:1008B000F03540F2131228460CF01EF81E4B196852
:1008C000CA68D9F80C00D1F808C0D8F804300393EE
:1008D00009680291D8F80010019100906346052143
:1008E0002846FFF7CFFE4FF4C1724FF40171362056
:1008F00000F001FF054600283FF447AF0C490868A7
:10090000C9F800008B88A9F804304FF401721C3933
:1009100068680CF0C9F93B46084A2946304604F09D
:10092000D7FD284600F0B3FE2FE700BF34130020A8
:1009300050130020D00D00200413002018D90010FF
:10094000241400201CD8001008B5044B186820B1EE
:1009500004F0F2FD014B00221A6008BDF0570020A0
:1009600038B5044604F0C0FBFFF7EEFF04F002FECA
:100970000C4B186090B1A2880B4904F0A1FC05460D
:1009800048B900220949074B186804F0D1FD084B0B
:100990001C60284638BDFFF7D7FFFAE74FF0FF3558
:1009A000F7E700BFF05700201CD9001045070010E2
:1009B00004130020008870472DE9F84F82469146C5
:1009C000804600273E460FE030465C453ADC26185C
:1009D0007F2E3ADC2246294648440CF065F905EBA7
:1009E0000408ABEB04010137002924DD454615F866
:1009F000014B01F1FF3B44B1002FE5DD802E1ED0FD
:100A0000701C2E2309F80630DFE7BBF1030F1FDD52
:100A1000002309F806302846FFF7CCFFA9F880002C
:100A200008F10300FFF7C6FFA9F8820008F10500EE
:100A3000A0EB0A0001E04FF0FF30BDE8F88F6FF047
:100A40000100FAE74FF0FF30F7E76FF00100F4E73D
:100A50004FF0FF30F1E700002DE9F04782B0144677
:100A6000B2F80AC0BCF10C0F0BD90E461D465768F0
:100A700097F90230002B04DBB88800F09DF80128BC
:100A800005D0204600F003FE02B0BDE8F087618982
:100A90002C4A0C3907F10C00FFF78EFF071EF0DB24
:100AA000294B1B6801A9274898470028E9D007F17E
:100AB0000C0907F11C014FF4C17289B2362000F015
:100AC0001AFE07460028DCD04A46616840680CF0F0
:100AD000EBF8D7F8048098F8023043F0800388F8E8
:100AE0000230012000F068F8A8F80600D7F804A04A
:100AF0000AEB09084CF20C0000F05EF82AF8090035
:100B0000012000F059F8A8F80200012000F054F884
:100B1000A8F80400202000F054F8C8F806000420CB
:100B200000F04AF8A8F80A00019BC8F80C30BDF89C
:100B300028302A463946304604F0CAFC384600F0D0
:100B4000A6FD9EE7185800209C58002008B5044BCD
:100B5000186820B104F0F0FC014B00221A6008BDB7
:100B6000F457002070B504460D46164604F0BCFA52
:100B7000FFF7ECFF04F0FEFC0C4B186090B12A4626
:100B8000214604F09DFB044648B900220849074B62
:100B9000186804F0CDFC074B1E60204670BDFFF7BF
:100BA000D5FFFAE74FF0FF34F7E700BFF457002016
:100BB000590A00109C580020030243EA102080B21A
:100BC0007047030203F47F0343EA0063020A02F45E
:100BD0007F42134343EA106070472DE9F84307460C
:100BE0000E46914608460CF0D5F8C0B180463C460A
:100BF00000E001342578B5B104EB080307EB0902E6
:100C000093420AD83378AB42F3D14246314620466C
:100C10000BF02CFF0028ECD102E0002400E03C4661
:100C20002046BDE8F8830024FAE710B44FF0000C2A
:100C300010F0010406D0614504DD10F8013B63F3B8
:100C40001F2C0139002303E030F8022B1344023932
:100C50000129F9DC002904DD027862F3070C1FFA90
:100C60008CFC9C441FFA8CF303EB1C4398B200EB02
:100C7000134024B103029BB2C0F30720184380B293
:100C80005DF8044B70472DE9F843054689469046C8
:100C90001C46002700E02D689DB16E8931466868CA
:100CA000FFF7C3FF204484B204EB104416F0010F99
:100CB000F1D087F0010723029BB2C4F307241C4341
:100CC000E9E727B123029BB2C4F307241C4348463B
:100CD000FFF772FF04444046FFF76EFF204483B2E3
:100CE00003EB104398B200EB1340C04380B2BDE861
:100CF000F88308B51B684FEA134C1CFA83FC029B6F
:100D00001B681CFA83FC0CEB134C1FFA8CF303EBEF
:100D10001C431FFA83FC0CEB1343FFF7B4FF08BD21
:100D200010B582B0049C0094FFF7E3FF02B010BD41
:100D300008B5FFF77AFFC04380B208BDF8B5054695
:100D400000273C4600E02D689DB16E8931466868F9
:100D5000FFF76BFF03199CB204EB134416F0010F6D
:100D6000F1D087F0010723029BB2C4F307241C4390
:100D7000E9E727B123029BB2C4F307241C43E043F5
:100D800080B2F8BD08B500F0A6FE00F087F800F0CC
:100D90009BFA00F01FFB04F0A7F900F037FF04F006
:100DA00009F908BD014B1B6818447047A058002082
:100DB000024B1B68C01A80B2704700BFA0580020C9
:100DC00038B504460088FFF7EDFF844215D003795B
:100DD0009BB9194B1B6883420FD0184B1B68834289
:100DE00024D000882080B0F5C86F06D0FFF7DAFF66
:100DF00005462046FFF7DCFF68806088FFF7D2FFDA
:100E00000546844211D003797BB90C4B1B68A34281
:100E10000FD020882880B0F5C86F06D0FFF7C2FF3A
:100E200004462846FFF7C4FF608038BD034B1C60B2
:100E3000D7E7024B1860ECE7A4580020AC1D002057
:100E4000F8B50446FFF7B4FF074625882846FFF7A4
:100E5000A9FF064664882046FFF7A4FFB5F5C86FD2
:100E600010D8B4F5C86F0FD8BC4202D00388BB427B
:100E70000CD1094B1B68B3420AD07388BB4209D11D
:100E8000012000E00020F8BD0020FCE70020FAE788
:100E90000120F8E70020F6E7A458002038B50D4CF3
:100EA00024F003040C4B1C604FF4C865258000231C
:100EB000638023712846FFF775FF084B18600123F4
:100EC000037105804580064B1C60064BA3F8AA50B1
:100ED00038BD00BFAB580020A0580020A458002007
:100EE000AC1D0020B01D002000285DD070B5044668
:100EF00010F0030F2CD1A0F108062C4B1D68B54251
:100F000031D800F10C032A4A126893422BD810F80A
:100F1000043C9BB33046FFF793FF002839D00023F1
:100F200004F8043C234B1B68B34201D9214B1E60DB
:100F3000214AB2F8AC10731B9BB234F8080C1B1A90
:100F400011FA83F3A2F8AC303046FFF739FF14E012
:100F5000FFF77CFA184AB2F8B0300133A2F8B0308B
:100F6000FFF776FA09E0FFF771FA134AB2F8B030EA
:100F70000133A2F8B030FFF76BFA70BDFFF766FAE5
:100F80000D4AB2F8B0300133A2F8B030FFF760FA82
:100F9000F3E7FFF75BFA084AB2F8B0300133A2F882
:100FA000B030FFF755FAE8E7704700BFA0580020BF
:100FB000A4580020AC1D0020B01D00202DE9F843EE
:100FC0000546CC1CA4B224F00304A4B20B2C04D913
:100FD000B4F5C86F02D9002053E00C248C42C0F055
:100FE0008780474B1B68AB4240D8464B1B68AB42DF
:100FF0003CD9A5F10800FFF7DBFE074635F8080CE1
:10100000C61BB6B2083EB6B2B44273D874D0FFF76E
:10101000C9FE0379002B3CD1B0F8009004EB07081F
:101020001FFA88F808F108081FFA88F8364B1B6881
:10103000834228D04046FFF7B5FE00230371A0F895
:101040000090478025F8088C0088B0F5C86F03D061
:10105000FFF7A8FEA0F802802C4BB3F8AC20A61B2B
:1010600012FA86F6A3F8AC6028460AE0FFF7EEF91C
:10107000264AB2F8B0300133A2F8B030FFF7E8F9F1
:101080002846BDE8F8834046FFF78CFE1E4B1860EB
:10109000D0E704F11403B34230D804EB07081FFA79
:1010A00088F808F108081FFA88F84046FFF77AFE2A
:1010B000154B1B68834201D9134B18600023037141
:1010C00035F8083C0380478025F8088C0088B0F587
:1010D000C86F03D0FFF766FEA0F802800B4BB3F891
:1010E000AC20A41B12FA84F4A3F8AC402846C8E74D
:1010F0000020C6E70020C4E72846C2E72846C0E72C
:10110000A0580020A4580020AC1D0020B01D0020D5
:10111000002800F089802DE9F8430346C71CBFB2C0
:1011200027F00307BFB20B2F04D9B7F5C86F02D958
:10113000002077E00C279F4278D33D4BD3F80090F6
:101140004846FFF735FE054624E001220271394E7C
:10115000B6F8AC2013449DB2FFF72AFE2B1A9BB2BF
:10116000A6F8AC30B6F8AE2093424FD9A6F8AE3010
:101170004CE0B9F80000FFF715FE814699F80430FD
:101180001BB12D4B1B684B45F3D1294BC3F8009085
:101190003EE025882E46B846C7F5C8639D423AD240
:1011A0002846FFF7FFFD04460379002BF1D10388A1
:1011B0009E1B083E4645ECD308F114084645C4D3AF
:1011C000EE19B6B20836B6B23046FFF7EBFD002393
:1011D00003712388038045802680012323710088C2
:1011E000B0F5C86F02D0FFF7DDFD4680114AB2F8B6
:1011F000AC303B449BB208339BB2A2F8AC30B2F89F
:10120000AE20934202D90B4AA2F8AE30A145B5D028
:1012100004F1080006E0074AB2F8A8300133A2F84A
:10122000A8300020BDE8F883002070470020F9E7CF
:10123000AC1D0020B01D0020A458002038B5044685
:10124000FFF704F9E3681D687DB12A681A60226817
:1012500093880133938023689A88D9888A4200D979
:10126000DA80FFF7F5F8284638BD22681388013385
:101270001380FFF7EDF8F6E738B504460D46FFF7A3
:10128000E5F822689388013B9380E3681B682B6034
:10129000E3681D60FFF7DCF838BDC36800221A6000
:1012A0008368033323F0030307E0C168096819600A
:1012B000C1680B6081880B440132C1889142F4DC23
:1012C000036859807047000038B500240EE0094BD0
:1012D00053F824502846FFF7E0FF2A6804F12C0158
:1012E000054B03EB81035A600134A4B2082CEED9FC
:1012F00038BD00BF24D80010B01D0020082806D833
:1013000008B5044B53F82000FFF798FF08BD0020F4
:10131000704700BF24D80010082807D831B108B59D
:10132000034B53F82000FFF7A7FF08BD704700BF2D
:1013300024D800100B684268934202D04360012019
:101340007047002070470B688268934202D0836028
:1013500001207047002070476FF00B00704738B5D0
:1013600004460D4600F052FF2946204604F010F9CD
:1013700038BD08B590F8253003F00502052A07D1DD
:1013800011F0010F04D0026812B113F0080F00D160
:1013900008BD014604F006FBFAE730B583B00D4600
:1013A00009680368994202D1002003B030BD0446A9
:1013B00001910368136001A91046FFF7D0FF3DB10A
:1013C0002B68236001212046FFF7D3FF0120ECE7C3
:1013D0000023F6E7704700002DE9F04182B0044693
:1013E00016461D460F46D9B1E6B1EDB10FB13B68C7
:1013F000E3B901AA39462046FFF7CFFF4FF00108B5
:10140000002231462046FFF795FF0022294620465C
:10141000FFF799FFB8F1000F0BD002B0BDE8F081E3
:10142000074FE1E7064EE0E7054DDFE74FF0000824
:10143000E6E701AA39462046FFF7AFFFEDE700BF18
:101440001CD90010F8B50446079D1548066816BB60
:101450001CB3C5B1C9B1D2B1DBB10020206060605E
:10146000A060104F2761A08384F82500069FA76124
:1014700084F828000898E0602046FFF7ADFF20467A
:10148000A84700B926463046F8BD0749E3E7064AB3
:10149000E2E7054BE1E70026F5E72646F3E700BF64
:1014A000CC570020591300101CD90010014B1860B4
:1014B000704700BFCC570020024650B1064B186859
:1014C00040B190F828300133DBB2934202D00020C3
:1014D00070470020704700BFCC57002010B4002494
:1014E00004604160028143819DF8043003739DF8DC
:1014F0000830437301238373C4735DF8044B704752
:1015000020B30346B1F5803F22D219B31FFA81FC04
:101510000089604480B260451ED300B593F90CE0A9
:10152000BEF1000F0ADBCAB15A68511A59605A89D4
:1015300062445A81188100205DF804FB5A68511AF0
:1015400003F110028A42F1D90120F5E7012070472A
:101550000120704700207047012070470120EBE711
:1015600002E0C91A89B2006810B143898B42F8D9E8
:1015700002B111807047000008B5FEF767FF034B0A
:1015800001221A70FEF764FF08BD00BF605F0020F3
:1015900008B5FEF75BFF084B00221A70FEF758FFF4
:1015A000064B186800E0C06820B1436F002BFAD0EA
:1015B00000F006FD08BD00BF605F0020185F00203E
:1015C000F0B583B005460C4616460720FFF796FE99
:1015D000074638B100230193009623462246294648
:1015E000FFF77CFF384603B0F0BD10B582B08446EB
:1015F0008E46184604990CF1030C2CF0030C0EEBEC
:101600000C04BDF814309C420CD801B1614404466E
:1016100002230193009273467246FFF75FFF204654
:1016200002B010BD0024FAE708B50022FFF768FFFA
:1016300008BDA8B10346B1F5803F13D2A1B188B26D
:101640005A89824212D310B45C6821445960121A3C
:101650005A811A89121A1A8100205DF8044B7047CA
:10166000012070470120704700207047012070471B
:1016700008B5002902DBFFF743FF08BD4942FFF729
:10168000D8FFFAE708B50122FFF7F2FF08BD70B5F1
:1016900070B30446002607E0022B1BD0012B1ED09E
:1016A00013B30136F6B22C461CB3FEF7CFFEA57B72
:1016B000013DEDB2A573FEF7CBFED5B92568237BBE
:1016C00003F00F03627B12F0020FE5D0236920467E
:1016D0009847E6E721460820FFF71EFEE1E721468E
:1016E0000720FFF719FEDCE72046FFF7FDFBD8E7F0
:1016F0000026304670BD2DE9F04782B00E46904678
:10170000B2F5C17F3DD0044606D8012A2FD0412A28
:101710002DD04FF0000930E0B2F5207F24D1C11C5C
:1017200001F4FE71F21C93B223F003030B449BB24D
:1017300003F1100080B222F0030293425BD3824295
:101740005CD8FFF7E5FC8146B8B104F11001014413
:10175000033100230193CDF800803346324621F057
:101760000301FFF7BBFE08E04FF0000905E0424629
:1017700031460020FFF724FF8146484602B0BDE80D
:10178000F08705460027B94610E0FFF7F5FEB9F1EE
:10179000000F02D04846FFF77AFFB946EDE7CAF8D6
:1017A0000070341BA6B20025002EE6D0BA460820F1
:1017B000FFF7A4FD07460028E7D0EB1C23F0030346
:1017C0009BB2C3F5BD6304339CB2B44228BF344618
:1017D00005F110010144033100230193CDF800808D
:1017E0002346324621F00301FFF778FEB9F1000FDE
:1017F000D5D1B946D5E74FF00009BEE74FF0000953
:10180000BBE738B50446008988421DD90D4606E07D
:10181000EB1A9DB223890A1A134423812468638931
:10182000AB42F5D3227B12F00F0F05D1AB4203D0B0
:10183000637B13F0020F08D065812581206808B111
:10184000FFF725FF0023236038BD63681B1BE918E1
:1018500089B22046FFF7B2FBEEE70346002002E024
:10186000013080B21B68002BFAD1704748B110B527
:101870000446FEF7EBFDA37B0133A373FEF7E8FDFF
:1018800010BD7047034678B131B970471A89B1F875
:1018900008C062441A81034618680028F6D11A89E4
:1018A000088902441A811960704710B50C46FFF789
:1018B000E9FF2046FFF7DAFF10BD00295FD02DE9D0
:1018C000F8430646914698460D460A894A4559D33B
:1018D00000285AD002894B449A4259DB002712E073
:1018E000B9F1000F57D1002742452ED01DB16A89AA
:1018F0002B899A4234D01EB1728933899A4235D0ED
:10190000B9F1000F38D07489A4EB08046B89DB1B94
:101910009C4200D31C464C4528BF4C467068696801
:101920002246394440440BF0BFF9A0442744A4B2F6
:10193000A9EB04041FFA84F972896B89BB42D3D8DE
:101940002D68002DCCD00027CEE7366816B14FF0B9
:101950000008CBE7B9F1000F20D14FF00008C5E730
:101960002B68002BC7D06FF0050006E03368002B12
:10197000C6D06FF0050000E00020BDE8F8836FF0EE
:101980000F0070476FF00F00F7E76FF00F00F4E7FC
:101990006FF00F00F1E76FF00F00EEE76FF00F0050
:1019A000EBE729B108B500230A89FFF786FF08BDD8
:1019B0006FF00F0070472DE9F84348B38846914611
:1019C000054649B300273E4616E06C89E41AA4B2E6
:1019D000A14500D24C4669682246194408EB06002E
:1019E0000BF062F92744BFB22644B6B2A9EB040457
:1019F0001FFA84F900232D68B9F1000F09D045B111
:101A0000002BE2D06A899A42DFD89B1A9BB2F2E798
:101A100000273846BDE8F8830027FAE738B51446B2
:101A20000A462189FFF767FE054610B12146FFF7F8
:101A3000B8FF284638BD00B583B00DF10602FFF7A8
:101A40008FFD48B14189BDF80620914207D943680E
:101A5000985C03B05DF804FB4FF0FF30F9E74FF0FE
:101A6000FF30F6E708B5FFF7E6FF002801DA0020AF
:101A700008BDC0B2FCE72DE9F04105460E46904690
:101A80001F460289CB189A4205DA4FF6FF7020E014
:101A9000301A86B22D6865B16889B042F8D9002441
:101AA00008E04FF6FE70A04228BF2046013080B209
:101AB0000FE00024BC420BD2311989B22846FFF74F
:101AC000D1FF18F804108842EBD10134A4B2F1E739
:101AD0000020BDE8F081704700E0C06828B1C36F06
:101AE0008B42FAD10023C367F7E7704738B5054644
:101AF000012407E0054B53F8243029461868FFF706
:101B0000EBFF0134032CF5D938BD00BFD8D8001045
:101B10004FF0000C0BE0164B4FF440421A800FE0E0
:101B20000CF1010C1FFA8CFCBCF5804F1DD2104A41
:101B3000138801339BB213804FF6FF729342EAD0B1
:101B4000002003280ED80B4B53F820301B6833B10C
:101B5000D98A074A12889142E2D0DB68F7E7013060
:101B6000C0B2EEE7024B188870470020704700BFF4
:101B7000D80D0020D8D8001008B501460220FFF784
:101B8000CBFB08BD38B50446037D042B0ED0072BD4
:101B900013D0032B21D102F0BFFE0546A0B90523C7
:101BA0002375204602F0CCFF284638BD02F0B4FE73
:101BB000054648B905232375F3E702F0ADFE054657
:101BC00010B909232375ECE7B5F1FF3FECD1638B26
:101BD00043F0080363830025E6E70025E4E70000FF
:101BE000094B186878B110B501E0204654B1C468BB
:101BF000438B13F0080FF8D023F008034383FFF75B
:101C0000C1FFF2E710BD7047185F0020704708B5AC
:101C100001460120FFF780FB08BD000070B50646B5
:101C20000D4659B176B3337D7BBB4AB10020032802
:101C30000ADC1D4B53F820301B6813E01B4DF1E705
:101C4000FFF766FF024618B315B12B6803B1336086
:101C5000F282174B1A68F2601E6003F071F90020DF
:101C600070BDDB6863B1D98A9142FAD1196891B12C
:101C7000A5B12C68ACB1A142F3D16FF00700EFE73A
:101C80000130D4E76FF00F00EAE76FF00500E7E7F7
:101C90006FF00100E4E76FF00700E1E76FF0070085
:101CA000DEE76FF00700DBE7D8D800101CD9001082
:101CB0001C5F002070B516460446002840D0037D06
:101CC000002B41D1012B43D00220FFF717FB054623
:101CD000002841D023690361E38AC382012303758D
:101CE000637D4375637A4372237A0372E37AC37226
:101CF000A37A837223680360E38A8BB1184B1B6855
:101D0000A34205D053B1DA68A24205D01346F9E7E1
:101D1000DA68134B1A6001E0E268DA600023E360DE
:101D20002046FFF774FF0F4BAB610F4B1A68EA6058
:101D30001D6003F005F9002306B13370284670BD1D
:101D400005466FF00F03F7E76FF00E030025F3E78A
:101D500005466FF00803EFE74FF0FF33ECE700BFF5
:101D60001C5F002053210010245F002008B50022D2
:101D7000FFF7A0FF08BD30B5446AB0F828C004EBF7
:101D80000C03C26A458E40F6683E754594BF5119F2
:101D900002EB0E01591A002903DBA0F82AC0981A99
:101DA00030BD121B02D442850020F9E70023438591
:101DB000FAE7F8B110B50446038D194489B241F22F
:101DC000D062914201D88B420AD941F2D063238577
:101DD0002046FFF7D0FF40F2B353984202D810BD1F
:101DE0000185F5E7638B43F002036383204602F02D
:101DF000A7FEF4E7704750B110B50446406808B13B
:101E0000FFF745FC21460320FFF786FA10BD704717
:101E100038B110B50468FFF7EEFF2046002CF9D169
:101E200010BD704700B14175704738B504460320B6
:101E3000FFF764FA054650B120686168A268E3685C
:101E400028606960AA60EB606868FFF70FFD2846AC
:101E500038BD00B10161704708B1C0F88410704707
:101E600008B1C0F88010704708B1C0F890107047F2
:101E700010B1027D012A00D070478161FCE710B1EA
:101E8000C0F88C1042777047034B1868034A1268F9
:101E900010441860704700BFD40D0020285F002058
:101EA00041B18B8B33B1282B05D9283B9BB298428B
:101EB00028BF184670470023F9E70000F8B500284E
:101EC00069D01E460446002968D0037D002B68D1E6
:101ED0000B6843600283007A002841D0FFF7ECFAD8
:101EE0000546002D60D00CB123680BB92B68236028
:101EF000E78A27B9FFF70CFEE082002857D020467A
:101F0000FFF7C2FF00216162206501386064A065AF
:101F1000E06541F2D06363852385E162A4F8603017
:101F20004FF406706086221D2946FFF7B9FF6086D0
:101F30000123A4F84830C4F888600221204602F04A
:101F40008FFC054628BB02232375B7B1194B1B68CC
:101F5000A3420AD07BB1DA68A2420AD01346F9E75D
:101F6000201D04F053F80546BBE7DA68114B1A60F0
:101F700001E0E268DA600023E3600F4B1A68E26078
:101F80001C6002F0DDFF0D4B01221A70204602F0AA
:101F9000D7FD2846F8BD6FF00F05FAE76FF00F0583
:101FA000F7E76FF00905F4E76FF00305F1E76FF06D
:101FB0000105EEE71C5F0020185F0020625F002033
:101FC00010B50446406F18B1FFF722FF0023636786
:101FD00010BD08B310B50446037DE3B10A2B1AD037
:101FE000012B18D0806F18B1FFF751FB0023A367B6
:101FF000636F13B12046FFF7E3FF4FF6FF732386AD
:10200000E06EFFF705FF206FFFF702FF0023E36696
:102010002367A4F8683010BD704710B50C460368FC
:102020008B4205D04BB1DA68A24204D01346F9E7DF
:10203000DB68036001E0E268DA600023E3602046C9
:10204000FFF7C7FF237D0A2B05D0012B03D0638B3D
:1020500013F0010F03D100232375E38210BD43F079
:1020600002036383204602F06BFDF4E7002861D091
:102070002DE9F04784B00D460446037D0A2B17D0A6
:10208000D0F85080D0F82490D0F890600769002BE9
:1020900037D1B0F816A0BAF1000F3CD0264B1B6820
:1020A00083420DD093B1DA68A2420DD01346F9E70E
:1020B00001462248FFF7B1FF2046FFF7A8FD1DE0CB
:1020C000DA681D4B1A6001E0E268DA600025E5601D
:1020D000AA46206F08B1FFF79BFEE06E08B1FFF73C
:1020E00097FE606F08B1FFF793FEB5B92046FFF782
:1020F0008EFD1EB16FF00C013846B04704B0BDE84C
:10210000F087B0F816A001460D48FFF786FF0D4B8B
:1021100001221A70DDE70025DBE7231D228B0292E6
:10212000CDF804A0009323464A464146204602F0DB
:10213000B0FCDBE7704700BF1C5F00202C5F002075
:10214000185F0020625F002008B50121FFF78EFFB5
:1021500008BD08B50846FFF7F7FF6FF00C0008BD93
:1021600008B50A4B1B684FF0000C604600E0DB68C6
:1021700043B1196A064A1268521A6245F7D3944667
:102180001846F4E708B1FFF7DFFF08BD2C5F002019
:10219000285F002010F0800F01D108B970477F2020
:1021A00038B50138C2B20F4B1B684FF0000C6046C7
:1021B00007E00D4A1268186AA2EB000C0A4618469E
:1021C000DB685BB1597D9142F3D3F9D1064C2468A9
:1021D0001D6AA4EB050EE645F2D3EAE708B1FFF766
:1021E000B3FF38BD185F0020285F002038B50446D3
:1021F000084603E0C568FFF7A7FF284628B1026834
:1022000023689A42F6D0C068F8E738BD00B338B505
:102210000D460446036803B938BD0E4B1968FFF735
:10222000E5FF0D4B19682046FFF7E0FF002DF3D0C6
:102230002B68002BF0D0094B1B6800E0DB68002BFB
:10224000EAD0196822689142F8D12A681A60F5E745
:10225000704700BF185F00201C5F0020245F002033
:1022600010B501460C4B1B684FF0000C604600E0B7
:10227000DB685BB11A7D8A42FAD1084A12681C6A8F
:10228000121B6245F4D394461846F1E710B10021C1
:10229000FFF7ECFE10BD00BF185F0020285F002094
:1022A00038B505460120FFF729F8044650B39C22B3
:1022B000002120460AF020FB657541F2D063A4F8A6
:1022C000643063852385FF22E2724FF406726286D2
:1022D0000622A4F84020E2874FF6FF7222860122F0
:1022E000A4F84820294A12682262294A1278A27763
:1022F000A4F84A30274BC4F88430274BC4F89430F4
:10230000204638BDFFF76CFCFFF72AFF0120FEF7DF
:10231000F5FF044640B1214BD3F8B8201388013BA8
:102320001380002CC3D1EBE70920FFF799FF0120B0
:10233000FEF7E4FF044640B1184BD3F8B8201388E9
:10234000013B1380002CE6D1DAE70820FFF788FF75
:102350000120FEF7D3FF044640B1104BD3F8B8205C
:102360001388013B1380002CE6D1C9E72846FFF70C
:1023700011FF0120FEF7C2FF04460028C0D0074B22
:10238000D3F8B8201388013B1380E6E7285F0020CC
:10239000645F0020E524001000DD6D00B01D00200A
:1023A00008B54020FFF77CFF08BD000010B584B0E1
:1023B000044621B1037D042B16D0072B14D0237DB6
:1023C000012B56D0022B60D0002B6AD1E38A002B60
:1023D00049D0364B1B68A3423DD0002B41D0DA6870
:1023E000A2423CD01346F8E7A36F23B9228D41F2F5
:1023F000D0639A42E3D0231D228B0292E28A01929B
:1024000000932346626A216D204602F042FB20467B
:10241000FFF7DFFD264B1B68A34205D053B1DA68F6
:10242000A24205D01346F9E7DA68214B1A6001E0B1
:10243000E268DA600023E3601E4B01221A701E4B33
:102440001B68A34204D02046FFF7E1FB00200EE00A
:1024500001F090FDFAE7DA68144B1A6001E0E268D7
:10246000DA600023E3602046FFF7D1FB002004B0D0
:1024700010BD2046FFF73AFB21461048FFF7CDFD7F
:102480002046FFF779FB0020F1E721460848FFF7D7
:10249000C4FD084B01221A702046FFF7B8FB00204C
:1024A000E5E72046FFF76EFBE1E700BF1C5F002079
:1024B000185F0020625F0020205F0020245F002062
:1024C00068B108B50346027D012A03D0428B42F071
:1024D0001002428301211846FFF768FF08BD6FF024
:1024E0000F00704789B110B5144608463AB11189FA
:1024F000FFF75FFC2046FFF7CAF8002010BD0BB1C4
:102500000020FBE7FFF7DCFFF8E76FF00F007047F4
:10251000F8B5A0B30446866F777B00238367D0F8B5
:102520008450E5B1324601460069A8470546F5B931
:1025300017F0200F21D0238D41F2D062934201D0B9
:1025400001332385D4F88460BEB100231A462146A6
:102550002069B04710F10D0F0FD105460DE00023A3
:10256000324601461846FFF7BDFF0546DFE715F185
:102570000D0F02D0A6676FF004052846F8BD6FF076
:102580000F05FAE770B51C4A1378013313701B4B23
:102590001C6813E043F002036383204602F0D0FA84
:1025A000638B23F00303638313E023F00803638347
:1025B0002046FFF7E7FA10E0E5682C46DCB1A27F81
:1025C0000D4B1B789A42F7D0A377638B13F0010F62
:1025D000E0D1638B13F0080FE7D1E568A36F002B00
:1025E000EBD0074E002333702046FFF791FF33787E
:1025F000002BE2D0CBE770BD645F0020185F0020A5
:10260000625F00202DE9F04184B0A64A13680133CF
:102610001360A54A137801331370A44B1C6800267D
:1026200050E12646E4684DE194F84230052B40F233
:102630005581012567E0204602F062F860B1002371
:1026400084F8983094F89930062B00F2A08001337A
:1026500084F89930002556E0204602F071FA0028EF
:10266000EDD100254FE0B4F930309BB247F6FE7251
:10267000934201D801332386B4F93020B4F94030B5
:102680009A4240DB204602F069F920B1236F002B0B
:1026900039D1E36EBBB3237D022B14D094F84220D2
:1026A0000C2A28BF0C22B4F93C10B4F93E3003EBDD
:1026B000E1037F498A5C934047F6FE7293421EDC39
:1026C0001BB2A4F8403000232386B4F86030B4F87D
:1026D0004820934228BF13465B08A4F84A30618E15
:1026E0004A0092B2934201D2A4F84A20A4F84810BA
:1026F0000023A4F86A30204602F046FB03E047F6C8
:10270000FF73DEE70125227D062A42D0637A13F0AB
:10271000080704D0042A49D0072A47D00027636F4E
:1027200053B1236A5F4A1268D21AB4F9403003EBFE
:102730004303B2EB430F67D2237D032B68D0092BF1
:102740006FD0002D76D1E568237F0133DBB223778C
:10275000627F9342C0F0B48000232377554A137000
:10276000D4F88C30002B00F09480214620699847E3
:10277000504B1B78002B7FF450AF002800F08B806B
:1027800026462C469EE00125BDE70025BBE7002537
:10279000B9E7638B13F0100FB8D0216A414B1B6867
:1027A0005B1A282BB2D90135EDB2AFE73D4B1A6861
:1027B000236AD21AD4F8941001F5242303F6B843FF
:1027C0003D48A0FB0303B2EB531F03D90135EDB223
:1027D0000127A4E794F89B30384800FB0311364BDF
:1027E000A3FB0131B2EB511F01D8002797E7204628
:1027F00002F0DFFA30B994F89B30013384F89B3053
:1028000000278CE700278AE72046FFF7D9FB93E7EC
:10281000216A244A1268521A282A90D90135EDB249
:102820008DE7226A1F4B1B689B1AF02B89D9013553
:10283000EDB286E7D4F890502046FFF7CAFBBEB150
:10284000E368F360C7B9D4F81080E7682046FFF763
:10285000DEF9184B00221A701DB16FF00C014046D2
:10286000A847144B1B78002B7FF4D7AE3C4629E0D9
:10287000E2680E4B1A60E5E7231D626A216D208B2A
:102880000290E08A019000932346204602F001F96D
:10289000D9E700206CE7204602F052F926462C4684
:1028A00010E000BF285F0020645F0020185F002058
:1028B000F0D80010625F0020D34D6210F8240100B0
:1028C00026462C46ACB3A27F294B1B789A423FF494
:1028D000A8AEA377237D022B3FF4A6AE94F8423036
:1028E0000B2B3FF60FAF94F89950002D3FF4BBAE81
:1028F00094F89A300B2B3FF646AF013D1D4B5A5DC5
:1029000094F89830934202D2013384F8983094F8C6
:1029100098309342FFF439AFB4F8601000297FF487
:102920008AAE204602F05CFA00283FF488AE00250B
:10293000E9E6114B1D680AE02846FFF74AFB84B11F
:10294000EB68E360EE682846FFF761F9354665B14C
:102950002A6A0A4B1B689B1AF02BEDD82C46ED68AF
:10296000F5E7EA68044B1A60ECE704B0BDE8F081D3
:10297000645F0020E8D800102C5F0020285F002052
:1029800008B5FFF7FFFD064A13780133DBB2137079
:1029900013F0010F00D108BDFFF734FEFBE700BFC5
:1029A000635F00200A4A1388591C1180094A116884
:1029B00019B1094A1288934204D2084A1268134492
:1029C000187D7047DBB2D2B29B1ADBB2C85C70478D
:1029D000525F0020345F0020545F0020305F0020F1
:1029E00038B51F4B1B88002B38D004461D4B0022E6
:1029F0001A801C4B1A881A4B1B889A422ED2FFF75A
:102A0000D1FF0128F5D002280BD038B3FFF7CAFF59
:102A10000346012822D9134A11880B44023B138034
:102A2000E7E7FFF7BFFF042818D10E4B1B880133DF
:102A30000B4A1288934211DAFFF7B4FF0502ADB2D8
:102A4000FFF7B0FF284380B2431E9BB240F2B3525F
:102A5000934201D940F2B4506086CAE738BD00BF46
:102A6000565F0020525F00200E4B1B7813F0100FB2
:102A700001D10020704710B50446438B13F0100FAE
:102A800006D1D0F890301BB16FF00E010069984765
:102A900021460548FFF7C1FA2046FFF7B8F80120A4
:102AA00010BD00BF615F0020185F00201C4B1B7829
:102AB00013F0040F33D110B584B013F0020F1CD003
:102AC000184B1A68436AD11A00291CDB018D0B448C
:102AD0009B1A002B17DB144B1968144B144CB4F8D9
:102AE00000C00C88029449880191191F009162442A
:102AF0001049096801F0CDFF08E013F0010F02D082
:102B00000D4B1B6803620A4B1B880BB904B010BD48
:102B1000438B43F00203438302F012F8F6E7704759
:102B20005E5F0020105F0020305F0020A81D0020A5
:102B3000585F002000120020285F0020454B1B78C2
:102B400013F0040F40F08480F0B585B0054613F013
:102B5000100F04D113F0020F16D105B0F0BD3E4B9B
:102B600019683E4B3E4A10883E4A12680C8802940F
:102B700049880191191F009102443B49096853F8A3
:102B8000100C01F09DFFE8E7407DFFF789FB04464C
:102B9000002849D0354B5A6902601B694360EB8AB3
:102BA000C3822D4E33681B880383032303752D4F87
:102BB0003B6801334362C362FFF766F9A065206595
:102BC0006064E0653B68013B63652B692361E567F1
:102BD0006B7A03F00C0363722B7A2372244B1A680E
:102BE000E2601C6002F0ACF9224B01221A70204610
:102BF000FFF7F6FE3368DB89A4F86030A4F8623092
:102C0000668E251D284603F001FA01462A46304605
:102C1000FFF746F960861221204601F021FE90B9A7
:102C2000204601F08DFF98E7134AB2F89C3001333B
:102C3000A2F89C30AB69002B8FD04FF0FF320021FF
:102C40002869984789E700212046FFF70FFA84E7B3
:102C5000704700BF5E5F0020305F0020A81D00208D
:102C6000585F0020105F002000120020941D0020FB
:102C7000185F0020625F0020B01D00202DE9F041A8
:102C800080460C4617E000231F44EB19F51A002D6F
:102C900023DB25686068FEF7E0FDB8F866301B1A94
:102CA000A8F8663023890E4A11880B441380204609
:102CB000FFF7A1F82C4684B10A4B1E68E3685868F8
:102CC000FDF77FFF05462789E3689889FDF774FFC4
:102CD00010F0030FD7D00123D6E72046BDE8F081DE
:102CE000505F00200012002070B505460C46C368F6
:102CF0009889FDF761FF10F0010F09D02046FFF71A
:102D000087F8002429E026682046FFF774F8344647
:102D1000CCB12B89154A12681344E1684A682089AE
:102D200002449B1A002B0EDB8889FDF745FF10F04B
:102D3000010FE8D0EB689E890120FDF73DFFEB68AD
:102D400006439E81DFE744B1E3685A682B8907494F
:102D500009680B44D31A002B01DB2C6070BD521A9A
:102D600091B229816868FEF74CFDF6E7105F0020FC
:102D7000F8B50446A14B1B7813F0100F00F0218129
:102D8000B0F86000A26D8618616D9D4B1B68CD1A6E
:102D9000002D0ADB99424DD09A4909688A4214D124
:102DA000994A1268D28990420FD2974A1268D28902
:102DB00090B2A4F86020B4F86210884201D9A4F857
:102DC000622063658F4B1B68A365626C8D4B1B682B
:102DD000D11A002939DB8D490988002940F0E980A2
:102DE000A16DB4F860000144B14240F0E280B4F952
:102DF00030100029C0F2DD809A4240F0DA8094F869
:102E00004330FF2B02D0013384F8433094F8433031
:102E1000032B08D9B4F84810628E0A4492B291424A
:102E20000ED8A4F84820022B40F2C380204601F0BF
:102E300002FEBEE073490968511A0029ACDAB4E712
:102E40004FF6FF72A4F84820EDE7991A012900F126
:102E5000AD80216DC91A0029C0F2A880618B11F0E4
:102E6000040F09D021F004016183B4F84A10A4F8DA
:102E700048100021A4F86A10002084F84200B4F938
:102E80003C50E18F01EBE501A4F8401099B292B2F9
:102E90008A1A92B284F843006364237D032B17D906
:102EA000B4F84830B4F84A108B4249D2618B11F41F
:102EB000006F3ED00121608E11FB00F189B291427A
:102EC00094BF5818981882B2934234D8A4F8482076
:102ED000E36E4F4A216F2046FFF7D0FE034620677E
:102EE0004C4AE16E2046FFF7C9FEE066226F002AD9
:102EF00047D00023238600232377002845D0B4F849
:102F00006430454909880B44A4F86430638B13F49A
:102F1000006F4ED0002A3BD0D3685868FDF751FEB1
:102F2000E36CC01A002844DB638B23F400636383E3
:102F30003FE00221BFE74FF6FF73A4F84830C7E730
:102F4000B4F86A100A4492B2914210D8A4F86A20E8
:102F5000B4F86A209342BBD8D21AA4F86A20628ED1
:102F60001A4492B2934207D8A4F84820B0E74FF62B
:102F7000FF72A4F86A20EBE74FF6FF73A4F848301D
:102F8000A6E74FF6FF732386B5E7A4F86830B6E7E7
:102F900038B1C3685868FDF714FEE36CC31A002B00
:102FA00007DB638B23F40063638302E0204601F0B8
:102FB000A3FD636B2BB1A26B12490968521A002A58
:102FC0002EDB124B1B88002B00F09F82227D062AED
:102FD00000F29B82606A0A4A1268811A012957D45A
:102FE00013441B1A012B53D40C4B586889B21A890D
:102FF000521A1A810289521A92B23DE05E5F002095
:10300000105F002000120020305F0020585F002079
:10301000E8CE0010F0CE0010505F0020841D00208C
:10302000A24A16889BB2F21A92B2B4F93C00C0F3DD
:10303000CF05521B11B280B210FA82F212B2A287EF
:1030400000290FDBB4F93E30A1EBA3019BB213FAC8
:1030500081F1E187D21012FA81F1A4F84010002327
:103060006363AEE79B1B1D4429B2EBE7C91A89B223
:10307000028100234381006843898B42F6D3FEF727
:10308000D8FA636A8A4A13608A4AD268536002E0B7
:10309000121A002A14DB864B1A68616A531A002B35
:1030A000C0F22F82238D0B449B1A012B00F1298241
:1030B0008A420AD0656F002D00F06481002686E107
:1030C000638B43F002036383E5E77A4B1D89DB687A
:1030D0009889FDF771FD10F0030F15D001232B44E3
:1030E0009BB2754A1380228D93420FD8636F002BD9
:1030F00000F092806F4BDB689889FDF75DFD10F062
:10310000010F42D1656F4DE00023E8E7694BDB68B2
:103110009889FDF751FD10F0010F1FD1228D654BED
:103120001A81DB689889FDF747FD10F0020F03D084
:10313000604A1389013B13815E4D29896868FEF757
:1031400060FB2E89EB689889FDF736FD10F0030FC0
:1031500015D001231E44584B1E80C7E7554EF36817
:103160009D892846FDF728FD00F03E00FDF724FD6F
:10317000F26825F47C5540EA05039381CEE70023ED
:10318000E8E703686367FEF736FE606F0028F8D152
:1031900042E000231F44484B1F802E682846FEF75C
:1031A0002AFE354665B3444B1B88414A12681344D6
:1031B000E9684A68288902449B1A002B20DB888929
:1031C000FDF7FAFC10F0010FE7D03A4BDB68988965
:1031D000FDF7F2FC10F0020FDFD1364EF3689F8945
:1031E0000120FDF7E9FCF36807439F813789F36805
:1031F0009889FDF7E1FC10F0030FCAD00123C9E75D
:103200004DB1EB685A682A4B19682B4B1B880B444D
:10321000D31A002B23DB6567274B1A88244B1B68C6
:1032200013446362238D9B1A23852046FEF7A3FD7A
:10323000204B5B681A8922B1204A13601D4B002283
:103240005A601C4BDB689889FDF7B6FC10F0010F43
:1032500050D01B4A137843F0200313704AE0521AEF
:10326000144B1A81DB689889FDF7A6FC10F0020F59
:1032700003D0104A1389013B13810E4E31897068C7
:10328000FEF7BFFA3789F3689889FDF795FC10F0CF
:10329000030F04D001231F44074B1F80BBE700230B
:1032A000F9E7002338E0002347E000BF285F002053
:1032B000105F0020841D0020585F0020045F002064
:1032C000615F0020994B196000236B60EB6898895F
:1032D000FDF772FC10F0010F07D0954A137843F008
:1032E00020031370237D042B39D02B686367284695
:1032F000FEF781FD656F002D34D0EA685368616A7E
:103300008B422FD18B490B602E899089FDF754FC9D
:1033100010F0030FC5D001231E44636A3344636277
:10332000EB689889FDF748FC2E89EB689889FDF7D2
:1033300043FC10F0030FB6D001231E44238D9B1BCA
:1033400023852046FEF717FD69680B89002BBDD049
:10335000764B18680028B5D0FEF794FAB4E7072337
:103360002375C2E7638B13F0010F07D023F001032D
:103370009BB2638343F002036383D5E043F0010310
:103380006383D1E06C48FEF750FD606704E06A4B50
:103390001A892B899A4203D8204601F0ADFBC3E07D
:1033A0006548FEF742FD03460028F5D02EB1306097
:1033B00029461846FFF798FCEEE76067F8E7D11A50
:1033C000002929DB29682E46002936D00D46002D1C
:1033D000E2D0E86843689A42D9D0002EEFD0F16875
:1033E0004968511A0129EDD4991A0129EAD45248A1
:1033F000FEF71BFD07460028CED04E4B1A68F36837
:10340000596833890B44D31A002B0FDB37602946E8
:103410003846FFF769FCBFE74748FEF706FD00287E
:10342000BAD060672946FFF75FFCB5E7521A91B240
:1034300031817068FEF7E5F9E8E79B1A002B01DBA4
:103440000D46C4E78089FDF7B7FB10F0010FA3D14B
:103450003948FEF7EAFC286000289DD0354B1B68F0
:10346000EA6851682A890A449A1A002A2EDB636A9C
:10347000228D1344314A12882E4909680A449B1A46
:10348000002B89DA2B68DB689889FDF795FB10F033
:10349000010F22D1626A238D13449BB22A68254909
:1034A00009685B1A13812B6819895868FEF7A9F916
:1034B0002B681D89DB689889FDF77EFB10F0030FF0
:1034C0001DD001231D441D4B1D8065E75B1A99B279
:1034D00029816868FEF795F9C9E72B68DB689E8942
:1034E0003046FDF769FB00F03E00FDF765FB2B68F9
:1034F000DA6826F47C5640EA06039381CAE7002383
:10350000E0E7204601F0F8FA0EE00A4B1A68636A19
:10351000D11A002904DB218D0B449B1A012B03D502
:10352000638B43F002036383F8BD00BF045F002098
:10353000615F0020105F0020841D0020585F002084
:1035400070B584B00446A04B1B7813F0040F29D04B
:10355000037D022B11D0436A9C4A1268934215D016
:10356000D11A00290EDB018D0B449B1A002B09DBBD
:10357000438B43F00203438304E0026D944B1B68CA
:103580009A4203D00025284604B070BD914A1378B2
:1035900043F008031370638B23F0010363836FF020
:1035A0000D05F0E713F0020F04D0037D023BDBB200
:1035B000012B28D8638B13F0100F02D1864B1B68A8
:1035C0002362002384F89B3084F89A302046FFF76A
:1035D00007FA7D4B1A7812F0020105D0237D023BD9
:1035E000DBB2012B00F21382237D023B072B00F29A
:1035F0001082DFE813F00E009A00270138018F01D6
:103600002701BE01F201438B43F0020343830025EF
:10361000B9E702F01203122B04D012F0100F65D19B
:103620000025B0E7636C0133694909688B42F4D126
:10363000664B1B685A1C6262E2626164674A1268E8
:10364000D289A4F86020A4F86220013B63650423BA
:103650002375668EE518284602F0D8FC01462A46F6
:103660003046FEF71DFC6086420041F21C13934277
:1036700038BF1346B3EB800F26D983009BB2A4F862
:103680004830B4F86630013BA4F86630206F28B3A8
:1036900003682367FEF7AFFB236F1BB3002323866A
:1036A00084F84230D4F8883043B1002221462069A2
:1036B0009847054610F10D0F3FF465AF638B43F05B
:1036C0000203638300255EE741F21C139A4202D98C
:1036D00043009BB2D3E741F21C13D0E7E06E0368CE
:1036E000E366D7E74FF6FF732386DBE73B4B1968AA
:1036F0003B4B3C4A1088354A12680D880295498830
:103700000191191F0091024431490968204601F0D6
:10371000C0F994F84230052B01D9002533E7002584
:103720002586204601F03BFB2DE761B1636A013B32
:10373000264A1268934201D0002524E7204601F072
:1037400046F900251FE712F0100F00F06481204BAE
:103750001968636CCB1A012B61D4236D5B1A002BA3
:103760005DDB04232375E36F002B3FD09B69002BA7
:1037700044D000222146206998470546002837D1C9
:103780002046FFF7F5FA184B1B8813B1013B164A88
:103790001380638E590041F21C128A4238BF0A46D8
:1037A000B2EB830F31D99B009BB2A4F84830094B90
:1037B0001B7813F0200F3FF4E6AE638B43F0020357
:1037C000638307232375DEE65E5F0020105F002021
:1037D00000120020615F0020285F0020305F002081
:1037E000A81D0020585F0020505F00206FF00505E5
:1037F00015F10D0F05D16FF00C05C4E66FF00F0544
:10380000F6E72046FEF7A0FCF5E741F21C129142D4
:1038100002D95B009BB2C8E741F21C13C5E7834B9A
:103820001868834B834A1588834A12680688029673
:1038300040880190181F00902A44204601F029F981
:103840000025A0E62046FFF793FA7C4B1B7813F087
:10385000200F00F0E280638B43F0020363830723B1
:10386000237500258FE62046FFF782FA734B1B78FD
:1038700013F0200F39D0724B1B7813F0100F04D0C7
:10388000226D704B1B689A4207D0638B43F0020392
:10389000638308232375002575E6E36E002BF4D1BE
:1038A000638B43F0020363832046FEF792FB664B73
:1038B0001B68A34205D053B1DA68A24205D0134673
:1038C000F9E7DA68604B1A6001E0E268DA60002527
:1038D000E5605E4B01221A700A2323755C4B1A685F
:1038E000E2601C6001F02CFB4DE6554B1B7813F099
:1038F000100F00F09480226D524B1B689A4201D049
:10390000002540E6E36E0BB100253CE60623237557
:10391000002538E62046FFF72BFA484B1B7813F0BA
:10392000200F01D100252EE6638B43F00203638351
:103930002046FEF74EFB444B1B68A34205D053B113
:10394000DA68A24205D01346F9E7DA683E4B1A60FE
:1039500001E0E268DA600025E5603C4B01221A7064
:103960000A2323753A4B1A68E2601C6001F0E8FAFA
:1039700009E62046FFF7FCF9314B1B7813F0100FD6
:103980004FD0226D2F4B1B689A4201D00025FAE5DB
:10399000E36E0BB10025F6E52046FEF71AFB2A4B35
:1039A0001B68A34205D053B1DA68A24205D0134682
:1039B000F9E7DA68244B1A6001E0E268DA60002572
:1039C000E560224B01221A700A232375204B1A68E6
:1039D000E2601C6001F0B4FAD5E52046FFF7C8F9B3
:1039E000174B1B7813F0100F1DD0226D154B1B6861
:1039F0009A4201D00025C6E5E36E0BB10025C2E571
:103A00000E4A137843F0100313700025BBE5002520
:103A1000B9E50025B7E50025B5E50025B3E50025A6
:103A2000B1E50025AFE50025ADE500BF305F002022
:103A3000A81D0020585F0020105F0020615F00205B
:103A40005E5F002000120020185F0020625F0020EF
:103A50002C5F0020F0B585B00446A24AB2F892303F
:103A60000133A2F8923042689F4B1A604389132BAE
:103A700010D89C4AB2F89A300133A2F89A30994A89
:103A8000B2F896300133A2F896302046FDF7FFFDDC
:103A900005B0F0BD954B1968586902F090FCA8B9C3
:103AA000924B5B6903F0F003E02B0FD0904B1A1D93
:103AB0000092228906212046FDF732F968B1894A31
:103AC000B2F898300133A2F89830D8E7854AB2F8B6
:103AD000A0300133A2F8A030D1E7834B1B6898894E
:103AE000FDF76AF8C0F307318900C9B213294AD932
:103AF0002389994247D8A1F114039BB27D4A1380D0
:103B00007D4A002010606289914243D87B4A13802D
:103B10002046FDF78EFD744D2E683088FDF74CF879
:103B200030802E687088FDF747F870802E687068C6
:103B3000FDF747F87060724B18602E68B068FDF7AB
:103B400040F8B0606F4B18602E68F089FDF734F8CC
:103B5000F0812B689889FDF72FF8C1B200F03F0281
:103B6000694B1A702389694A138010F0030F05D03E
:103B70005A1C92B265480280934230D8644B1F6849
:103B80003D4600263AE0574AB2F89A300133A2F88F
:103B90009A3074E714212046FDF74BFD6589574B99
:103BA0001D80544B1F887E1BB6B229462046FDF768
:103BB00040FD20684389B34206D24A4AB2F89A309F
:103BC0000133A2F89A305AE742684B4B1A603146EB
:103BD000FDF72FFD2389ED1B2B4423819BE7414AF1
:103BE000B2F89A300133A2F89A3048E7288B3E4B5E
:103BF0001B681A8890420FD02E46ED68002D6ED0BB
:103C00002A7A002AF2D0394B5B6893F828300133C6
:103C1000DBB29A42EAD0EFE7EA8A5B889A42EBD1BC
:103C20006A68324B1B699A42E6D12A682F4B5B695E
:103C30009A42E1D1002E4BD0EB68F360EF60344B39
:103C40001D60002D00F04F81324A0023136020894F
:103C50001081546024480068D0602F4A13602F4AB6
:103C600013702F4A138011F0080F03D0637B43F0C9
:103C700001036373AB6F6BB12846FEF749FC10F18B
:103C80000D0F00F0B380AB6F23B1204B1B88002BCE
:103C900040F0AC80234B1D602846FFF751FC10F12B
:103CA0000D0F00F0AB801D4B1B7813F0080F00F0D8
:103CB000B980D5F890301BB16FF00D012869984795
:103CC00029461348FEF7A9F92846FDF7A0FF95E01D
:103CD000044AB2F8A6300133A2F8A630B1E7124B7D
:103CE0001D682AE0B01D0020305F0020941D0020D8
:103CF000A41D0020565F0020345F0020545F002088
:103D0000105F0020001200205E5F0020585F00203E
:103D1000185F0020841D0020045F0020615F0020E8
:103D2000505F0020205F00202C5F0020288B844BF8
:103D30001B681A8890420DD0ED6805B32A7A002AD4
:103D4000F4D0804B5B6893F828300133DBB29A42A1
:103D5000ECD0F1E7EA8A5B889A42EDD16A68794B48
:103D60001B699A42E8D12A68764B5B699A42E3D193
:103D70002846FEF79BFE2046FDF789FC88E6724B3D
:103D80001F6838462E4607E0C28A6D4B1B685B8869
:103D90009A420ED00646C06890B1027A002AF3D04B
:103DA000684B5B6893F828300133DBB29A42EBD062
:103DB000F0E70368634A5269934201D0002BE9D1CE
:103DC00000283FF43EAF56B1C368F360C7605E4B56
:103DD0001860FEF7B3FE2046FDF759FC58E65B4A33
:103DE000B2F8A6300133A2F8A630F2E76B8DABB182
:103DF000564AB2F896300133A2F896300023544A5E
:103E00001360544A1360544B586800283FF440AE86
:103E1000FDF73DFC504B00225A6039E6284600F081
:103E20006BFEE5E74D4B1A885AB1D5F880302BB1BF
:103E300029462869984710F10D0FDFD0474B002223
:103E40001A802846FEF710FE0028D7D1414B1A6889
:103E50008AB16B8B13F0100F24D1D5F8844044B392
:103E6000002329462869A04710F10D0FC6D010B1D4
:103E7000384B1B68AB673A4B1B7813F0200F05D00B
:103E8000AB6FE3B15A7B42F020025A73304B0022F1
:103E90001A602846FEF7E8FD0028AFD1284600F05A
:103EA0004FFEABE71046FDF7F2FB2846FEF74CF954
:103EB000A4E7002329461846FEF714FBD4E72B8D10
:103EC00041F2D062934201D001332B85D5F8844072
:103ED000002CDBD000231A4629462869A04710F1A0
:103EE0000D0FD3D18AE7164B1B689889FCF764FE47
:103EF00010F0040F03D02046FDF7C9FBC8E5134BB3
:103F0000B3F8A0200132A3F8A020B3F89620013224
:103F1000A3F896200A4B1968124B134A1088134ACB
:103F200012680D88029549880191191F0091024479
:103F30000F49096853F8100C00F0C2FDDBE700BF21
:103F4000305F0020941D0020245F0020B01D002061
:103F5000205F0020045F0020841D0020505F0020AF
:103F6000615F0020A81D0020585F0020105F002026
:103F700000120020024A137843F0100313707047B8
:103F8000615F0020037D042B05D0072B03D0022B9B
:103F900001D0032B1ED101B3B0F864308B4205D39E
:103FA000B0F866300F2B08D800207047438B43F0E1
:103FB000800343834FF0FF307047094AB2F89C30CA
:103FC0000133A2F89C30438B43F0800343834FF0CE
:103FD000FF3070476FF00A0070470020704700BF45
:103FE000B01D002043689B7B012B01D1002070474E
:103FF0000120704738B50C461D469DF81830914297
:1040000015D29DF8141011F0020F08D10499498BB4
:1040100011F0400F1ED113B1049BDB6EA3B104F26B
:10402000B75323F003039A4228BF1A4691B24FF4C4
:104030002072FDF760FB024620B143891B1B2B80D9
:1040400004814481104638BD049B1B6F002BE6D1D0
:104050002146ECE72146EAE72DE9F04707460E4600
:10406000904699469DF820A00320FDF747F90446A5
:1040700080B34FEA8A0505F0040580F80AA0002302
:104080000360466033895B1B038114213046FDF7D2
:10409000CBFA18BB63685E68E660F88AFCF78CFDB3
:1040A0003080E668388BFCF787FD7080E66848460C
:1040B000FCF787FD7060A8080530E56848EA003025
:1040C000FCF77AFDA881E36800229A74DA7420462E
:1040D000BDE8F0873046FDF7DAFAF8E7054AB2F8AE
:1040E000A4300133A2F8A4302046FDF784FE00245A
:1040F000EDE700BFB01D00202DE9F04106460C465B
:104100001F46114489B214314FF4207289B2222023
:10411000FDF7F1FA804618B34568BDF81800FCF7C2
:104120004BFD2880BDF81C00FCF746FD68806F60E1
:104130003046FCF746FDA860A40805342403A4B269
:104140009DF820002043FCF737FDA881BDF824002E
:10415000FCF732FDE88100232B746B74AB74EB74B5
:104160004046BDE8F08110B584B00446408D039010
:1041700010200290208B0190E08A0090606AFFF787
:10418000BBFF18B1636A628D1344E36204B010BDD3
:1041900010B584B014460846FCF713FD03464DF2F3
:1041A0001602039214220292BDF820200192BDF85B
:1041B0001C200092002211462046FFF79DFF04B00C
:1041C00010BD08B508B1007A18B9104601F01EFFFD
:1041D00008BDFDF771F9FBE72DE9F04184B0054614
:1041E0000C461646FFF7FEFE18B1002004B0BDE8ED
:1041F000F081EF68606AFCF7E4FCB860EF68608DFE
:10420000FCF7DAFCF881636A628D1344E362EF68BD
:10421000AB7A13F0010F36D1B4F93030002B3EDB0E
:10422000636B002B3ED0EB686A6851685B1A9BB2E7
:104230005189C91A518169680A89D31A0B816A6840
:10424000EB68536000221A745A74D5F80C806868C1
:10425000271D0289009723460621FCF761FDA8F877
:104260001000154AB2F890300133A2F8903002964F
:1042700006230193A37A0093E37A3A4621466868BD
:1042800002F088F8B2E7221D314640F2B450FDF743
:1042900007FE40F00170FCF794FC7861BCE7002356
:1042A0002386BDE7054B1B686363EB685868FCF722
:1042B00088FCA063B7E700BFB01D0020285F002086
:1042C0002DE9F04184B005460C4616461F46D1F84C
:1042D0000480009313460A8906212046FCF720FD3E
:1042E000A8F81000CDB1EB7AA87A0D49B1F890206A
:1042F0000132A1F890200A9A0292062201920090BF
:104300003A463146204602F045F805462046FDF77C
:10431000BEF9284604B0BDE8F0810020FF23E4E7A1
:10432000B01D0020F0B583B007460E4614461D466A
:104330001A462146FFF745FF40B100902B46224622
:1043400031463846FFF7BCFF03B0F0BD3046FDF7FD
:104350009EF96FF00300F7E72DE9F04F91B0069159
:104360000A930023ADF83E30002800F0BE8192464B
:104370000746B0F862305B08B0F832B05B4528BF42
:104380005B4603B19B46069B002B00F0B281514671
:104390003846FFF7F7FD0990002840F00981B7F88B
:1043A0006660D7F86C90B9F1000F00F007814B46BA
:1043B00008931B68002BFBD19946089C94F80AC00F
:1043C0004FEA8C0C0CF0040C23899C441FFA8CFCE3
:1043D000ABEB0C0C1FFA8CF0B7F86850ADF83E5000
:1043E00085B12A46554528BF5246824228BF02461B
:1043F000A91AADF83E10A0EB020C1FFA8CF015467E
:10440000A04600E0C846554580F0DF80002800F057
:10441000E980002B00F0E880AAEB05038342A8BFE7
:1044200003469CB20A9B13F0010F27D1089BD3F8D7
:1044300004904A4613461268002AFBD191461A7B23
:104440003F2A05D85A685B891344069A934232D0B2
:10445000012221460020FDF74EF98146002800F098
:104460003981069B2B444360FDF7F7F933189EB260
:1044700000202C44A4B2DDF82080A8E001230293A0
:104480000A9B019300970DF13E030246214600204E
:10449000FFF7B0FD8146002800F01A812246069BF6
:1044A0005919406808F000FC4846FDF7D6F9331862
:1044B0009EB20020DDE72046DBE7012229463620B8
:1044C000FDF719F90790002800F00981069B2344A5
:1044D00043604FF4207200213620FDF70CF980462E
:1044E000002842D00799FDF7CDF94046FDF7B5F910
:1044F000304486B2102E3ED8FB6D00220092234439
:1045000041463846FFF7A8FD0346002800F0EA8040
:10451000049A002A50D0059A10602544ACB2059345
:10452000544564D2AAEB0405ADB25D4528BF5D4693
:1045300019F0010FC1D0049BB3FA83F35B09029316
:10454000CDF8049000970DF13E035A4629463620D7
:10455000FFF750FD8046002800F0BE802A46069BEB
:104560001919406808F0A0FBBFE7DDF82C90079808
:10457000FDF78DF804E0DDF82C904046FDF787F854
:104580007B8B43F080037B835C4AB2F89C30013321
:10459000A2F89C30B9F1000F02D04846FDF777F839
:1045A000049B13B11846FDF733FC4FF0FF3309931A
:1045B000099811B0BDE8F08F0490AEE7C846CDF879
:1045C000209000200546044601E02C4600200023F0
:1045D00004930593CDF82C9043460C950D90DDF88F
:1045E00028909DE72C46F2E718462C46EFE7DDF8C9
:1045F0002C9098460C9D0D98DDB1089B5C68834615
:1046000000E0246884B123892B4423812368002B94
:10461000F7D1606863892A460699184408F044FB7C
:1046200063892B446381ECE75846089A13892B442D
:104630001381BDF83E30A7F86830B9F1000F2BD0D8
:104640004946089C6068FDF71DF92389B9F80820E0
:1046500013442381089B049A1A60FB6D5344FB6545
:10466000B7F86430A3EB0A03A7F86430A7F86660D4
:10467000B8F1000F9CD0D8F80C30002B98D00A9AD3
:1046800012F0020F94D19C890820FCF795FAD8F813
:104690000C3004439C818BE7A0B1089B5B6803E06E
:1046A0001A8902441A810B4619680029F8D11A891F
:1046B00002441A815A8902445A81089A1389034490
:1046C0001381C7E7089B002BC4D1049BFB66C4E79A
:1046D000049055E7049053E7DDF82C9050E7DDF89F
:1046E0002C904DE7DDF82C904AE76FF00F0309930B
:1046F0005EE76FF00F0309935AE700BFB01D00207B
:104700002DE9F04F83B0C56E002D00F09D80064668
:104710000C46002900F09B80B5F80880884503D836
:10472000002003B0BDE8F08F95F80AA04FEA8A0B8D
:104730000BF0040BA8EB0107BFB20BEB07014FF422
:10474000207289B23620FCF7D6FF814670B16868C6
:1047500003892A899B1A14FA83F3D9F804109BB2AF
:104760003A465944FDF727F9B8420ED03B4AB2F811
:104770009C300133A2F89C30B9F1000F6AD0484652
:10478000FCF785FF4FF0FF30CBE7EB689889FCF72B
:1047900013FAC3B200F03F0710F0080B03D003F088
:1047A00037074FF0080B17F0010F03D007F0FE0793
:1047B0004BF0010BEB685868FCF703FACDF800A04A
:1047C00023185A4649463046FFF746FC81460028E2
:1047D000CCD06868FDF741F8B6F866301B1AA6F829
:1047E000663068680189A4EB0804A4B2214489B248
:1047F000FDF707F82B8923442B81EB689C89384609
:10480000FCF7DAF9EB6804439C816868FDF725F84A
:10481000B6F866300344A6F86630D9F80400FDF710
:104820001CF8B6F866300344A6F866302B68C9F861
:104830000030C5F80090D9F800300BB1002070E7C7
:104840000020A6F868006CE74FF0FF3069E76FF0D2
:10485000050066E74FF0FF3063E700BFB01D0020A2
:10486000F0B583B004460D4601F0030711F00206CF
:1048700000D00126B1004FF4207201F0040136206F
:10488000FCF739FF014640B30096E36D2A46204607
:10489000FFF7E2FB014668B3E36E002B37D01A4600
:1048A0001B68002BFBD111600023A4F868304FB1C6
:1048B000E36D0133E36515F0010F03D0638B43F023
:1048C000200363834868FCF7C8FFB4F866300344EC
:1048D000A4F86630002003B0F0BD638B43F0800382
:1048E00063830C4AB2F89C300133A2F89C304FF03D
:1048F000FF30F0E7638B43F080036383054AB2F82F
:104900009C300133A2F89C304FF0FF30E3E7E066C3
:10491000CAE700BFB01D002070B50546C36E53B195
:104920001C461B68002BFBD1E3689889FCF744F90F
:1049300010F0070F04D001212846FFF791FF70BD4A
:10494000E3689E890120FCF737F9E36806439E81FE
:104950006B8B43F020036B830020F0E7F8B506462D
:10496000046F74B3254624683CB12846FFF73AFB30
:104970000028F7D06FF0050020E02846FFF732FB53
:1049800010BBF36E2B60336FF36600233367738BBA
:1049900043F400637383EB685868FCF712F904462C
:1049A0002F89EB689889FCF707F910F0030F06D000
:1049B00001231F443C44F46400207063F8BD0023CD
:1049C000F7E76FF00500F9E76FF00500F6E7F8B5D7
:1049D000066F56B307463046FFF704FB40BB33680B
:1049E0003B6707F16C0500E02D682B685BB1DB6865
:1049F0005868FCF7E6F80446F3685868FCF7E1F8F5
:104A0000241A002CF0DB2B6833602E6033684BB126
:104A100097F84230FF2B02D0013387F84230002054
:104A20007863F8BDA7F86830F2E76FF00500F8E7A3
:104A30006FF00500F5E7036F53B310B50446438BE1
:104A400013F0040F00D010BDFFF7C1FF0028FAD10A
:104A5000B4F86030B4F84820934228BF13465B1086
:104A6000A4F84A309BB2628EB3EB420F02D25300DD
:104A7000A4F84A30B4F84A3002EB42021344A4F8D6
:104A80004830638B43F00403638300232386DAE713
:104A90007047F0B585B004461D460A9EBDF83070DB
:104AA0000297BDF82C7001970096FFF771FB28B1B3
:104AB000014633462A462046FFF734FC05B0F0BDD8
:104AC000C8B130B585B01C460546BDF82830029304
:104AD000BDF824300193089B009323460020FFF784
:104AE00057FB014628B10095089B22460020FFF79E
:104AF000E7FB05B030BD704710B50446006DFCF70C
:104B000060F80346002211462046FFF72CFB58B1FF
:104B10000146231D22462046FFF704FC58B1638B53
:104B200043F00303638310BD638B43F0030363838C
:104B30006FF00100F7E7638B23F003036383F2E771
:104B4000904B1B68834200F017812DE9F047054622
:104B5000B0F84860B0F860309E4228BF1E46C46E70
:104B600024B3021D0146FFF72CFB8046002800F00D
:104B700006810DB12B6813B9D8F800302B60E368BB
:104B80005868FCF71EF86B6CC01A23891844B042B1
:104B90002BD9B5F860309E4218D06B8B13F0020F02
:104BA00008D02846FFF7A8FF034608E0438B13F020
:104BB000020F07D16B8B23F080036B830023184611
:104BC000BDE8F087FFF798FF0346F8E72B6F002B4F
:104BD000E3D195F89930002BDFD185F89830012288
:104BE00085F8992085F89A30D7E7002385F8993021
:104BF0002B6F002B00F0BE801F461B68002BFBD1E3
:104C00004EE011896A8E914266D2B5F86420002A7E
:104C100062D0B5F866200F2A5ED813F0A00F5BD1E2
:104C2000EB6E002BC6D1A5F86830C3E7E368B3F894
:104C30000C901020FBF7C0FFE36849EA0009A3F8D5
:104C40000C904CE06A8B42F080026A83B7E7002345
:104C500065E028656AE0002372E02C6727461EE0C5
:104C600005F1700A01E0DAF800A0DAF800306BB163
:104C7000DB685868FBF7A5FF8146E3685868FBF7D7
:104C8000A0FFA9EB0009B9F1000FECDBDAF8003066
:104C90002360CAF8004002E02046FDF7ACF8EC6E55
:104CA000002CBDD0E3685868FBF78BFF6B6CC01A13
:104CB00023891844B042B3D8E3689889FBF77CFF96
:104CC0002B6F4BB16B8B13F0440F05D1EA6E002AAA
:104CD0009BD01168002994D02B7D022BA6D142468F
:104CE00029462046FFF778FA03460028AAD1236810
:104CF000EB662B7D022B03D06B8B23F003036B83BE
:104D0000E3685868FBF75DFF8146B4F808A0E368E4
:104D10009889FBF751FF10F0030F98D001239A44B4
:104D200009EB0A002B6D1B1A002B92DBB4F80890DC
:104D3000E3689889FBF740FF10F0030F8BD0012345
:104D400019EB030FA8D0002323602B6F002B84D016
:104D5000E3685868FBF735FF8146FB685868FBF746
:104D600030FFA9EB0009B9F1000FFFF679AF3C6005
:104D7000274694E71F4693E70023184670476FF0D5
:104D800003031CE7205F002008B590F84230FF2B9A
:104D900002D0013380F84230FFF7D2FE08BD10B5D3
:104DA0000446FFF7DBFD00B110BD2046FFF7ECFF26
:104DB000FAE710B50446006D0138FBF702FF034621
:104DC000002211462046FFF7CEF930B10146231DDF
:104DD00022462046FFF7A6FA10BD4FF0FF30FBE752
:104DE0002DE9F041C56E002D4DD0044690F89A3063
:104DF000FF2B02D0013380F89A30EB689889FBF7DB
:104E0000DBFE10F0010F03D02B896BB3002200E012
:104E1000002202F0FF08EB685B6882F001020021CB
:104E20002046FFF7A0F9064678B34768B8F1000FAF
:104E30001CD0B7F80C801120FBF7BEFE28F47C587C
:104E400040EA0800B881EB685868FBF7BAFE013009
:104E5000236D1B1A002B14DB231D224631462046EE
:104E6000FFF760FABDE8F0810122D2E768680389A4
:104E70002A899B1A9BB2012207F11401FCF79BFDC2
:104E8000E1E72065E8E70020ECE74FF0FF30E9E7D5
:104E9000F8B504460F4616460620FCF72FFA78B1FF
:104EA0000546002303608760C66044600D4B1A68A6
:104EB0003AB15368E31A002B08DA0260094B186014
:104EC000F8BD1860FCE72B601560F9E7002AF7D001
:104ED0001368002BF7D05968611A0029F3DB1A46D2
:104EE000F4E700BFD457002038B50446436898471C
:104EF000FBF7AFFA84462568094B18682844A0EBF5
:104F00000C03002B06DA2246064905EB0C00FFF7DE
:104F1000BFFF38BD22460349FFF7BAFFF9E700BFDC
:104F200030130020E94E001070B504460D461646B9
:104F3000FBF78FFA324629462044FFF7A9FF70BDE0
:104F400008B50A4B1B6853B9094B1B6843B1074BA3
:104F500001221A6000220749FA20FFF7E5FF08BD89
:104F6000054B1B68002BF2D1F9E700BF385F00202A
:104F7000185F00207D4F00102C5F002008B5FDF762
:104F8000FFFC084B1B682BB100220749FA20FFF7F2
:104F9000CBFF08BD054B1B68002BF5D1044B00224D
:104FA0001A60F6E7185F00207D4F00102C5F00208C
:104FB000385F002010B5012408E0064B03EBC40263
:104FC000054953F83400FFF7AFFF0134022CF4D940
:104FD00010BD00BF00D90010E94E001070B5FBF7FE
:104FE00038FA054611E00E4B1968C1B14B68EA1A50
:104FF000002A14DB08680A4A10608C68CE68094AE7
:1050000013600620FCF788F934B9074B1B78002B96
:10501000E9D0FCF7BDFAE6E73046A047F5E770BDFA
:10502000D457002030130020605F00200020104A79
:105030001388591C11804FF6FF72934209D00D4B13
:105040001B6893B1598A0A4A1288914206D0DB68DC
:10505000F7E7074B4FF440421A80F0E7013080B287
:10506000B0F5804FE3D300207047014B188870479C
:10507000DA0D0020485F002010B4047A3CB1194BCF
:105080005B6893F828300133DBB29C4217D16AB1D8
:10509000C8B10368CBB1134A5269B2F1FF3F16D0D1
:1050A000496853400B4214D0002009E098B10368CE
:1050B0009BB10C4949698B4211D0104600E0002099
:1050C0005DF8044B70470120FAE70120F8E7012062
:1050D000F6E70120F4E70120F2E70120F0E70120E4
:1050E000EEE700BF941D0020704700002DE9F04F4F
:1050F00085B080466E4AB2F87A300133A2F87A3031
:105100004389072B1BD90E46D0F804B0694B1968A8
:10511000586901F054F90746BBF80000FBF74CFD55
:105120008146BBF80200FBF747FD0546624B1A6853
:1051300014464FF0000ACDF808A0039215E013467C
:10514000B2F882200132A3F88220B3F87E20013227
:10515000A3F87E20FCF79BFA05B0BDE8F08FA246CD
:10516000A38A4B4525D00294E468002C36D0638A8C
:10517000AB42F8D13A4631462046FFF77DFF002882
:10518000F1D0237C13F0040FEAD1BAF1000FE6D07E
:10519000002FE5D0474B5B69B3F1FF3FE0D1DAF870
:1051A000002033689A42DBD022689342D8D1A246CD
:1051B000D6E763681BB13F4A12699342D3D1039A81
:1051C000029929B1E368CB60E2603B4B1C6024E0AC
:1051D000374AB2F88E300133A2F88E30E4B1BBF812
:1051E00006304BB1354B1A1D0092B8F8082011213A
:1051F0004046FBF795FDD8B908214046FCF719FA5F
:1052000028BB94B3A56965B3E069CDF800902B4B3A
:1052100042462146A8479FE75446002CDFD132681A
:10522000244B5B699A42DAD04046FCF730FA93E7A8
:105230001F4BB3F880200132A3F88020B3F87E2002
:105240000132A3F87E204046FCF721FA84E7184A91
:10525000B2F87E300133A2F87E304046FCF717FAF0
:105260007AE74046FCF713FA76E72FB9114B5B69F2
:1052700003F0F003E02B0ED10D4BB3F88820013280
:10528000A3F88820B3F87E200132A3F87E204046A0
:10529000FCF7FDF960E7074B9989083109B24046F0
:1052A000FCF7F0F90321404600F08AFEE4E700BF76
:1052B000B01D0020941D0020485F0020A41D002088
:1052C00070B504460D4649B1002C31D0214B1B6806
:1052D000194629B1A14214D0C968FAE71E4DF3E777
:1052E00000268AB9FFF7A2FE024620B3F5B12B686B
:1052F000236062825EBB174B1A68E2601C6000206C
:1053000070BD0126EDE7DB68002BEFD0A342FAD099
:10531000598A9142F7D11868296888420ED081B124
:1053200093B10028EFD16FF00700E9E70023DFE732
:105330006FF00F00E4E76FF00700E1E76FF00700A0
:10534000DEE76FF00700DBE76FF00700D8E700202B
:10535000D6E700BF485F00201CD900102DE9F04FB0
:1053600085B0DDF838B0DDF83CA000286ED00C46E2
:1053700090469946054600296BD0002A6CD0BAF1B8
:10538000000F6CD0BBF1000F6CD0428AC2B12289F1
:105390004FF6F7739A4268D808212046FCF744F983
:1053A000A8B14FF4207208212220FCF7A4F9064688
:1053B00000285DD023895BB12146FCF776FA07E02F
:1053C0000146FFF77DFF07460028E0D02CE0264687
:1053D0007768688AFBF7F0FB38804846FBF7ECFB00
:1053E00078800023BB71FB713089FBF7E5FBB88047
:1053F0002B7C13F0010F1BD0CDF808B011230193C3
:10540000AB7A0093EB7A42465146304600F028FFD3
:105410000746A64202D03046FCF739F9164AB2F8E0
:1054200078300133A2F87830384605B0BDE8F08F07
:105430003289CDF80080534611213046FBF770FCCD
:10544000034608B94FF6FF73FB80D5E76FF00F07EF
:10545000EAE76FF00F07E7E76FF00F07E4E76FF099
:105460000F07E1E76FF00F07DEE74FF0FF37DBE7ED
:105470004FF0FF37D8E700BFB01D0020F0B583B074
:10548000089DC8B10446D1B1E2B1F5B160B106687A
:1054900056B106F0F00CBCF1E00F05D02F68BE420B
:1054A00003D06FF0030005E02846019000952046E8
:1054B000FFF754FF03B0F0BD6FF00F00FAE76FF095
:1054C0000F00F7E76FF00F00F4E76FF00F00F1E760
:1054D00010B3F0B583B00D4614461E460746F1B131
:1054E00002B3007A58B1FBF7E7FF60B10090334692
:1054F000224629463846FFF7C1FF03B0F0BD1046EB
:1055000000F084FDF1E7094AB2F886300133A2F8D1
:1055100086306FF00300F0E76FF00F0070476FF018
:105520000F00EAE76FF00F00E7E700BFB01D0020B3
:1055300008B18161C2617047C0B108B501460C4B2A
:105540001A68824209D1D2681A600020FBF7E4FE93
:1055500008BDCB68D360F8E71A46002AF5D0D368B7
:10556000002BF9D08B42F4D01A46F6E7704700BF03
:10557000485F002010B50020FBF7C0FE044628B1AC
:105580002022002107F0B8F9FF23E372204610BD66
:10559000B8B102460368A3B199B10B688BB1094B4E
:1055A0001B686BB110B401E0DB6833B110681C6894
:1055B0008442F9D108681860F6E75DF8044B70473B
:1055C00070477047485F002010B5044600EB40026A
:1055D000094B53F8320038B1FCF759F804EB440397
:1055E000DB00054A0021D15004EB4404024B03EBDD
:1055F000C40300221A7510BD041200202DE9F04FDB
:1056000083B007464FF0000EF346F1464FF00A080C
:1056100073464546C246CDF8048003E078B91D467E
:1056200001331BB2092B40DC1C4603EB43003C4A10
:1056300002EBC002107D0A2DF0D00028F0D047B157
:105640003A6804EB440C364E06EBCC067668B24260
:105650005DD001280ED00128E2D90428E0D804EB5F
:1056600044042F4A02EBC402528A7245D8D39646AC
:105670009A46D5E704EB4402294850F832204AB153
:1056800004EB440400EBC402528A4A45C8D3914655
:105690009846C5E704EB4404214A02EBC402528A4F
:1056A0005A45BDD393460193BAE711F0020F30D1AA
:1056B0000A2D0CD0092D16DDBAF1090F0DDD019B65
:1056C000092B0CDDB8F1090F26DC454608E011F086
:1056D000010FEFD14FF0FF3515E0554600E0019D79
:1056E0002846FFF771FF2B4637B1386805EB4501B7
:1056F0000B4A02EBC102506003EB4303084A02EB82
:10570000C30300225A82284603B0BDE8F08F1D462D
:10571000F9E74FF0FF35F6E74FF0FF35F3E700BF4D
:1057200004120020002964D0F0B583B00446154669
:105730001E460F460868002842D0214600F03FFE72
:1057400000283DD13B6803F0F003E02B38D022461F
:1057500031463846FFF752FFB0F1000C33DB16F04C
:10576000040F33D00CEB4C02234B03EBC203052296
:105770001A75214B0CEB4C0203EBC2008460D10084
:10578000083119442E684E60AE880E810021418296
:1057900053F832705FB34FEAC20C0E4643F80C1058
:1057A0004FF4006300932B4604F11E023946204655
:1057B00001F0E8F93846FBF76AFF304603B0F0BD68
:1057C0006FF00F00FAE74FFA8CF0F7E70CEB4C02A2
:1057D000094B03EBC2031B7D052B05D0064B03EBE6
:1057E000C20302221A75C4E76FF00500E6E7002045
:1057F000E4E76FF00F007047041200202DE9F04736
:1058000082B006460F4690461D46DDF82CA04FF4A8
:1058100020721C210E20FBF76EFFB8B3814644684E
:10582000BDF83400FBF7C8F9E0802B68A360AB88B3
:10583000A381DAF80030C4F81230BAF80430E382F9
:105840000A9B1B68C4F80E300C9B1B68A3610025E3
:105850002570012363700823A370E570062323716C
:105860000423637140F60603009343463A464946D3
:10587000304601F087F9094A138B013313834846F8
:10588000FBF705FF284602B0BDE8F087034A938C7A
:10589000013393844FF0FF30F5E700BFB01D0020C7
:1058A00030B585B000F11E0301250395029104492E
:1058B000019100901946FFF7A1FF05B030BD00BF70
:1058C00020D9001000296AD02DE9F04387B00446A2
:1058D0000E4645682B88B3F5807F08D12B79062BBF
:1058E00005D16B79042B02D16B88082B0CD02C4B83
:1058F0001A8D01321A85DA8B0132DA832046FBF7E2
:10590000C6FE07B0BDE8F083254A538B01335383AD
:10591000D5F80E700597D5F818800B68C3B905F156
:1059200008090027B84602234A4605A93046FFF772
:10593000F9FEEB88B3F5807F1DD0B3F5007F03D06F
:10594000174A938D013393852046FBF7A0FED8E7D5
:10595000434514BF4FF000084FF00108BB4214BF8D
:105960000027012705F10809B8F1000F01D0012334
:10597000DAE70223D8E7B8F1000FE5D0002FE3D132
:1059800006F11E010223039305AB0293CDF80490A8
:1059900000960B464A463046FFF730FFD4E7704783
:1059A000B01D002008B5024AFFF77AFF08BD00BF0E
:1059B00028D9001010B5002405E0042A1AD9204681
:1059C000FFF702FE0134092C34DC04EB4403DA0057
:1059D000194B13441B7D002BF4D0052BF2D0164934
:1059E00011444A8A013292B24A82B2F5967FE6D2D7
:1059F000012BE2D0032B0DD0042B13D0012BE1D1CE
:105A000004EB4402D3000C4A1344191D9868FFF7B5
:105A1000C9FFD7E704EB4403DA00074B1344042221
:105A20001A75CFE704EB4403DA00034B1344022258
:105A30001A75C7E710BD00BF0412002070B582B010
:105A400005460E46144602EB4202254B03EBC20309
:105A50001B7D022B11D004EB4403DB000833204AEA
:105A600013444FF400620092043305F11E023146E4
:105A7000284601F087F802B070BD194B03EBC20352
:105A80005B8AB3F58E7F1AD8B3F5877FE3D304EB37
:105A90004401134B03EBC10104EB4402D200083272
:105AA0001A4404320431FFF7FBFE0028D3D104EB83
:105AB00044020B4B03EBC20303221A75CBE70849E0
:105AC00001EBC2010431FFF76DFF0028C3D104EBE5
:105AD0004402034B03EBC20303221A75BBE700BF6A
