:020000041000EA
:1000000000B5324B212058609868022188439860DF
:10001000D860186158612E4B002199600221596106
:100020000121F02299502B49196001219960352056
:1000300000F044F80222904214D00621196600F024
:1000400034F8196E01211966002018661A6600F04E
:100050002CF8196E196E196E052000F02FF8012189
:100060000842F9D1002199601B49196000215960AB
:100070001A491B48016001219960EB211966A021F2
:10008000196600F012F800219960164914480160C1
:100090000121996001BC002800D000471248134993
:1000A000086003C880F30888084703B5996A0420EC
:1000B0000142FBD001200142F8D103BD02B5186610
:1000C0001866FFF7F2FF186E186E02BD00000240BE
:1000D000000000180000070000035F00212200005C
:1000E000F4000018222000A00001001008ED00E03C
:1000F00000000000000000000000000074B24E7A12
:10010000002004200B020010C3010010C5010010E4
:10011000C1010010C1010010C1010010C101001097
:10012000C1010010C1010010C1010010C701001081
:10013000C1010010C1010010C9010010CB01001065
:10014000CD010010CD010010CD010010CD01001037
:10015000CD010010CD010010CD010010CD01001027
:10016000CD010010CD010010CD010010CD01001017
:10017000CD010010CD010010CD010010CD01001007
:10018000CD010010CD010010CD010010CD010010F7
:10019000CD010010CD010010CD010010CD010010E7
:1001A000CD010010CD010010CD010010CD010010D7
:1001B000CD010010CD010010CD010010CD010010C7
:1001C00000BE00BE00BE00BE00BE00BEEFF3058054
:1001D000103800BEF2EB8871484F0010744F0010C9
:1001E0004C02001090A31AE7D3DEFFFFFE010000CF
:1001F000FF010000845D0000793512AB1E481F49E5
:10020000086006C881F3088810471D480068002868
:1002100001D01948F3E70DA40ECC002902D000F05C
:1002200012F8F9E71749184A002000E001C191428D
:10023000FCD116498847164988471649884700BEA9
:10024000FDE701C901C29A42FBD37047744F001009
:10025000C0000020B81000206C5F001000000420D7
:10026000000004206C5F0010001004200010042027
:1002700000000000704700000000000008ED00E0F2
:10028000000000D0B810002040210020291D0010DF
:10029000E9020010211D0010F8B5C04606480749C4
:1002A000091A8B10C90FC91810B5491003D0044B97
:1002B000002B00D0984710BDB8100020B8100020C7
:1002C00000000000054B10B5002B03D00449054881
:1002D00000E000BFFFF7E2FF10BDC04600000000D5
:1002E000D4200020CC4A0010F0B5C64600B501F07D
:1002F00027FE192000F040F8D02580232D069B040E
:100300006B626B610D4B0124984601260C4F06E091
:1003100080239B046B61FA20800000F023FF40469D
:10032000744001F05FFEE4B2380001F05BFE002C87
:10033000EED180239B04AB61EDE7C046CC4A0010B0
:10034000DC4A0010094A83009A1810B5146840224C
:10035000544080322240064CC000A44663441A60D8
:10036000044B9C466044416010BDC04604C001403F
:1003700004D00140004001400123D02283401206F6
:1003800093629361094A83009A1811684022514090
:1003900080320A400649C0008C4663441A60054B0F
:1003A0009C460523604443607047C04604C001403A
:1003B00004D00140004001408023DB051868000F95
:1003C0007047C0460FB400B5084883B001F00AFE7C
:1003D000049B002B07D005A91800019101F086FCB1
:1003E000034801F0FFFD012001F098FCEC4A0010E9
:1003F000FC4A001070B5EFF3108C72B60D4D2B68EF
:10040000002BFCD0BFF35F8F0724CB08C618C05C5D
:1004100001230C40A3401C000440034207D11843B1
:100420003070BFF35F8F2C608CF3108870BD1000AC
:10043000FFF7C8FF2C0100D0F8B54746CE468846E6
:1004400080B5EFF3108C72B61C4D2C68002CFCD0DC
:10045000BFF35F8F9A4222D807210126894602E026
:100460000132934218D34D4637001540AF40D408AF
:100470000119045D2742F3D110003C430C70BFF317
:100480005F8F00220D4B1A608CF3108800280EDB62
:10049000C0BCB946B046F8BD01204042EFE7BFF30B
:1004A0005F8F00232B608CF310880120404243466D
:1004B000002BEDD00898FFF785FFC0462C0100D037
:1004C000044A1078431CDBB2172B00D91023137099
:1004D0007047C046D80F002010B5064B064C82B0BE
:1004E0000100009318221F232000FFF7A5FF02B090
:1004F00010BDC046004B0010641C00200021044BBE
:10050000044ABFF35F8F02C39342FAD17047C046DB
:10051000000100D0800100D0054B064A1360064A56
:10052000136053609360D3601361536193617047AC
:100530008080808000E400E004E400E01F23184095
:100540001E3B8340002905D0C021044A4900535076
:1005500013607047802201498B50FAE700E100E008
:1005600001228240034B1B6813405A1E9341D8B2AC
:100570007047C04600E100E001238340014A136058
:100580007047C04600E200E0084B10309B688000D6
:10059000C358002B07D0064A00209B1A2F229A42EC
:1005A0004041C0B270470020FCE7C04600ED00E0CB
:1005B000DC0F002070B50D00EFF3108672B60F4A05
:1005C0001368002BFCD0BFF35F8F0D4B10309B687E
:1005D00084001B590B4A934203D09D4201D001F085
:1005E0009BF9074B9B681D51BFF35F8FBFF35F8F74
:1005F0000022024B1A6086F3108870BD240100D0DF
:1006000000ED00E0CD010010F0B557464E46DE4645
:100610004546E0B585B0060000911700EFF3108B5A
:1006200072B66A4A1368002BFCD0BFF35F8F0025B7
:10063000674B5D579A46002D00DAA9E06B00654CC8
:1006400001935B199B009846A146C1444B46524614
:100650009B7910361370604BB6009B6899590B1B41
:100660002F2B33D95D4B994200D0ACE0019B424621
:100670009C465B4B6544AD0063535A4B0232A21853
:10068000043B9B1A1B05584A5B0D651913436B808D
:10069000564B0121AB80FF23AB71009BEF71AB6028
:1006A0004B460B4319004C4B9B689951BFF35F8F2E
:1006B000BFF35F8F0022454B1A608BF3108805B0A3
:1006C000F0BCBB46B246A946A046F0BD01200A00D8
:1006D0008243D3798C46BB4231D845461300444906
:1006E0001B1B5B415943090D3D4B63533D4B023589
:1006F0006519043B5B1B1B053B4D5B0D2B43AA4659
:100700004D466B800425AC465546E044131F4444D7
:100710001B1B1B055B0D1D434B46997100999D806A
:1007200099604946DF71334B01431360BBE75800C2
:10073000C01880002018C179B9422FD902000623C1
:10074000D356002BF3DA02932B4B61460393131D10
:100750009A4604235B429C46E14450464B461B1A92
:100760001B055B0D9C46204B9571984663464046A1
:1007700003439380019B5A199200039BA418A38002
:10078000029B1C4AA371009B2260E771A3608AE769
:1007900001F0C2F8002553465D574FE79088029359
:1007A0004005131D9A46031561469C464046D444B5
:1007B000634604302018181AE0230005400D1B0280
:1007C00018430390C5E701F0A7F84FE7240100D0D4
:1007D00039210020DC0F002000ED00E0CD010010E9
:1007E00000A1FFFF0C10002000E0FFFF01BDFFFF94
:1007F000AAAA00000148804701BD0000F0B5DE460E
:1008000057464E464546E0B50C0083B0EFF31088DE
:1008100072B6634A1368002BFCD0BFF35F8F614B45
:1008200061499A68030010339F00D55901938D42A6
:1008300043D0A54254D05D4EAA1B2F2A3DD85C4B15
:100840009B461B68994601231A009C4682404B46F2
:1008500013401F2299466346024093409A468022E5
:100860005B4650469850BFF35F8FEFF305839B467E
:10087000002B37D0019B5B4501D001F04DF80123DF
:100880002A009A439068844208D176E04B005B18B6
:100890009B00F3189868844236D01A0006215156FE
:1008A0000029F3DA844254D04B46002B27D0C022D3
:1008B00051463F4B5200995019603A4B9B68DD51AD
:1008C000BFF35F8FBFF35F8F0022354B1A6088F351
:1008D000108803B0F0BCBB46B246A946A046F0BDA6
:1008E0000D00EAE72A0063469A4390688442D5D116
:1008F00006201056130000280ADA0D0031E080238C
:1009000051462B4AD150D8E706201856002821DB43
:1009100042001118890074188B46A1689960E1792A
:10092000D971062161569971002924DBA488F11A36
:10093000640524155C44091909051E4C490D214321
:10094000998013181C4A9B001178F3189971107044
:10095000AAE713005946002914D1FF3191711749B4
:10096000918015490A789A71154A9B1B5B415A433D
:10097000120D0A7098E71149E2E70620105613009D
:100980000028C5DA0F4A1049D21A083A5002400D21
:10099000014399800D4952080A43DA8084E7C04632
:1009A000240100D000ED00E0CD010010DC0F00209C
:1009B00000E100E000E0FFFF3921002001BDFFFF62
:1009C000AAAA00001610002000F0FFFF00F8FFFFA9
:1009D00070B501240443EFF30581EFF3108C72B678
:1009E000214A1368002BFCD0BFF35F8F1F4B05001B
:1009F0001F4AED1A6D416A43120D1E4D8900AE6803
:100A000052B27658A6421CD00621595691421CD0AB
:100A100012215956914222D01E215956914220D07E
:100A20002A2159560324914210D0134B19781A7079
:100A30008171BFF35F8F00220B4B1A608CF310881B
:100A400070BDAB680D4C5C50EFE7002461000919E4
:100A500089005B18FF21997109499980E5E7012414
:100A6000F4E70224F2E7C046240100D0DC0F0020A6
:100A7000AAAA000000ED00E039210020CD010010FD
:100A800001BDFFFF10B5084B084C82B00100009378
:100A9000002205232000FFF7CFFC002801DB1F23E5
:100AA000181A02B010BDC0461C4B00103D2100209A
:100AB000024B9C466144890001607047400000344D
:100AC00070B5114C114DAC420FD2FF262368002B9C
:100AD0000CD0FFF7F5FC01002000FFF7E9FFA6802E
:100AE000BFF35F8F0834AC42F0D370BDFFF7E8FC72
:100AF00001002000FFF7DCFF2671BFF35F8F083491
:100B0000AC42E3D3F1E7C046B0100020B81000209B
:100B100010B50400FFF7D4FC01002000FFF7C8FF68
:100B2000FF232371BFF35F8F10BDC04610B50400D3
:100B30000120FFF7D1FC034BC3189B002360BFF3D8
:100B40005F8F10BD40000034034B9C466144890018
:100B50000160BFF35F8F7047400000340A4B196893
:100B6000EFF3108072B60A68002AFCD0BFF35F8FE3
:100B70001B68BFF35F8F00221A6080F3108840BFAC
:100B8000002000217047C04610210020F0B5DE464D
:100B900057464E464546E0B587B0EFF3058203233E
:100BA000012513409D409900B34AB44B54581D6031
:100BB000B34B8846A946049329E0A3881BB2002BB7
:100BC00000DBA5E0A379002B00D0E6E00823E05E7F
:100BD000002800DA0FE1430062691B18DB00D3181C
:100BE0009E68DD68731C00D111E1A64B19004144D9
:100BF0009A6A0B69B01A9B1A984200D20E61A148FA
:100C000000F0AEFB8D4200DDF5E000D12BE14B465C
:100C10009C4843630823E55E002DCEDB62696B00D0
:100C200092465B19DB009A4453469E68DF6800F0E9
:100C300097FB8F42C1DC00D10BE1002F00DAF0E01E
:100C40005246534652691B699346049A934200D117
:100C5000E1E052460821605E528800045946104384
:100C60009847029003910299039A0B0010001343D6
:100C700000D1D6E013000A00B61A9F41002806DB17
:100C8000804800F06DFB029E039F36184F4153468B
:100C90009E60DF6000229A5E002A8EDB5300991866
:100CA0006069C900411801938B68C9689B46B942C5
:100CB00000DD82E702D1B34200D97EE708239C46DB
:100CC000A444059565462281A446019B2C0006E0BC
:100CD00053009918C90041188D68C968AB469B1824
:100CE000DB00C318B94206DC00D1C0E01C000023C1
:100CF000E25E002AECDA230064469C4653461A80E2
:100D00006346059D1D80A3881BB2002B00DA59E7BE
:100D10002269EFF3108172B61368002BFCD0BFF389
:100D20005F8F0123A7885B42A3803FB22369BFF393
:100D30005F8F00221A6081F31088002F00DA41E7EC
:100D40002300083322009A4666697B00DB19DB002A
:100D5000F318996850468C460824115FDD68002915
:100D600010DB019306E0AB424DD00023E15E200092
:100D7000002906DB4C006418E4003419E368AB4238
:100D8000F1DD019B078000201F5E1980002FDCDA57
:100D90001400A379002B00D118E70023A3712600CB
:100DA0000823E15E08364B1C25D00800A246656981
:100DB00002E03E004B1C1AD04B005B18DB00EF1822
:100DC0000A008C46E95E7B881BB2002BF1DA012316
:100DD0005B42DC17BB60FC60824205D05346318029
:100DE0001B893B8053461A8160464B1CE4D1544614
:100DF000002800DBEFE640BF07B0F0BCBB46B246C0
:100E0000A946A046F0BDA3686345AED9B9E76B1CFF
:100E100000D0EAE6F3E65B4658461B69984700288F
:100E20001BD153461B8822692381EFF3108372B6CE
:100E300011680029FCD0BFF35F8F514662880A8099
:100E400022696580BFF35F8F0021116083F31088F2
:100E5000B3E6864200D8F0E6AFE65B461A685B6808
:100E600002920393FFE6864200D8D0E6C3E7B3457B
:100E700000D83BE73FE7C046F42000203C70054027
:100E80008D0B00100040054070B52E4C2569002DDB
:100E900004D00A212C48FFF70BFE70BD2B4E032116
:100EA000300000F053FAE660FFF70AFB284B0322FC
:100EB0009C46D02322701B061B6801216370254BC2
:100EC0006044A3600F238000206102206380636977
:100ED0004942A18019800231198647311D83585239
:100EE00018315A5275325C3999521832013199527F
:100EF000183201319952183201319952083518329D
:100F00009D520231183299521832013199521832D9
:100F100001319952183201319952183201319952E6
:100F20001832013199520C4B0C49DC6001303562AA
:100F3000FFF740FB01210320FFF700FB084B1D607A
:100F4000A7E7C046241000201021002000400540E3
:100F500040000034FFFF1000F42000208D0B001033
:100F6000386005400048704724100020F8B51F0085
:100F700008AB1B7804001600002B08D100F0F8F92C
:100F800032003B00121A8B41002B00DA52E022693A
:100F9000EFF3108072B61368002BFCD0BFF35F8FA5
:100FA0000223E15E63694A005218D2009B1822694D
:100FB000002936DB1D886580BFF35F8F0025156033
:100FC00080F31088069A9E60DF601A61079A5A6162
:100FD0005A8801325204520C101C002A1FD082B2CF
:100FE0005880080410432669EFF3108772B6326800
:100FF000002AFCD0BFF35F8FA2881A80A1802369EA
:10100000BFF35F8F00221A6087F310880A492378A4
:101010008C4601329A40E36863441A60F8BD0120AF
:10102000DDE7BFF35F8F0023136080F3108801209A
:101030004042F3E70020F1E73C20000070B50100DA
:101040000469EFF3108C72B620680028FCD0BFF35F
:101050005F8F02200D5E4C6968004019C0002418A3
:101060000869002D36DB26884E80BFF35F8F00268F
:1010700006608CF31088E360638804980133206174
:101080005B0405985B0CA26060611A1C002B1FD0EA
:1010900093B22804628018430A69EFF3108C72B689
:1010A0001368002BFCD0BFF35F8F8B8823808D806B
:1010B0000B69BFF35F8F00221A608CF310880B78E6
:1010C00001329A40CB6808498C4663441A6070BD6F
:1010D0000122DDE7BFF35F8F002303608CF31088EC
:1010E00001204042F3E7C0463C20000010B5438990
:1010F0000A1493421ADD53009B184269DB00D3188F
:101100000469EFF3108C72B62268002AFCD0BFF39A
:101110005F8F5A88090494B2090C8A4208D0036987
:10112000BFF35F8F00221A608CF31088002010BD7F
:101130008022120214435C80012302698371BFF391
:101140005F8F002111608CF31088044902788C466F
:101150009340C268012062441360E8E73C2000002D
:1011600040787047F0B5C64600B582B0040000F084
:10117000FFF8FA2206000F00200000230021920051
:1011800000F036FD8019794104000D1E02DA0124B9
:101190002E4D644206267642F71736196F41AF424C
:1011A00014D811D000F0E4F832003B00121A8B4141
:1011B000002B15DC002B46D02000290000F016F98A
:1011C00002B080BCB846F0BDA642EBD9002600278D
:1011D00000F0CEF832003B00121A8B41002BE9DD03
:1011E00000F0C6F832003B00121A8B41002B0ADBDC
:1011F00000230193164B3200009316483B00FFF783
:101200001DFF0130D8D000233900B0469C46124A59
:101210001248536A994204D8966A4645CCD29942FC
:10122000CAD10668EFF3108772B63368002BFCD082
:10123000BFF35F8F0368BFF35F8F66461E6087F35F
:10124000108820BFE5E7002AB6D0C9E7FFFFFF7F7F
:101250005D0B0010241000200040054010210020EC
:10126000F0B5CE46474680B504000D0083B0EFF3DD
:10127000058399460F00002B42D1314EA0463378AA
:10128000F06804339B00816A1B58601A5B1A98420D
:1012900012D320BF2B4900204B6AAB4207D38A6A86
:1012A0005B1B591E8B4141468A424041184303B0A3
:1012B000C0BCB946B046F0BD00F05AF822002B0081
:1012C000121A8B41002B28DB4B4601931E4B220048
:1012D000009330002B00FFF7B1FE011E1DDD194BFE
:1012E0005A6AAA422AD39B6A9C4225D83000FFF74B
:1012F000FDFE144A0020536ABB42D8D3926ACFE75E
:10130000104900204B6AAB42D1D38A6A5B1B591E3D
:101310008B41A24240411843C9E70A4A0020536A60
:10132000BB42C4D300204146926A5B1B8A424041C3
:101330005A1E93411843BAE7AA42D7D120BFD5E736
:1013400024100020004005405D0B001010B5024A3B
:101350000248FFF74FF810BD384B0010681C002002
:101360000300416A0A00986A596A8A42FAD17047B2
:10137000034B596A0A00986A596A9142FAD1704738
:101380000040054070B504000D00174A536A19006B
:10139000966A536A8B42FAD13000190024184D41E5
:1013A000AB4216D813D0104B2A005B6A9D4203D97A
:1013B0000D494B6A9342FCD3934207D10A4A02E09B
:1013C000516A994202D1916AA142F9D370BDA642F5
:1013D000E9D9054B5B6A1C005A1CEFD0012201249D
:1013E0006442E5175242E3E700400540064A536A6B
:1013F0009942FCD807D1044B02E05A6A914202D1CB
:101400009A6A9042F9D8704700400540F8B5040048
:1014100006200D0000F078F9002844D0374B3849F9
:10142000E3185A1E93418022120494465B429B0D9E
:10143000344A9B0563441360334A136018000A68FA
:101440009043FBD12D4B314AE31859424B41802147
:101450005B0049000620995200F056F92900C000AF
:1014600000F038FB0130C3091ED14027012262621F
:10147000A362266BF30722D4E36A254B0620E51806
:1014800000232B60266300F03FF93900800000F054
:1014900021FB7023E26A5A400E3313402B601D4B30
:1014A00023630323A364F8BD1B4A93421ED9002380
:1014B0001A4A1B4F6262A362266BF307DCD5194BF5
:1014C000144AE3181A60656AA36A0620AD01ED1894
:1014D00000F01AF9144900F0FDFAAD0201002800ED
:1014E00000F0F8FA0021FFF74DFFC5E74006800E37
:1014F0009F011A003F180300B9E7C0460080FCBFF7
:1015000008C0004000E0004000F000401C21002026
:101510002C10000001030000FEFF0000FFFF000090
:10152000C0FF3F00303000004E0E0000F8B5DE4630
:101530004E4657464546E0B58B4605000A991800C9
:10154000160000F0C7FA0A9B6C001F02324B6419A8
:101550009C46A4006444636881469F4200D967604A
:101560002B1FDBB29846012B30D9C02380229B0170
:10157000E31812011A60294BAD0059599A46002907
:101580001BD17301E026226853401E40802342464F
:101590005B01E3181E60012A30D9802380229B0161
:1015A000E31812011A6053464A4667605A51F0BC6C
:1015B000BB46B246A946A046F8BD586900F08AFA73
:1015C000013043001B18033BFDD2DAE75B46012BD9
:1015D000CBD1C02303229B01E3181A60023AA3680F
:1015E0001A42FCD07301E0262268AD0053401E4031
:1015F00080230A4A5B019246E3181E605A4621681E
:10160000514003220A401A6001225B469A40A368B7
:101610001A42FCD0C1E7C046008000406C1C00208C
:10162000F0B546464F46D646C0B51F00344B440081
:101630009C462418A4006444636888461600FF2B67
:1016400002D880235B006360031FDBB29A46012B44
:1016500030D9C02380229B01E31812011A60294B64
:1016600085005959994600291BD17301E02622684B
:1016700053401E40802352465B01E3181E60012A3E
:1016800030D9802380229B01E31812011A60802345
:101690005B0063604B465F51E0BCBA46B146A8466A
:1016A000F0BD586900F016FA013043001B18033BE7
:1016B000FDD2DAE74346012BCBD1C02303229B01A5
:1016C000E3181A60023AA3681A42FCD07301E026BC
:1016D0002268850053401E4080230A4A5B019146E0
:1016E000E3181E6042462168514003220A401A60F6
:1016F000012342469340A2681342FCD0C1E7C04692
:10170000008000406C1C0020014B8000C0587047D6
:101710006C1C0020F8B5040021481E0017000D00C5
:1017200000F0D8F90100380000F0D4F9069B360427
:101730001B031E432368002B20DB1A4B1A49E318B6
:101740005A1E93418022920194465B421B0B174A1A
:101750001B0363441360164A13601F000A68974313
:10176000FBD1144B2560E2182123A060136023688D
:10177000002BFCDA0823E6601360F8BD3F232268E3
:101780001340AB42D9D1A3681B051B0D8342D4D1B2
:10179000EE22E368D2021340B342CED1EDE7C04659
:1017A000001BB7000040FDBF08C0004000E0004043
:1017B00000F000400430000010B580241C4BE4050C
:1017C0001C6000281AD001231A4C18431A4BDC6104
:1017D0001A4C44401C62596298628021144BC9051E
:1017E0001960174817490860E021C9041960002AE8
:1017F00007D18022144B12061A6010BD0E4BD8611F
:10180000EBE753019B1A9B009A18802312015B049B
:101810009A4209D213000D490B60074B5A6080228F
:10182000094BD2051A60E8E7094B1A00F3E7C046F6
:1018300000B00540D3C007B0008005402D3FF84FF1
:10184000FCFF01000820014000A00540CC20002042
:10185000FFFFFF008023024A9B000B43D3627047C7
:1018600000800540002310B50100988A1B8B984723
:1018700010BDC046162310B50100188802331B881E
:10188000984710BDF8B54746CE4680B50F1E18D014
:1018900014239946043304000025012698464B463C
:1018A0001888434621681B88984701C4431E984105
:1018B00001350640AF42F2D13000C0BCB946B04657
:1018C000F8BD0126F8E7C046002370B504000D00FE
:1018D000988A05491B8B984703000020002C01DBE8
:1018E0000130A0402900984755420000AA23064A2B
:1018F0001B0113602F230549D360054B1960536802
:10190000002BFCDA7047C0460040024000B0FA00ED
:10191000006002407047C04610B50148FEF752FD16
:101920005C4B001070B5074D074EB54209D200243C
:10193000013E761BB60808CD984723000134B34218
:10194000F9D170BD884A0010C44A0010054B064A00
:1019500006491A60064A074B1A6010000B68984344
:10196000FBD1704700E00040BFCDFBFE08C0004047
:10197000FE7F3C0000F00040044BDB6C002B03D1E9
:101980008022034BD2021A607047C04600001150FB
:101990004C201150044A054B1A60054A1368DB01BC
:1019A0008033FBD17047C046FFFFFF0100F00040CD
:1019B00008C000404022034B9A675A671A67DA66EC
:1019C0007047C04600F0014010B5FEF797FD10BD0E
:1019D00070B5044D044CA968C022200000F078F9CD
:1019E000AC6070BD00ED00E000000020002310B5E9
:1019F000294C82B0A367FFF779FF0122274B1A60B9
:101A0000636C012BFCD10322254B1A60224A936B95
:101A1000012BFCD1013300930121224A22480433D7
:101A2000FFF778FE052301210093204A2048FFF7A5
:101A300071FE0022022104201E4BFFF7F1FD00225F
:101A4000012105201C4BFFF7EBFD002200210720A0
:101A50001A4BFFF7E5FD002200210820174BFFF786
:101A6000DFFD8023DB000093002200210920134BBF
:101A7000FFF75CFD0022104B00210620FFF7D0FD90
:101A80000420FFF741FE0E4900F024F80100002079
:101A9000FFF7E0FE02B010BD008000403CB0004007
:101AA00030B00040002F685900800240008C86470B
:101AB00000C00240001BB70040597307006CDC02F5
:101AC00040420F0001480421014B184740100020FC
:101AD00085180010114A936F9B0813D21066516647
:101AE000002905D0FFE7FFE7FFE7516F106F704750
:101AF00004B5002801D00020C04302F08DFF002172
:101B000004BDC046F0B5146E556E576F166FFFF7E3
:101B1000E5FF1466556657671667F0BD000000D0F4
:101B2000132370B51D78012D19D014DD1F48FFF760
:101B3000A1FE06001E48FFF79DFE1E4C80223100CC
:101B4000200000F0C5F8022D2DD01B48FFF78AFEBB
:101B50001A4B186070BD1A4B164CA364F5E7184B6E
:101B6000144C23606360A360E36023616361A3613D
:101B7000E36123626362A362E36223636363A3633B
:101B8000E36323646364A364E36423656365A3651B
:101B9000E36523666366A366E36623676367A367FB
:101BA000E367A364D1E7064BA364CEE75344000088
:101BB00053460000401200204C3300000C2100204E
:101BC000C51B001007B5604601880A0A0230DF2AEB
:101BD000FAD1C9B2820804D30288408800041043B5
:101BE00000E00068014A5050039007BD40120020F9
:101BF00051434343C9188C46110C83B24B4310B474
:101C0000040C614392B280B2504362431C041B0C2B
:101C1000001910BC59411304120CC0185141614401
:101C200070470000132310B512481C78FFF722FEFE
:101C30000100012C0AD003DD80220F4800F048F893
:101C40000E48FFF70FFE0E4B186010BD0A4C5422D1
:101C5000200000F03DF80B4B6365A365E365236648
:101C60006366A366E36623676367A367E36723622C
:101C7000E361E5E753460000401300204C330000C9
:101C80000C210020891C001007B5604601880A0A53
:101C90000230DF2AFAD1C9B2820804D30288408810
:101CA0000004104300E00068014A5050039007BD53
:101CB0004013002001480421014B18475010002018
:101CC00085180010014B1B681847000050100020B9
:101CD000014B5B68184700005010002010B5002829
:101CE00000D110BD00F034F9FBE7C04610B5094A39
:101CF0000300146884B0002C08D00122009106482B
:101D0000524203A9A047012004B010BD00F06AF9B7
:101D10000020F9E7C8200020DD1C001000BEFDE710
:101D200010B5FFF7FBFFC04670B5FFF7FBFD074D91
:101D3000074EB54209D20024013E761BB60808CDF5
:101D4000984723000134B342F9D170BDC44A001052
:101D5000CC4A0010030010B5080011001B6898471A
:101D600010BDC046F0B5C64600B5437D07000C0067
:101D70001600002B46D0002A17DD0B780A2B24D042
:101D800000239846012E13D001252900635C0135FC
:101D90000A2B26D0B542F8D1464509DCA419013CEE
:101DA00023780D3B5A4253413B7580BCB846F0BD89
:101DB0004346E018A419F11A013C3B689847237880
:101DC0000D3B5A4253413B75EFE7037D002BD7D1C2
:101DD00002210F483B689847012EDFD00123984627
:101DE000D2E7631E5B5C0D2BD4D0884504DA4346F2
:101DF000C91AE0183B689847022105483B68A84685
:101E00009847C7E70368110020009847CDE7C04610
:101E1000C84C0010F0B54546DE464E465746E0B584
:101E200083B091461C0080460D00FFF7A1FA002305
:101E3000304A12184B41002B02DA01222E4B52423B
:101E40002E4908008A4602F007FE07006B1C03D1EA
:101E5000404602F08FFD0500002C27D0284E294B6C
:101E60001C68002C18D04B46002B21D1264B9946DC
:101E700002E02469002C0FD02368002BF9D04B46D8
:101E80001B68002B01D09C42F3D120002A00414660
:101E9000B0472469002CEFD1002F26D1280003B0D1
:101EA000F0BCBB46B246A946A046F0BD174ED6E7E9
:101EB000154B99460A239B4602E02469002CEBD07F
:101EC0002368002BF9D04B461B68002B01D0A3429E
:101ED000F3D12A0041462000B0476B465A46200005
:101EE000DA71D91D0122B047E7E7504602F084FDC0
:101EF000D4E7C04640420F00FFFFFF7FB010002034
:101F0000651D0010BC1C0020C41C0020551D0010C5
:101F10000A4A1368002B05D10CE01A001B69103225
:101F2000002B07D08342F8D1002902D11869106034
:101F3000196170470029FCD01060FAE7BC1C002032
:101F400010B500F03BF900F077FB012010BDC04652
:101F5000F0B5CE46474680B583B06B460600DD1D22
:101F60002870FFF705FA0023194A12184B41002B7D
:101F700002DA0122174B524217490800884602F044
:101F80006BFD164B81461C68002C14D0144F02E0E8
:101F90002469002C0FD02368002BF9D03B68002B5C
:101FA00001D09C42F4D1200001222900FFF7DAFE83
:101FB0002469002CEFD14B46002B05D1300003B033
:101FC000C0BCB946B046F0BD404602F015FDF5E78D
:101FD00040420F00FFFFFF7FB0100020BC1C00201C
:101FE000C41C002070B5040002F0C4FC01230100F1
:101FF000050001222000FFF70DFF084B1C68002C94
:1020000006D06368002B05D098472469002CF8D1CE
:10201000280070BD2469002CF3D1F9E7BC1C002016
:10202000F0B5002915DD0E4B0D271A680D4B0E4C2F
:10203000D3185D426B41451820215B001E5F047878
:10204000A64207D093691942FCD101301460A8421E
:10205000F5D1F0BD93691942FCD11760F2E7C04693
:10206000202100200080FCBF1C210020204B70B5E7
:1020700004000D1E1E682ADD002010211D4B013CAE
:102080001A689369194214D1013093691942FCD13D
:10209000136823548542F4D1002E08D05023936353
:1020A000516B183B0B4014498C4662441360280066
:1020B00070BD002E08D050239363516B183B0B402A
:1020C0000D498C46624413600028F1D10CE0002ECB
:1020D0000AD05022074B1B689A63596B183A0A4082
:1020E00005498C4663441A6003204042E0E7C0463D
:1020F000541C00202021002034100000064B10B595
:102100001B68002B06D00021044A12689163044A20
:102110001068984710BDC046541C002020210020A4
:102120005C1C00200822034B19688B691A42FCD101
:102130007047C04620210020F8B51A4F1A4B3A6864
:102140000500D31858424341184E14331C0033681D
:10215000002D02D0002B0FD0F8BD002BFCD00021A9
:1021600020009563FEF7EAF920001149FEF746FBCF
:10217000104B35601D60EFE70E4B200019600C49D5
:102180003560FEF717FA01212000FEF7D7F950223B
:102190003B689A63596B183A0A4007498C46634476
:1021A0001A60D9E7202100200080FCBF541C0020C9
:1021B000FD2000105C1C0020341000000D4B10B5F9
:1021C0001B780D4B0D4C1B780D4B02211B780D4BD2
:1021D00000202360FEF7B6F802210120FEF7B2F8D6
:1021E000E12120684902FFF711F901210648FFF7B4
:1021F0008FFE10BD6C4F0010684F00102021002092
:10220000644F001000400340601000207047C0463B
:102210000022014B1A7070473A2100204B790020B0
:10222000FF2B0BD18B79002B08D1CB79012B05D15A
:10223000082A03D9024B8A7809301A707047C046C1
:102240003A2100200120704710B5012913D112490D
:102250005379107909781B0203430020994200D07A
:1022600010BD5378012B08D0022BF9D16422002134
:102270000020FFF7A1FA0120F2E7D37891781B0242
:102280001943480ADB0501D4012040427F238A0517
:10229000D20F1940FFF718FB3A2100200048704781
:1022A000B04D001070B5050014000120012909D1BE
:1022B00053780020012B05D1637912791B02134357
:1022C000072B00D070BD21002800024A9F3301F087
:1022D00041FAF7E7084D00100123037000487047EA
:1022E000E84C00104B780A781B0213438A7810B52B
:1022F00012041A43CB781B0613439622D200934252
:1023000000D010BD0022012011004042FFF7DCFA8E
:10231000024B1860024B19607047C046581C0020E1
:10232000601C002010B5024B1878FEF725F910BD8F
:102330003B210020154B70B51A68002A22D0EFF31C
:10234000108172B610680028FCD0BFF35F8F0020A8
:102350000F4A596010701B68BFF35F8F186081F3DC
:102360001088002400250B4E3078FEF7F9F800287D
:1023700004D1002400252900200070BD3078FEF72C
:10238000FBF8F8E7FA240025A400ECE7EC20002095
:102390003C2100203B21002070B5040000200E00ED
:1023A00001F0EEFA002834D0002001F001FB0028F3
:1023B0002FD0FEF7DDFF0023174A12184B41002BE8
:1023C00016DB164D280002F047FB002821D0002024
:1023D00001F0D6FA00280FD101200021404200F080
:1023E000EDFC03246442280002F006FB200070BDCF
:1023F00001220B4B5242E4E7002001F0D9FA0028F9
:10240000EAD021003200002001F0DEFA041EEAD1F9
:10241000E7E703246442E9E740420F00142100206B
:10242000FFFFFF7F10B5FEF7A3FF00230D4A121830
:102430004B41002B02DA01220B4B52420B4C200085
:1024400002F00AFB00280CD001200021404200F0DD
:10245000B5FC002001F006FB0028F5D1200002F0B9
:10246000CBFA10BD40420F00FFFFFF7F1421002078
:10247000F8B5DE46574680B505000C00FEF778FF3C
:102480000023364A12184B41002B02DA0122344B4A
:102490005242344908008A4602F0DEFA002803D18D
:1024A000C0BCBB46B246F8BD002001F069FA002866
:1024B0004AD00026002C43DD2B4B9B4614E0A91983
:1024C000002001F00BFB070001200021404200F03A
:1024D00075FC002001F0C6FAFEF74AFF224BF61900
:1024E00018605960B4422BDD002001F017FBA71BD8
:1024F0000200B84200DD3A00002AE0D101200021AC
:10250000404200F05BFC002001F0ACFA002001F03A
:1025100037FA002814D0002001F000FB0028E1D198
:10252000FEF726FF5B460F001A685B6800218446B1
:102530000E4812184B419F4202D8D3D19445D1D9AD
:10254000504602F059FAABE700200021064B186014
:102550005960504602F050FAA2E7C04640420F00D0
:10256000FFFFFF7F142100203812002020A1070068
:1025700030B52A4C85B00021200002F055FA002821
:102580001CD1274B1A68002A16D0EFF3108172B6BF
:1025900010680028FCD0BFF35F8F012421485960E8
:1025A00002781B68D2B20470BFF35F8F00201860FE
:1025B00081F31088002A17D005B030BD012000211A
:1025C000404200F0FBFB002001F0F2F90500200082
:1025D00002F012FA002DEFD0134B1B68002BEBD04A
:1025E000124A10689847E7E7FEF7BCFC0400FEF7C4
:1025F000BFFEFA220023920012184B41002B02DA90
:1026000001220B4B52420121029100210191094903
:1026100020000091FEF7AAFCCEE7C046142100205E
:10262000EC2000203C210020581C0020601C0020D1
:10263000FFFFFF7F35230010D02310B51B0684B0A9
:102640001C68FEF78FFCFEF78BFDA04202D0002035
:1026500004B010BD284B1B7801F060FD27480368CB
:10266000002B45D00120FEF70DFAFF23244C25490D
:1026700020701840FDF79EFF20780121FDF75EFFD6
:102680000520FDF781FF002824D1082200211E48E3
:10269000FFF718FBFEF766FC0400FEF769FEFA225E
:1026A0000023920012184B41002B02DA0122174B33
:1026B000524201210291002101911549200000910F
:1026C000FEF754FC0028C2DB12480121FFF720FC72
:1026D0000120BDE70120FDF7FFFE0B4B01001800B4
:1026E000FEF732FA002205200B49FDF78DFFEBE7DC
:1026F000FEF70EFAB6E7C046704F00101421002016
:102700003B21002071250010EC200020FFFFFF7FFF
:102710003523001078100020252300100048704752
:102720004C4E001000487047F84D001010B50400E2
:1027300017480378002B20D0002C06D1154B1648E3
:102740004380063BFF3B038010BD052C1DD8134B77
:10275000A400E05812490123013804E001330A8043
:102760000231142B0DD0C25C002AF7D1C022DBB29B
:102770005B00920008481343E5E7112100F01AF8C6
:10278000DAE7CA2304489B00DDE70020DCE7C04607
:102790002421002009040000941C0020E04D0010BA
:1027A000961C002010B5024800F0D8F810BDC046B5
:1027B0000421002030B54B1E012900D1A7E0664A54
:1027C00011780D092C0030349F2900D9A2E0047043
:1027D000012B00D1BEE00F21147821400C003034D1
:1027E000092900D998E04470022B00D1B2E0547856
:1027F0002509290030319F2C00D990E08170032BEE
:1028000000D1A7E00F2121400C003034092900D964
:1028100087E0C470042B00D19CE09478250929003E
:1028200030319F2C00D97FE00171052B00D191E060
:102830000F2121400C003034092900D976E0447181
:10284000062B00D186E0D4782509290030319F2C51
:1028500000D96EE08171072B00D17BE00F21214070
:102860000C003034092966D8C471082B00D171E0FE
:1028700014792509290030319F2C5FD80172092B6A
:1028800068D00F2121400C003034092958D84472F7
:102890000A2B5FD054792509290030319F2C52D85A
:1028A00081720B2B56D00F2121400C0030340929A6
:1028B0004BD8C4720C2B4DD09479250929003031A6
:1028C0009F2C00D9073101730D2B43D00F212140DC
:1028D0000C003034092901D937310C0044730E2B18
:1028E00038D0D1790C09220030329F2900D9073223
:1028F00082730F2B2ED00F220A4011003731092A84
:1029000001D830321100C173102B23D010300023B6
:10291000037030BD07345AE737310C0063E70731E5
:102920006CE737310C0074E707317DE737310C0075
:1029300085E707318EE737310C0095E707319DE7D2
:1029400037310C00A3E70731AAE737310C00C47216
:102950000C2BB1D1C018DAE70421002010B588B0E3
:1029600004000D2200216846FFF7ACF90D2200217A
:1029700004A8FFF7A7F94B236A466846137004A919
:102980000D2202F029F81521082220006944FFF7E2
:102990009FF908B010BDC046F8B500F03FF90C2310
:1029A000184DFF22AB6705201749FDF72DFE174C88
:1029B000402200212000FFF785F94027002301264F
:1029C0002121134A66702783A260136063545F312C
:1029D0006184453963540F4A0F496360E260278779
:1029E000A1620B606362E26201F0FEFF80239B053F
:1029F0002E64EB649023094AEA508022084B52026D
:102A0000DA64F8BD0000115011050020C81C002038
:102A100084001050000110508000105010D00100B0
:102A20000020115010B501210520FDF787FD10BDD4
:102A300010B500220021024800F010F910BDC04678
:102A4000E81C0020044B1970002904D08021902339
:102A5000024A8902D15070473621002000201150CF
:102A60000B785B0602D14B78052B00D070478A7833
:102A7000014B1A60FAE7C04600001150F0B5C64697
:102A800000B5CC7888780A794B797F21A40701407A
:102A90001B02C50913434F00A20F1400324E7A19CE
:102AA0005201B218907001206840507000205B0500
:102AB0005B0DD0701383D4768046CA00012D33D0CD
:102AC0002A488446880162448446B4446046826051
:102AD00040461060002933D0254AC900904662461E
:102AE000414451603F223F339343022C00D15B00AD
:102AF00020487A1901685201B218D1601E4ACB18D9
:102B0000036051405A40802388465B019A4228D88E
:102B10004346A4061C4380237F197F01F61972687F
:102B20001B062343136011E0144884468801624465
:102B30008446B4446046826240461060002909D150
:102B400000236D0175196B600D4BEB60012080BC9B
:102B5000B846F0BD084AC9009046624641445162F9
:102B6000C0E7FEF7D9FED3E7C81C00208400105050
:102B700004001050D02000200000105080001050A1
:102B80000001105010B501F02FFF10BD10B57F20CF
:102B90000C0020404000E409110000191A00034B0A
:102BA0004001C01800F05AF8012010BDC81C0020D8
:102BB0007F23180000B5084083B00B4204D14B427C
:102BC0004B41084A013393668022C9094000064BF5
:102BD000401840010021C018120101F04DFF03B060
:102BE00000BDC04600201150C81C00207F221300E9
:102BF00010B50B400A4200D110BDC9095B005B183B
:102C000004485B01C018002300220349C37001F08F
:102C100033FFF1E7C81C0020FFF7FFFF80220A4BBB
:102C2000520410B51A60094B09491A6010000B686C
:102C30009843FBD18022002152010648FFF742F859
:102C40000922054B5A6710BD00E0004000F000402B
:102C500008C000400000105000001150002310B5C3
:102C6000C3820133828283760161040001F0ECFEAD
:102C7000002804D080219023074A8902D1502000E7
:102C800001F0C2FE002802D00123237710BD2000EE
:102C900001F0EAFEFAE7C046002011507047C04636
:102CA0007047C04600207047002070477047C046FC
:102CB0007047C0467047C0467047C046024B5878C0
:102CC000431E9841C0B270476C170020024B187821
:102CD0004007C00F7047C0466C170020F8B5474644
:102CE000CE4680B52A4F06003B78FF2B04D001204A
:102CF000C0BCB946B046F8BD002154222548FEF7B5
:102D0000E1FF0022244C254B20001A70FDF700FF44
:102D1000234B1C60234C2000143CFDF707FF2000D0
:102D200001F0E4FD204B214D1C60214B002B04D011
:102D30002800FFF7D1FA1F4B18601F49002489466D
:102D40001C49002388462A7810E043461B6862012C
:102D50009B18002B12D05B68002B0FD098472A7865
:102D60000134E4B2511C2300A14209DBA242ECD899
:102D70009B1A5B014B445B68002BEFD10020B7E747
:102D800030003E70FFF708FE3000FFF74BFEAEE765
:102D9000AC1000206C1700202417002037210020E1
:102DA000C0170020A4100020C417002035210020E7
:102DB000D922001040140020084F0010F0B5DE4664
:102DC00057464E464546E0B5C84B91B002931B7836
:102DD000FF2B00D13EE1C64BC64E9B465F46C64B1D
:102DE0000DAC0193C54B009335686A69EFF3108110
:102DF00072B61368002BFCD0BFF35F8FA961280067
:102E0000210001F0A3FB6A69AB69BFF35F8F00216A
:102E1000116083F31088002800D11BE16378082B30
:102E2000E2D89B00FB589F466368002BDCD0A0686B
:102E30009847D9E77F222179AF4D0A405300EB181C
:102E40009846C809804440460123303005799D43A7
:102E50000571057903339D430571002A00D100E116
:102E60004346A74A1B7D1278934200D3EFE0A54A60
:102E70005B011568ED18002D00D1EBE0A3686279C5
:102E80002078AD69A847AFE79F4A1378002B00D19F
:102E9000E0E01378013BDBB213701378002BA3D171
:102EA0000122954D01212B78042013432B703423EC
:102EB000EA5C8A43EA54EA5C8243EA540133EA5CFE
:102EC0008A43EA54EA5C8243EA54237800209B4612
:102ED00000F09EFC602223791A40602A00D1EFE0C6
:102EE000402A00D1F5E0DB06DB0E012B00D113E117
:102EF000022B00D1C7E0002B00D0E1E0202A00D156
:102F00001CE2002A00D0DBE06379092B00D9D7E06E
:102F10007E4A9B00D3589F46774D2B78DB0700D421
:102F200062E7FFF7C9FE5FE7019BDB78DB0700D4B0
:102F30005AE76068FFF7B4FE56E76F4D2B78DB0762
:102F400000D451E728780007C00FFFF7B3FE4BE726
:102F500023786A4999468B46694B6A4998468A465E
:102F600039001A7847460023B04600254E46894668
:102F700010E053461B686A019B18002B00D176E0D5
:102F8000DB68300098473A780135EDB2511C2B00D0
:102F90008D4244DC9542ECD39B1A5B015B44EFE726
:102FA000237858499946564B8A4698463100BB4685
:102FB0004E461A7800250023474689460FE05346BF
:102FC0001B686A019B18002B55D0DB6830009847BE
:102FD0003A780135EDB2511C2B008D4207DC954249
:102FE000EDD39B1A009A5B0194466344EDE7019D83
:102FF000542200212800FEF765FE1022FF214448DC
:10300000FEF760FE28002022FF2114304E465F4666
:10301000FEF758FE00F0F2FBFFF74AFEE4E6364DFD
:10302000542200212800FEF74DFE1022FF21281D0A
:10303000FEF748FE28002022FF21143046464F4666
:10304000FEF740FE00F0DAFB2379AB70CCE6501CB3
:10305000984213DA11B0F0BCBB46B246A946A0466E
:10306000F0BDA3686279207800F0E6FBBCE6464636
:103070004F46214DE6E74E465F46CBE71F4D9B1A74
:103080005B015D19FAE67023217A0B4218D1C80959
:1030900082460F330B405B0098461948EB185344A7
:1030A0001B7D00789946834266D216485B01006812
:1030B00081469944002A00D15FE14B46002B68D13C
:1030C00020780021FFF774FD80212078FFF770FD44
:1030D0008AE6104800F09CFB012158460EAAFFF733
:1030E000E1F8002800D07FE6EAE7C046AC100020F7
:1030F000604E0010C41700206C170020084F00100D
:10310000352100204014002037210020844E00107B
:1031100070170020A5220010237A0F2BD0D8CF4A99
:10312000EB181B791578AB423ED3691C9942C7DB7B
:103130005D1BCB4B6D01ED18686900F069FB012147
:1031400058466B690EAA9847002800D04CE66022CA
:10315000150023791D401A42B2D163790A3B012B35
:10316000AED800F055FB63790A2B00D199E158469F
:103170000EA900F0D9FA37E6431C4B4500DAF7E018
:103180004B461B1A5B019946B5488144002A00D181
:10319000F3E04B46586900F03BFB4B460121584693
:1031A0005B690EAA98479CE7AE4A5B011568ED186B
:1031B000002DC1D184E7A37999466B789945D6D083
:1031C0006B78002B00D033E14B466B70002B00D1A5
:1031D0002BE148460138C0B2FFF7A4FA002800D11D
:1031E0007EE143780793022B00D079E10122C17977
:1031F000B1468B11491113400A40302112015B0185
:1032000013432A78A8468A4313432B7009239A460E
:1032100082445646BA46C37882781B021343C318C9
:1032200005938E4B04938E4B08938E4B09938E4BD4
:103230000A93059BB34200D855E1737801220B2B0A
:1032400003D13378F278F6187378042B00D044E178
:10325000059B00279B1B9BB20693049B0B921D783A
:10326000002303931BE0099A7B011568ED18002DDC
:1032700000D132E1310058462B69069A98478446BE
:10328000082803D9069A824200D313E1049B013730
:103290001D78FFB26B1C03979F4200DD1DE1BD420C
:1032A000E1D8039B5D1B089B6D019C466544E1E7EB
:1032B0006B780CAA02321370584601230EA900F055
:1032C00049FA91E5E3881A0AD8B20F2A00D9F7E63D
:1032D00066499300CB589F460EA800F09FFA5846C7
:1032E000A179FFF7A5FB02222B7813432B707BE516
:1032F000E388012B00D0E3E608222B78584693435D
:103300000EA92B7000F010FA6EE5022029780CABA4
:103310009A1C8B068908DB0F01400B43138058462B
:1033200002230EA900F016FA5EE5E388012B00D017
:10333000C6E608222B7813432B7018E7237A0F2B4D
:1033400000D9BDE6EB181D79444B1B789D4228D26D
:10335000444B6D011B685D19002D00D1B0E6686912
:1033600000F056FA012158466B690EAA9847B8E654
:10337000002A00D0A4E600239946627902201300B7
:1033800003928343012B15D0002A00D098E62B002E
:103390004344534430331B790CAA9B07DB0F0232A2
:1033A000BCE75A1CAA4200DA8AE6ED1A2C4B6D01E2
:1033B000ED18D4E7E388002B12D1029B1878039B09
:1033C000012B23D0FFF7F4FB43460221EB185344B3
:1033D00030331A790A4301211A711A790A431A7192
:1033E0004B46002B00D1FFE4586900F011FA4B4620
:1033F00001215B690EAA58469847002000F008FAA0
:103400003523EB5CDB0700D5EEE4B0E6FFF7EEFB1F
:1034100043460221EB18534430331A798A431A7118
:103420001A7903998A431A71DAE7FFF741FC9EE69D
:1034300000215846FFF706FB5846FFF7A3FBAB7881
:10344000074903930491054B064998461A7805915C
:10345000002329001D008A461BE0C04635210020BC
:10346000084F00104014002080170020AC4E0010C0
:10347000059B6A011B689B18002B4DD0DB685846E2
:10348000984743461A780135EDB2511C2B008D4206
:103490002EDC9542ECD39B1A049A5B01944663445C
:1034A000ECE70CAB9A1C584601230EA9157000F0EE
:1034B00051F999E40B9A012A4FD0002A3CD00023FD
:1034C000B07804E00133DBB20F71934234D2C118FB
:1034D000C9B241440D79FF2DF4D04E4645465746BA
:1034E00000236B70ECE54E465746FFF7DFFB3EE6E8
:1034F0005546542200212800FEF7E4FB1022FF214C
:10350000281DFEF7DFFB28002022FF211430FEF7E4
:10351000D9FB039BAB7057E65546FAE7FEF7BEFEB4
:10352000021E00D1CCE5D37891781B020B4358469C
:103530000EA900F00FF9D4E565463B002A003100E2
:103540000A9800F073FEAC46049B039A1B7866440D
:103550000133934200DB6CE6BFE7174B29699942C0
:10356000ADD1079AABE7FFF79DFB021E00D1A7E59F
:10357000584613780EA900F0EDF8B2E52189FFF75F
:10358000D5F8021EF4D19BE5022A0FD0FFF78CFB81
:10359000021EC8D194E5FFF7C1F8021E00D18FE5E5
:1035A000122358460EA900F0D5F89AE5FFF7BAF8AD
:1035B000021EB8D184E5C0462D3C0010F8B5574630
:1035C0004E46DE4645460C00E0B516001F00002AB8
:1035D0003CD0702398461E4B00259B461D4B9A46B7
:1035E0001AE05B461B78200099465346997800F014
:1035F000DFFD00281CD021004846FFF73FFA0028D5
:1036000016D0A378DA09012A19D00A9A0135137065
:103610002378E418B54219DA6378052B08D1E378EA
:103620009B079B0FBB4203D14246A3781A42D8D0D6
:103630000020F0BCBB46B246A946A046F8BD0B9A96
:10364000013513702378E418B542E5DB0120F0E77B
:10365000AC1000206C170020702270B58B780C0025
:103660001A4201D0002070BD064B20001D78064B89
:10367000997800F09DFD0028F4D021002800FFF784
:10368000FDF9F0E7AC1000206C1700200B007F2044
:1036900010B51840DB0934334000044AC018044B0D
:1036A0001168C01800F040FD10BDC046C0170020D2
:1036B0006C1700200B007F2010B51840DB09343355
:1036C0004000044AC018044B1168C01800F054FDB3
:1036D00010BDC046C01700206C17002070B57F24B5
:1036E0000F480C4064000419CD0964193034207966
:1036F000C00701D5002070BD012625790948354352
:1037000000782571FFF742FA0028F4D101222379CD
:10371000934323712379033293432371EAE7C0462D
:103720006C170020AC10002070B5094C0600082270
:1037300020000D00FEF7CCFA00238021E360A36097
:103740002B783000994300220023FFF7C7FF70BD9C
:1037500010170020F8B5CE4647469046254E80B556
:103760008146082230000D001F00FEF7B1FA4346E3
:10377000B3600023F381EC79AB7924021C43231C52
:10378000BC4200D93B1C9FB2B381002C0DD0002F4E
:1037900017D04246002A2BD0402F1BD89FB2337837
:1037A0007F2B1CD80021144A0FE080212B780022A7
:1037B000994348460023FFF791FFC0BCB946B04685
:1037C000F8BD7F230022317899433B004846FFF73C
:1037D00085FFF2E740239FB233787F2BE2D9064C76
:1037E0003A0041462000FEF773FA80212200ECE700
:1037F0000020E2E7101700202C17002010B514223B
:1038000000210248FEF75EFA10BDC04610170020E6
:10381000014B18617047C0461017002010B5054CC9
:10382000010008222000FEF753FA0023A360E360A2
:1038300010BDC0461017002070B5384C1D0023780D
:103840000600DA09C9098A4210D00020002D00D0F4
:1038500070BD21003000FFF703F92369002B03D06E
:1038600022000321300098470120F1E77F2B06D882
:10387000A068002834D02A002949FEF729FAE289F5
:10388000A1685219E38892B24919E281A16093427A
:1038900014D03F2D12D9A389981A051C80B2402854
:1038A0002AD82078ADB27F2828D800219A4232D079
:1038B0001B4A2B003000FFF711FFC9E72369002BDB
:1038C00005D0220002213000984700280AD080212C
:1038D00023780022994330000023FFF7FFFEB7E76B
:1038E0000020B5E700213000FFF762F930008021A9
:1038F000FFF75EF90120ABE74025D2E79A4207D0F7
:10390000074C2A002000FEF7E3F980212200D0E7CF
:1039100080210022CDE70022CBE7C046101700200F
:103920002C17002070B50400FFF7C8F9002800D15B
:1039300070BDFFF7CBF90028FAD1E378002BF7D060
:1039400025001035280000F0EBFD3F28F0D90020BD
:10395000E178FFF79BFE0028EAD0280000F0E0FDA8
:10396000E1783F2807D992239B00E21800204023EA
:10397000FFF7B4FEDCE70020FFF79CFED8E7C04667
:1039800010B50400FFF79AF9002801D1002010BDFE
:10399000FFF79CF90028F9D1B22292006243034B51
:1039A00001309B181B791840F1E7C04648140020ED
:1039B000B2239B00434310B50248181800F092FD53
:1039C00010BDC04658140020F0B5B226B6004643DC
:1039D000224B3500C646984680231035040000B5BA
:1039E00045445B029A4200D31D4A280092B200F07F
:1039F000FBFD0700FFF762F9002803D1380080BC07
:103A0000B846F0BDFFF762F90028F7D1B2239B005A
:103A10005C434444E378002BF0D0280000F080FDA4
:103A20003F28EBD90020E178FFF730FE0028E5D0F1
:103A3000280000F075FDE1783F280AD992239B0009
:103A40009C4666443200402342440020FFF746FE75
:103A5000D4E70020FFF72EFED0E7C0464814002030
:103A6000FFFF0000F8B50400FFF728F9002801D196
:103A70000020F8BDFFF72AF90028F9D1B2239B00F6
:103A80005C432600144D24367619300000F02AFDE0
:103A90000028EDD02F190020B978FFF7F7FD002896
:103AA000E6D0A2239B009C4664446519290040226D
:103AB000300000F099FDB978041E08D003002A00F8
:103AC0000020FFF70BFE0028D2D02000D1E7002015
:103AD000FFF7F0FDCCE7C0464814002070B5B224D3
:103AE000A40044430B4B0500E41880235B029A4278
:103AF00000D3094A200092B200F03CFE06002000EC
:103B000000F0F0FC3F2801D8300070BD2800FFF71E
:103B1000A9FFF9E76C140020FFFF0000B2239B000F
:103B2000434310B50248181800F0FAFC10BDC04617
:103B30006C140020B222F0B500251B4C83B000218C
:103B400020009200FEF7BEF8184B21001D70FF23E5
:103B50006371E1235B02A360200008238022A3732A
:103B600038310095073B5200103000F085FC2100F1
:103B70000123200080223931FF315200009324308C
:103B800000F07AFC8E239B00E7183800FCF7C0FF9A
:103B900090239B00E6183000FCF7BAFFE56127622E
:103BA0002663656303B0F0BD481400204414002070
:103BB0000A4A116B136A00290CD0002B07D000238E
:103BC000D36153631363002313620120704753636F
:103BD0001363FAE7002BF8D0D161F4E74814002012
:103BE00070B50F4C052200212000FEF76BF80D4D3B
:103BF0002B78DA0707D50C4C9B070CD50121200048
:103C000000F094FE70BD2000103000F06FFE2B78A5
:103C1000054C9B07F2D4200000F068FEEEE7C0469A
:103C200048140020441400206C140020F0B5C6464F
:103C300000B54B79060082B0022B1CD18B79022B88
:103C400019D1244FBB78002B15D18B7809253B70F7
:103C50000C780C196378242B07D012E02378E41831
:103C60005D196378ADB2242B0BD1AA42F6D238008D
:103C7000FFF758FE00E00025280002B080BCB846DF
:103C8000F0BD1A00052B17D0042AF0D163790A2B56
:103C9000EDD12378210098460F4B3000019301337A
:103CA000009341440223023AFFF788FC0028E2D047
:103CB0000E354544ADB2DAE721003000FFF7CCFC09
:103CC0000028D8D0A3787B7023785D19E418627837
:103CD000ADB2D9E7481400204A140020F8B560239B
:103CE00014001278050013400020202B12D12F4A17
:103CF0006379277916781B023B439E420AD1637889
:103D0000222B1AD007D8202B3CD0212B02D10129FD
:103D100030D00120F8BD232BFCD1012940D003294C
:103D2000F7D1234B002BF4D0E178A37809020020CF
:103D3000194300E000BF0120ECE7012930D003293E
:103D4000E7D101252E00A378E478023924021C4330
:103D50001471264024321000714000F0E7FD154B2D
:103D6000002BD6D06208002031002A4000E000BFBE
:103D70000120CFE70723210028000F4AFFF7EAFCC4
:103D80000120C7E70129F5D00329C2D10B4B002B35
:103D9000BFD0083200201100FEF7A4FA0120B9E7D5
:103DA00021002800FFF7C0FC0120B3E748140020E1
:103DB000000000000000000050140020E522001068
:103DC000F0B54F464646D646C0B5374D8046EA78F0
:103DD0000C001F008A423CD0AB788B4210D00020F0
:103DE000E0BCBA46B146A846F0BD304B002B04D02B
:103DF0002F4800F08DFB002853D02800FFF792FDDC
:103E0000AB78A34201D00120EAE72A4B002B02D075
:103E1000002000E000BF0020FFF724FE0028F2D1C0
:103E2000254C200000F05EFB0028ECD1002FEAD0EA
:103E3000BF06E8D1243C4046A178FFF727FC0028C4
:103E4000E1D0002300224046A178FFF747FC012083
:103E5000C6E79AB292239B00EE1810239A46AA4412
:103E60003100504600F086FC144B002BBDD06B791E
:103E7000FF2BBAD0002FB8D0F219914603E00136DB
:103E80004E45B2D06B7932789A42F8D1504600F064
:103E90003FFB0028F3D15346103B597900E000BFA7
:103EA000EDE700E000BFA8E7481400200000000094
:103EB00058140020000000006C14002000000000D6
:103EC000B32270B5144C84B0002120009200FDF79D
:103ED000F9FE231D02932300200080254026CD33C8
:103EE0006D00FF33A93000930022002300210396C8
:103EF0000195FF3000F0B4F9230020004433A834CA
:103F0000029301220023002103960195009484303E
:103F100000F0A6F904B070BD8818002010B5054C5B
:103F2000200000F0D3F920002538FF3800F0CEF94A
:103F3000012010BD301A002010B5064C00232000CF
:103F4000B130FF30237000F0D1FC20008C3000F045
:103F5000CDFC10BD88180020F8B557464546DE4612
:103F60004E46E0B54B7980460F00FF2B5CD1424BAB
:103F70009946AA234946FF33CB5C002B54D18533A5
:103F8000CE5C002E50D1BB783C780B703B793C194D
:103F9000002B46D0D8235B004B449A468C234B44DD
:103FA0009B46A51803E0AC423BD22378E418637823
:103FB000052BF8D1AC4234D221004046FFF74CFB30
:103FC000002831D0A3780136F6B2DB09012B32D0BC
:103FD000504600F08BFCAA234946A278FF33CA540E
:103FE000637922791B021343244A5B0594465B0DD7
:103FF000D42163445A4253414A4602204900525C4C
:104000005B00824313434A465354514640460839A5
:1040100000F0C6F9002807D02378E4183B79B342B2
:10402000C5D8E01B80B200E00020F0BCBB46B24621
:10403000A946A046F8BD584600F058FC8523A27852
:104040000D490220CA54637922791B0213430B4A9B
:104050005B05944684215B0D63445A425341064AF2
:104060005B00525C82431343034A00205354594679
:10407000083900F061F9CFE78818002000FEFFFF43
:10408000F8B5AA2506001F48FF35455D1F008D4283
:1040900015D08523C35C00208B420FD11A4B002B17
:1040A00004D039040020090C00E000BF174C300098
:1040B000210000F041F9002814D00120F8BDDA23D6
:1040C0005B00C35A002B14D1114B002B04D00020ED
:1040D0001049BAB200E000BF30000F4900F060F9AB
:1040E0000120EBE73A002100300000F0F1F8012058
:1040F000E4E7D6235B00C158B130BAB2FF3000F01C
:1041000039FBE1E788180020000000000C190020AE
:10411000000000008C180020301A002010B500208C
:10412000FEF7DCFD10BDC046037870B5DB07040068
:104130000E00DD0F002B17D103785B0701D5280097
:1041400070BD01213000494200F076FC2378DB0786
:10415000DD0F002B0AD123785B0708D404222378D3
:1041600001251343237002E00025E8E70025300015
:1041700000F042FCE3E7C04670B50C0001210600E8
:104180004942200000F058FC33785B07DD0F002B1C
:1041900004DB200000F030FC280070BD3378DB0722
:1041A00004D40422337893433370F2E70025F0E718
:1041B000437902791B021343C2785B0592075B0DBA
:1041C000920F022A1DD0032A0CD00020012A08D108
:1041D00002394A425141124A94466144994240414F
:1041E000C0B2704702394A1E91410E4A49421140FD
:1041F0008022D20094460020614499424041C0B2DE
:10420000EFE7022905D0002040229A424041C0B287
:10421000E7E7054A981843425841C0B2E1E7C04673
:10422000FF03000040FCFFFF00FEFFFF8A1870B58F
:10423000914207D27F264C78052C04D00C780919BE
:104240008A42F8D870BD34008D782C40640004197F
:10425000ED0963550C7809198A42ECD8F2E7C0469B
:10426000F0B5C64600B582B0150008AA40CA0400E1
:1042700017886A46928D012090460A0021780240F4
:1042800081432000114321703A0000933100012343
:10429000083000F0F1F8002E01D0002F08D10A9B61
:1042A000012063604346638002B080BCB846F0BD25
:1042B00026001C363000FCF72BFC0023002D01D01B
:1042C000330000266361A661E9E7C046012070471C
:1042D000F8B502240B7807001C4063425C41144B84
:1042E00064421C40134B08009C4608300D00160029
:1042F000644400F0F7F8002807D1002E05D03442BE
:1043000003D101242B781C4201D00020F8BD3800D5
:104310006978FFF7BBF90028F7D02B781C42F4D15D
:104320000023002238006978FFF7D8F9EEE7C0468D
:1043300040FEFFFFFF010000F8B50D000835060044
:1043400028000C0000F0CEF8002803D001272378C5
:104350001F4201D00020F8BD30006178FFF796F9C8
:104360000028F7D028006288616800F03DF92378C2
:1043700005001F4000280BD0002FEBD1030062681E
:1043800030006178FFF7AAF90028E3D02800E2E7BF
:10439000002FDFD130006178FFF78CF9DAE7C046F3
:1043A000F8B5CE46474680B58A8906000C000B78E2
:1043B000002A07D101251D4240D00020C0BCB946CB
:1043C000B046F8BD9B0733D42A4B402599462700B9
:1043D0000837380000F0A4F88542EED8012223788F
:1043E00090461A42E9D130006178FFF74FF9002872
:1043F000E3D0380000F094F8424623781A40854212
:1044000031D8002AD9D14A46638802401D1C934204
:1044100000D9151CADB200226178002D00D0626871
:104420002B003000FFF75AF90028C6D02800C5E756
:10443000FE2380251B029946AD00C8E74978FFF7A7
:1044400025F90028B9D023781D42B6D1638800220F
:104450006178002B00D062683000FFF73FF9002838
:10446000ABD06088AAE7002AA7D130006178FFF7B7
:1044700021F9A2E7C0FF0000F0B5C64600B5040070
:104480006846057E8020884617001E000002824292
:1044900026D8E068002803D00121494200F0CCFA78
:1044A0002069002803D00121494200F0C5FA4346A3
:1044B000236073045B0CED031D430023E0686381FC
:1044C000A780E5802381002801D000F095FA2069BB
:1044D000002801D000F090FA012080BCB846F0BD61
:1044E0000020FAE710B5048941898288A3B288B216
:1044F0008C4207D31B1A9BB2101C9A4200D9181C7D
:1045000080B210BD5100091A5B189BB2F4E7C04697
:1045100003894089181A43425841C0B27047C046C7
:1045200010B5048941898288A3B288B28C4207D32E
:104530001B1A9BB200209A4201D9D21A90B210BD28
:104540005100091A5B189BB2F4E7C04670B504002D
:1045500000690E00002803D00121494200F06CFAE6
:1045600025896089A288A9B283B2854232D3CD1A47
:10457000ADB2002D28D0AA4208D291422FD3891A79
:104580008BB263819A4203D89B1A9BB29A42FBD9A1
:10459000E28821685204520C53433000C918FDF7D9
:1045A00097FB63890125591C89B2A2888B420DD9DA
:1045B00000215200891A89B220696181002801D046
:1045C00000F01AFA280070BD618989B25200914248
:1045D000F2DBEFE75500ED1A4D19ADB2C9E78918C6
:1045E0008BB26381CEE7C046F0B546464F46D6460D
:1045F000C0B50600006989469046002803D0012115
:10460000494200F019FA31897289B5888BB294B2A7
:10461000914254D31F1BBFB2002F4AD0BD4205D2D6
:10462000AB4251D25B199CB22F0074814346B8450E
:104630003DD89FB2A54203D8641BA4B2A542FBD9C2
:10464000F28831685204520C904662432B1B9BB295
:10465000891842469F4225D953439BB21A004846C7
:104660009A46FDF735FB434648467D1B64195C437B
:1046700031685044A2B2FDF72BFB7189B588CB1984
:104680009BB26A00994216D99B1A9BB2306973811A
:10469000002801D000F0B0F93800E0BCBA46B146BD
:1046A000A846F0BD48467A43FDF712FBE5E73B1C00
:1046B000BFE773899BB26A009342E7DBE4E76F00D0
:1046C0003F1BDF19BFB2A7E75B1B9CB2ACE7C0463C
:1046D000F8B50400C0680E00002803D0012149424B
:1046E00000F0AAF9258920896189A288ADB283B238
:1046F0008FB2884229D3DB1B9BB29A4209D8E77953
:10470000FF0906D1E068002801D000F075F93800F3
:10471000F8BD2B0095421DD39B1A9BB29342FBD24E
:10472000E28820685204520C53433100C018FDF750
:10473000CFFA6B1C9BB2A2889D4217D9002352006E
:104740009B1A9BB201272381DCE75100C91B5B1830
:104750009BB2D2E7E28820685204520C53433100E6
:10476000C018FDF7B5FA0135A288ABB252009342EA
:10477000E8DBE5E7F0B54E465746DE464546E0B590
:1047800089460600170083B0002A67D0C068002859
:1047900003D00121494200F04FF93389F2799BB2ED
:1047A00098467389B5889BB2D20940D198455ED2AC
:1047B0006A00D31A43449BB2AB425DD2EB1A1A1C77
:1047C0009BB2BB4200D93A1C97B27B1B9BB20193B0
:1047D000F3885B045B0C9A464346DB199BB29B460D
:1047E0004446A84503D3641BA4B2AC42FBD2534653
:1047F000634330682D1BADB2C018BD424BD3524647
:1048000049467A43FDF764FAB3885B00D84501D87E
:104810009B4503DB5A46D31A9BB29B465B463D0041
:104820003381F06800281AD000F0E6F817E0F2882B
:104830005204520C9246AF4220D298454DD3424684
:10484000D21A92B26900781B80B2D21901908A42C2
:1048500033DA4346FB189BB29B46C1E7002528008C
:1048600003B0F0BCBB46B246A946A046F0BD4246E6
:10487000D31A9BB2AB42A1D30025D2E7002DD0D0F2
:104880007F1B574398465A19002392B2B944934666
:104890002F000193A4E753465D43ADB22A00494679
:1048A000FDF716FA019B2900E21853465A43306877
:1048B00092B24944FDF70CFAA6E75A1992B2934610
:1048C000D21B92B2904693420CD94346591A8BB2EE
:1048D0009846FB189BB29B4682E76900CA1A42447D
:1048E00092B2B0E7914200DD7AE7EEE710B504003E
:1048F000C068002803D00121494200F09DF82069DA
:10490000002803D00121494200F096F80023E06816
:1049100063812381002801D000F06EF8206900280F
:1049200001D000F069F8012010BDC04670B5040048
:10493000C0680D00002803D00121494200F07CF836
:104940002069002803D00121494200F075F87F2139
:10495000E379ED011940E0682943E171002801D0B5
:1049600000F04AF82069002801D000F045F8012045
:1049700070BDC04610B583070AD00300032102E0D2
:1049800001330B4205D01A78002AF9D1181A10BD4C
:10499000030019680C4A0D4C8A188A4322420FD131
:1049A0005968094A04338A188A43224208D159684F
:1049B000054A04338A188A432242F1D000E00133C9
:1049C0001A78002AFBD1E1E7FFFEFEFE808080809E
:1049D000F8B5C0460000000001B40248844601BC9E
:1049E000604700BFC102002001B40248844601BCF8
:1049F000604700BFF103002001B40248844601BCB7
:104A0000604700BF2502002001B40248844601BC73
:104A1000604700BF390C002001B40248844601BC45
:104A2000604700BF550F002001B40248844601BC16
:104A3000604700BFC100002001B40248844601BCA9
:104A4000604700BF9901002001B40248844601BCC0
:104A5000604700BF110C002001B40248844601BC2D
:104A6000604700BF0101002001B40248844601BC38
:104A7000604700BFC90C002001B40248844601BC55
:104A8000604700BF790C00204D1900107919001003
:104A9000C51A0010B51C0010211B0010251C0010A9
:104AA000ED19001095190010B5190010C919001062
:104AB000C10A0010D1190010890E0010151900103C
:0C4AC00019050010C5020010A527001009
:104ACC0048656C6C6F2C20776F726C642100000051
:104ADC0049276D20616E2052503230343000000076
:104AEC000A2A2A2A2050414E4943202A2A2A0A00FF
:104AFC000A0000004E6F207370696E6C6F636B73ED
:104B0C002061726520617661696C61626C65000080
:104B1C004E6F207573657220495251732061726516
:104B2C0020617661696C61626C6500004861726439
:104B3C007761726520616C61726D20256420616CF7
:104B4C00726561647920636C61696D656400000055
:104B5C0048617264206173736572740052656C6590
:104B6C0061736500626F6F74325F77323571303804
:104B7C0030000000322E312E300000007069636F5F
:104B8C000000000068656C6C6F5F756E697665720D
:104B9C0073616C004A616E2032362032303235003F
:104BAC005541525420737464696E0000554152543F
:104BBC00207374646F75740055415254207374647F
:104BCC00696E202F207374646F75740055534220E6
:104BDC00737464696E202F207374646F7574000095
:104BEC005261737062657272792050690000000026
:104BFC005069636F00000000426F6172642043448F
:104C0C00430000005265736574000000556E6861C6
:104C1C006E646C65642049525120307825780A0006
:104C2C00657020253032582077617320616C726575
:104C3C0061647920617661696C61626C6500000069
:104C4C0043616E277420636F6E74696E756520788E
:104C5C00666572206F6E20696E616374697665207B
:104C6C00657020253032580006005250D3F0754242
:104C7C00684B001006005250E182887F704B001088
:104C8C0006005250ABB36053804B001006005250DC
:104C9C00BBFF3CB6884B001006005250861C03022A
:104CAC00904B0010060052505422A29DA04B0010B5
:104CBC0005005250DE65F468805F00100D0A00009C
:104CCC000600525053B4F4A1C44B001008005250CB
:104CDC00120000000800525092100000000000006A
:104CEC000D22001000000000112200101D220010E7
:104CFC004922001045220010000000000A000000AC
:104D0C0000000306A6000800020002009C0014002C
:104D1C00030057494E5553420000000000000000AC
:104D2C0000008000040001002800440065007600AB
:104D3C0069006300650049006E0074006500720034
:104D4C00660061006300650047005500490044009F
:104D5C0000004E007B006200630037003300390016
:104D6C003800630031002D0037003300630064000D
:104D7C002D0034006300620037002D00390038002C
:104D8C00620038002D00390031003300610038001A
:104D9C0066006300610037006200660036007D002B
:104DAC0000000000050F2100011C100500DF60DD74
:104DBC00D88945C74C9CD2659D9E648A9F00000390
:104DCC0006A60001000000000600525053B4F4A1E6
:104DDC00D84B001000000000EC4B0010FC4B0010F6
:104DEC0024210020044C0010104C00100902540027
:104DFC00030100807D080B00020202000009040080
:104E0C000001020200040524002001052401000118
:104E1C00042402060524060001070581030800107E
:104E2C0009040100020A000000070502024000000C
:104E3C00070582024000000904020000FF00010582
:104E4C0012011002EF0201408A2E0A000001010239
:104E5C0003010000E82D0010502F0010A02F0010AF
:104E6C00282F00103A2F0010182F0010882E001039
:104E7C00342E0010282E00100A330010F0320010CF
:104E8C00C03000102A330010C0300010D83200108F
:104E9C00C4320010C0300010B0320010B631001017
:104EAC00C030001096350010883500107C3500108D
:104EBC00C0300010C030001066350010883500106E
:104ECC00C0300010C0300010C0300010C0300010D6
:104EDC00C0300010C0300010C03000101C35001065
:104EEC00960D0020960D0020E00D0020000E0020F5
:104EFC00440E0020560E00208C0D002000000000F7
:104F0C00353B0010B13B0010E13B00102D3C001074
:104F1C00DD3C0010C13D001000000000000000004E
:104F2C00C13E00101D3F0010393F0010593F0010CA
:0C4F3C00A52200108140001000000000C1
:104F4800744C0010804C00108C4C0010984C0010D1
:104F5800A44C0010B04C0010BC4C0010E04C0010E9
:0C4F6800D84C0010CC4C0010D44D0010B0
:104F740003000068EFF3108C72B60268002AFCD0BC
:104F8400BFF35F8F04229A56002A0BDB002900D05E
:104F94000A6000201B68BFF35F8F00221A608CF345
:104FA40010887047D0221206126801201A71F1E7A6
:104FB400F0B5C646150000B504001E000268EFF304
:104FC400108172B61368002BFCD0BFF35F8F0423EB
:104FD400E3562268002B2BDBBFF35F8F00201060A9
:104FE40081F31088D02212061278002752B290461C
:104FF4009A420ED1002080BCB846F0BDBFF35F8F4B
:10500400176081F310882800310000F005FF0028A4
:10501400F0D12268EFF3108172B61368002BFCD034
:10502400BFF35F8F237922687F2BE7D9434602E0E1
:10503400D0231B061B682371BFF35F8F002313600B
:1050440081F310880120D6E7F0B5C64600B50D00FF
:10505400040000F009FFFA2206000F0000232800D4
:105064000021920000F008FF36184F41002F02DAA9
:105074000126174F7642D0231B061B68002598464D
:105084000AE0BFF35F8F156081F3108830003900A8
:1050940000F0C2FE002818D12268EFF3108172B626
:1050A4001368002BFCD0BFF35F8F237922687F2B1A
:1050B400E7D943462371BFF35F8F0023136081F365
:1050C4001088012080BCB846F0BD0020FAE7C04635
:1050D400FFFFFF7F0268EFF3108172B61368002BA5
:1050E400FCD0BFF35F8FFF2303710368BFF35F8FAF
:1050F40000221A6081F3108840BF704710B5084C35
:105104002378002B0AD18023064807495B051A68D7
:10511400C25004338B42FAD10123237010BDC04620
:1051240038210020541B00100001001010B5014B61
:10513400984710BD551B0020034B1A68C0239B00E1
:105144009343024A136070470C8001400C90014065
:10515400054B1A6880239B005340C02292001340E1
:10516400024A13607047C0460C8001400C90014015
:105174000023F0B5DE4657464E4645469A46E0B50E
:1051840083B001900E00988A42491B8B1400984703
:10519400534681464049988A1B8B984753463F495A
:1051A4000500988A1B8B98478046FFF7A7FFC847DE
:1051B400A847FFF7CDFF251E22D00823C0219C4617
:1051C4000220490562468B6A1A4018423CD0631B90
:1051D400002D2CD1002A11D1002C11D0C0235B0545
:1051E4009B4602239A46063399465B464A465746EF
:1051F4009B6A1A401F423FD0002AF6D0002C2DD1C2
:10520400FFF79AFFC047FFF791FF03B0F0BCBB461E
:10521400B246A946A046F0BD002C2FD1C0225205AB
:10522400926A914608224F463A40BF072DD50D2B6E
:105234001BD9002AF0D1C0225205926A9146082255
:105244004F463A40BF07F2D4002A04D12B0023432F
:10525400002BB7D1D4E72B00002CF9D00B6E013C06
:105264003370230001362B43F2E7019F013D3B7865
:1052740001370B660197E7E70025E5E7C0235B05E7
:105284001B6E013C337001369CE72B00002ADFD1F2
:10529400DCE7C0464946000045580000464300008C
:1052A4000022154B10B59A60DA601A615A619A614E
:1052B400DA611A625A629A62DA621A635A639A6308
:1052C400DA631A645A649A64DA641A655A659A65E8
:1052D400DA651A665A669A66DA661A675A679A67C8
:1052E400DA67F03292000021044800F0A5FD044B77
:1052F400044A1A6010BDC04600001050081D00206A
:10530400D020002080011050F0B557464E46454647
:10531400DE46E0B5274B00259F6D012689B0002F9E
:1053240025D0254B9A4601239B46244B019301E04B
:10533400202D1CD032002C000135B0463A40EDB28D
:105344007600002AF4D0534642469A655B466408C8
:105354002B406400E418019B64019C4664442000D3
:1053640000F03EFC002809D143469F43E0D109B038
:10537400F0BCBB46B246A946A046F0BD05A9894685
:10538400E28AA37804A8039200210622063002933D
:1053940000F052FDE0234946DB00039A0B80029B98
:1053A40048460B718A60012100F03AFC200000F0AD
:1053B400B5FBD9E70000115000301150C81C002083
:1053C4009823F0B5C646CD4A00B5D55880232E00A3
:1053D4009B02102484B01E401D427AD0C84BC94C95
:1053E4009A6AC94B00261A603B23E35C022B00D166
:1053F40065E17B23E35C022B00D109E1BB23E35C81
:10540400022B00D110E1FB23E35C022B00D117E156
:105414003C23FF33E35C022B00D143E17C23FF33C5
:10542400E35C022B00D124E1BC23FF33E35C022BB9
:1054340000D155E1FC23FF33E35C022B00D10BE1E7
:10544400B24BE35C022B00D188E1B14BE35C022B4D
:1054540000D11BE1AF4BE35C022B00D189E1AE4BE1
:10546400E35C022B00D16DE1AC4BE35C022B00D179
:10547400B4E1AB4BE35C022B00D185E1A94BE35CC7
:10548400022B00D1B5E1A84BE35C022B00D193E1E0
:10549400002E08D1A54B1B78002B04D18021A44AEF
:1054A40090338902D150954B0A229C6C6B460021A3
:1054B400981D00F0C1FCC0236A469B0064059380DC
:1054C400640D0121802601A8029400F0A9FB994CE7
:1054D400B602EB0600D58FE080235B021D4230D07C
:1054E4001E43012302249846864FBB7E002B14D012
:1054F40000F09AFC012800D982E0C0220021380083
:10550400920100F011FB380000F008FB00F08CFC65
:10551400012802D9864B5C661C664346FB70203723
:10552400012C21D1C023844ADB00019302AB03CABE
:1055340003C3012101A800F073FB80227C4B92027B
:105544001A6580235B011D4210D18023DB011D42BB
:1055540028D180231B021D423AD1AE4200D0CFE1B4
:1055640004B080BCB846F0BD0124BEE700221E434F
:10557400624B1A60FFF794FE6B460A220021981DC5
:1055840000F05AFC80236A465B009380012101A845
:1055940000F046FB8022664B12031A658023DB0170
:1055A4001D42D6D01E436B460A220021981D00F0EE
:1055B40043FC80236A46DB009380012101A800F0AC
:1055C4002FFB10225A4B1A6580231B021D42C4D0A4
:1055D4001E436B460A220021981D00F02DFCA023D7
:1055E4006A46DB009380012101A800F019FB8022A8
:1055F4004F4B12011A65B0E7FFF786FE26006BE7F2
:105604004E4B3E4A1C66536E2340A342FBD174E7C3
:105614007833E75C002F00D1F0E60233E25C002A25
:1056240000D00BE13E00E9E6B833E75C002F00D17F
:10563400E9E60233E25C002A00D0F7E03E00E2E64D
:10564400F833E75C002F00D1E2E60233E25C002A83
:1056540000D03FE13E00DBE6F933FF33E75C002F87
:1056640000D1EDE60233E25C002A00D029E13E00DD
:10567400E6E67933FF33E75C002F00D1D4E602334A
:10568400E25C002A00D013E13E00CDE62C4BE75C3F
:10569400002F00D1DEE60233E25C002A00D0FFE0F6
:1056A4003E00D7E63933FF33E75C002F00D1B5E67F
:1056B4000233E25C002A00D0E9E03E00AEE6383373
:1056C400E65C002E00D194E60233E25C002A00D1AD
:1056D4008FE6200000222030E25400F04DFA88E6E4
:1056E400B933FF33E75C002F00D1A3E60233E25C59
:1056F400002A00D0C2E03E009CE6C04600001150E3
:1057040000400540C81C0020C01C00203B020000D3
:105714007B020000BB020000FB0200003B03000010
:105724007B030000BB030000FB03000036210020C4
:1057340000301150100002000000105000201150E1
:105744007A020000714BE75C002F00D18CE6023333
:10575400E25C002A00D089E03E0085E66C4BE75C01
:10576400002F00D171E60233E25C002A76D13E00BC
:105774006BE6684BE75C002F00D170E60233E25C15
:10578400002A63D13E006AE6634BE75C002F00D138
:1057940074E60233E25C002A00D0A3E05F4BE35CD2
:1057A400022B30D15E4BE35C002B27D15D4BE35CD5
:1057B400022B00D077E63E005B4BE35C002B00D16C
:1057C40066E6FF239B00E25C002A00D16BE6002220
:1057D400E2541C3BE01800F0CFF964E6534BE75C5D
:1057E400002F00D145E60233E25C002A16D13E00C8
:1057F4003FE64B4BE35C002B00D144E6EF239B00D8
:10580400E25C002A75D1474BE35C022B00D04AE6E8
:10581400454BE35C002B00D145E6D2E70022E2547D
:105824001C3BE01800F0A8F93E0022E6200000220C
:10583400A030E2543E0000F09FF9E4E5200000228D
:105844006030E2543E0000F097F9D7E50022E254BC
:105854001C3BE01800F090F93E0000E60022E25400
:105864001C3BE01800F088F93E00EEE50022E2540B
:105874001C3BE01800F080F93E00F5E52000002212
:10588400A130FF30E2543E0000F076F9D2E520006A
:1058940000222130FF30E2543E0000F06DF9BDE5F6
:1058A4000022E2541C3BE01800F066F93E00D1E50A
:1058B400200000226130FF30E2543E0000F05CF929
:1058C400B2E520000022E130FF30E2543E0000F057
:1058D40053F9B5E520000022E030E2543E0000F028
:1058E4004BF995E50022E2541C3BE01800F044F922
:1058F40054E70022E2541C3BE01800F03DF982E733
:1059040031000B48694000F07FFAC046FA020000FB
:105914003A020000BA0200007A030000BB03000050
:10592400BA030000FB030000FA0300003A0300007E
:10593400184C0010F0B5C64600B50200838A008BEF
:105944008C46011C984200D9191CD478802520006B
:10595400461EB04189B2ED000D43400328430125A2
:105964006C405B1AD47054789BB29382002C31D172
:105974006446D568A4014E1E2D19B0461469002949
:1059840023D0062E32D92B0023439B072ED1631C30
:10599400EB1A022B2AD900238F08BF00E658EE50D9
:1059A40004339F42FAD14346ED19DB1BE419B94293
:1059B40009D026782E70002B05D066786E70012BE6
:1059C40001D0A378AB701469938A6418146180229F
:1059D40012021043002B02D18023DB0118436346DB
:1059E400002B00D0000480BCB846F0BD0023E65C68
:1059F400EE5401339942FAD1E5E7C0468368F0B525
:105A04001A680400002900D0120C63789205900DE6
:105A1400002B08D1E38AC318E382238B834201D984
:105A24000023A382F0BDE368890125695E18471E3F
:105A3400002822D0062F26D901315B18EB1A022B3D
:105A440021D92B0033439B071DD10023120E920052
:105A5400F158E95004339A42FAD1BF1AAD18B61876
:105A6400904209D032782A70002F05D072786A707B
:105A7400012F01D0B278AA702569E38A2D18C318C2
:105A8400E3822561C9E70022B35CAB540132904242
:105A9400FAD12569F1E7C04610B5040083680021F6
:105AA4001B68FFF7ABFF63681B685B0002D5238BA1
:105AB400834200D010BD01212000FFF79FFFF9E7CA
:105AC400084A0300126C0020920703D49A78D20982
