:020000041000EA
:10000000002008205D0100101301001015010010F0
:100010001101001011010010110100101101001058
:100020001101001011010010110100101701001042
:100030001101001011010010190100101B01001026
:100040001D0100101D0100101D0100101D010010F8
:100050001D0100101D0100101D0100101D010010E8
:100060001D0100101D0100101D0100101D010010D8
:100070001D0100101D0100101D0100101D010010C8
:100080001D0100101D0100101D0100101D010010B8
:100090001D0100101D0100101D0100101D010010A8
:1000A0001D0100101D0100101D0100101D01001098
:1000B0001D0100101D0100101D0100101D01001088
:1000C0001D0100101D0100101D0100101D01001078
:1000D0001D0100101D0100101D0100101D01001068
:1000E0001D0100101D0100101D0100101D01001058
:1000F0001D0100101D0100101D0100101D01001048
:100100001D0100101D0100101D0100101D01001037
:1001100000BE00BE00BE00BE00BE00BEEFF3058004
:10012000103800BEF2EB887120680010446800109F
:10013000A801001090A31AE7D3DEFFFF42012110AF
:10014000FF0100009CB40000793512AB4FF00000B5
:100150002049086006C881F3088810474FF05040D6
:10016000006810B14FF00000F2E70FA40ECC002998
:1001700002D000F015F8F9E71749184A002000E00E
:1001800001C19142FCD1002080F30A8814498847BC
:10019000144988471449884700BEFDE701C901C2D8
:1001A0009A42FBD3704700BF446800101001002042
:1001B000A04E0020D4B50010000008200000082048
:1001C000D4B5001000100820001008200000000026
:1001D0007047000008ED00E0A04E0020E458002029
:1001E00045300010E502001009300010F8B500BFDE
:1001F000064B0749C91A891048BF0131491003D07D
:10020000044B0BB101481847704700BFA04E0020B7
:10021000A04E00200000000008B5054B1BB10549A9
:100220000548AFF30080BDE80840FFF7E1BF00BF1D
:100230000000000088580020C05B001008B501F0E5
:1002400091F929B14FF47A72002305F079FC08BDC9
:10025000024BA3FB00308009F9E700BFD34D6210C9
:10026000024B4FF47A721A60704700BFE80D00200D
:10027000014BFA221A607047E80D0020024B40F64D
:10028000C4121A60704700BFE80D002008B503F0E3
:100290004FFD20B14FF47A72024B1A6008BDFA226A
:1002A000FAE700BFE80D002010B5FFF7C7FF0A4BC3
:1002B0001B68C01A094A1268904200D210BD13444C
:1002C000054A1360064C207803F032F9237883F056
:1002D00001032370F2E700BFCC580020E80D002096
:1002E000E058002008B503F00DF9002003F030FDC0
:1002F000054B0BB1AFF3008000214FF0FF3004F04D
:10030000C7F8FFF7D1FFF7E70000000002207047B1
:1003100070B588B00C4696461D46144B06AE93E861
:10032000030086E80300124B0DF1080C0FCBACE87C
:1003300007008CF800300F4B019306982060B288BC
:10034000B379A280A3710DF1080CBCE80700CEF8C8
:100350000000CEF80410CEF80820BDF804209DF867
:1003600006302A80AB7008B070BD00BFC05B0010C3
:10037000C85B0010312E3000012801D001207047E9
:1003800008B503F0D9F808B9012008BD0020FCE742
:1003900010230B604FF400731380704701207047E7
:1003A0000F2911D810B504469446184644B1084B9D
:1003B00003EB4121029A614405F006FB029810BD4F
:1003C000044B03EB4121F5E74FF0FF30704700BFCE
:1003D000EC0D0020EC2D0020012070478C460F29E9
:1003E00010D808B59646194640B1084800EB4C2095
:1003F000029A704405F0E8FA029808BD044800EB40
:100400004C20F5E74FF0FF30704700BFEC0D0020A7
:10041000EC2D002008B500232022052104F0F4FA79
:100420004FF0FF3008BD000070B588B004460D469F
:100430001D4B5BB110210DEB010003F084F86E0839
:10044000B0EB550F00D80646002524E0174B049367
:1004500003F1883305930820F1E7154BEE460FCBE7
:100460008EE80F0005F120036B4413F8103C4FEAAF
:100470008C02134103F00F03CCEB45020132203311
:100480006B4413F8203C24F812300CF1010CBCF141
:10049000010FE2D90135AE4202D94FF0000CF6E768
:1004A000700008B070BD00BF4735001001234567DC
:1004B000D85B00100048704748640010004870473F
:1004C0002864001010B570B103281AD0032825D86D
:1004D000134A52F82040204605F0ECFA202800D9B3
:1004E0002020002317E00E4B1B681A880D4B5A8002
:1004F0000120431C5B009BB243F440730948038016
:1005000010BD20210848FFF78FFFF2E7E15C0133BF
:10051000044A22F813109842F8D8EAE70020EFE7DF
:10052000EC4D0020385000203A5000200C4B03EBDB
:10053000800253F8203083F0400303F0C00302F53B
:10054000805CCCF80030C00000F1804000F5203025
:10055000416002F540524FF480731360704700BF52
:100560000480034008B54FF0000242EC440042EC26
:1005700040000521FFF7DAFF08BD00000FB400B509
:1005800083B0049C074802F071FE3CB105A90191BB
:10059000204602F07BFE044802F068FE012002F0D3
:1005A00031FD00BFFC5B00100C5C0010EFF310800D
:1005B00072B6064BD3E8CF1F01220029FAD1C3E857
:1005C000412F0029F6D1BFF35F8F7047C75200203B
:1005D0000023034AC2E88F3F80F31088704700BFB2
:1005E000C752002070B505460C461646FFF7DEFFE1
:1005F000E208A95C04F0070C012303FA0CF319428A
:1006000005D1DBB20B43AB54FFF7E2FF70BD2146CF
:100610003046FFF7B3FFF8B506460D4614461F46B1
:10062000FFF7C4FF00E00134BC420ED84FEAD40CFF
:1006300016F80C1004F0070301229A401142F2D17F
:10064000D2B20A4306F80C2001E04FF0FF34FFF766
:10065000BFFF002C01DB2046F8BD002DFBD0069823
:10066000FFF78CFF054A1078431CDBB21370172B81
:1006700002D9134610221A70704700BFFC4D0020AB
:1006800000B583B00146054B00931F231822044890
:10069000FFF7C1FF03B05DF804FB00BF105C001062
:1006A000485400204FF0E022936843F000539360D9
:1006B00070470000002305E0044A1A440021C2E804
:1006C0008F1F01331F2BF7D9704700BFBC5200208A
:1006D000064B9B68103043F82010BFF35F8F002358
:1006E0000349C1E88F3F82F31088704700ED00E0B6
:1006F000C55200200048704700E400E008B5FFF74D
:10070000F9FF002304E04FF0803240F8042B01335E
:100710000C2BF8D908BD000008B50388DA0A1C2A9A
:1007200006D15B050BD45B15023300EB430008BD1B
:10073000064B074A40F20F11064802F069FC03F528
:10074000FF1303F5FF531F33EDE700BF2C5C0010D0
:10075000A8640010445C001008B5091A01F2FC728C
:1007600040F6FE739A4208D8081F11F0010F04D119
:10077000C0F34A0040F4604008BD034B034A40F216
:100780000111034802F044FC8C5C00109C640010D2
:10079000445C001008B5091A04394B08090B0AD14A
:1007A000C1F30A0141F4704101806FEA43536FEADB
:1007B0005353438008BD034B034A40F209110348D9
:1007C00002F026FCBC5C001078640010445C001051
:1007D0004209064B53F8222000F01F0001238340FA
:1007E0001A4214BF01200020704700BF00E100E062
:1007F0003AB1064B00F1600243F8221043F8201092
:1008000070472030014B43F82010704700E100E0B2
:1008100008B50A4600F01F03012199404009FFF77F
:10082000E7FF08BD024B9B68103053F8200070476B
:1008300000ED00E070B505460C46EFF3108672B689
:100840000F4BD3E8CF1F01220029FAD1C3E8412F73
:100850000029F6D1BFF35F8FFFF7E4FF094B984201
:1008600001D0A04205D1324621462846FFF730FF8D
:1008700070BD054B054AE121054802F0C9FB00BFE8
:10088000C55200201D010010CC5C0010D064001087
:10089000445C00102DE9F04F87B000911546EFF34E
:1008A000108A72B67C4BD3E8CF1F01220029FAD1FF
:1008B000C3E8412F0029F6D1BFF35F8F774B93F93F
:1008C0000040002C44DB804604EB4407744B03EBF0
:1008D000870797F90610714A1170724A926800F101
:1008E000100152F82190A9EB03022F2A3ED96E4B3A
:1008F000994534D14FF42143ADF80C304FEA440907
:1009000004EB4400664E06EB800068490230FFF7B6
:1009100023FFADF80E004BF60153ADF81030FF2366
:100920008DF812308DF81350009B0593A14406EB0F
:10093000890306AA12E9070083E8070047F00109C6
:10094000524649464046FFF7C3FE07B0BDE8F08F68
:10095000574B584A40F26D11574802F059FB574B1C
:10096000544A4FF4BA71544802F052FB29F0010B7B
:10097000ABEB0303524AA2FB0312D20802EB420282
:10098000B3EB820F0FD15B460026DA79AA4212D967
:1009900093F90620002A0DDB02EB42021E46404B73
:1009A00003EB8203F1E7474B424A40F2851142488C
:1009B00002F02EFB1E46A6B344F60103ADF80C3040
:1009C0004FF48F43ADF80E3096F906B0BBF1000F2F
:1009D0001ADA4BF60150ADF810008DF812B08DF810
:1009E0001350009B05933946301DFFF7B5FEB080CC
:1009F000B47104EB44042A4B03EB840306AA12E906
:100A0000070083E807009BE7301DFFF785FE0146DE
:100A100004EB4402224B03EB8203181DFFF79CFEFC
:100A2000D9E74FF42143ADF80C306300019304EB98
:100A30004406DFF86C9009EB86061C49B01CFFF7F2
:100A40008BFEADF80E005946301DFFF785FEADF860
:100A500010004AF6AA235A464946521A52415343B5
:100A60001B0D8DF812308DF81350009A0592019BE2
:100A7000234409EB830906AB13E9070089E8070063
:100A800044F60103ABF800304FF48F43ABF802306B
:100A900047F0010954E700BFC5520020DF5800208D
:100AA000004E002000ED00E01D010010304E00203F
:100AB000045D0010B8640010445C00102C5D001050
:100AC000ABAAAAAA545D00102DE9F04706460D46D0
:100AD000EFF3108872B6504BD3E8CF1F01220029E4
:100AE000FAD1C3E8412F0029F6D1BFF35F8F4B4BFA
:100AF0009B6800F1100A53F82A70494B9F4207D0B7
:100B0000AF4200F087803C46464BFB1A2F2B06D99C
:100B1000424639463046FFF7DBFDBDE8F087FFF778
:100B200057FE814600213046FFF772FEBFF35F8F0C
:100B3000EFF30580C0B208B1824510D124F0010462
:100B40000021A268954212D094F90630002B0DDBEB
:100B500003EB43032146334C04EB8304F1E7324BB0
:100B6000324A40F2F311324802F052FA21469542DD
:100B700049D194F90650002D2BDB05EB4502294B9A
:100B800003EB82039A68A260DA79E27193F9063086
:100B9000A371002B10DA4BF60150A08005EB450243
:100BA000204B03EB8203234A117899711570494653
:100BB0003046FFF72DFEABE705EB4503194800EB88
:100BC00083000430FFF7A8FD0146201DFFF7C4FD98
:100BD000E3E798B981B1FF238B714BF601538B800A
:100BE000144A1378A3714AF6AA230E49641A644181
:100BF00063431B0D1370DAE7094FF1E70E49201D1F
:100C0000FFF7C8FDD3E70D4B084A40F235210848ED
:100C100002F0FEF9024F7BE7C552002000ED00E034
:100C20001D010010004E0020D85D001088640010E7
:100C3000445C0010DF5800203A4E00200C5E00108B
:100C400038B540F00104324BE31A2F2B31D8EFF3C3
:100C50000581C9B2002933D0EFF3108E72B62D4B47
:100C6000D3E8CF5F0122002DFAD1C3E8452F002D34
:100C7000F6D1BFF35F8F4AF6AA230246244D521BDA
:100C8000524153431B0D4FFA83FC234B9B6853F88F
:100C90002130A3421BD00023032B32D803EB4301A6
:100CA0001B4A02EB810292F90620624520D00133F3
:100CB000F2E71A4B1A4A40F26E211A4802F0A8F9DC
:100CC000194B174A40F27121164802F0A1F9124B54
:100CD0009B68164A43F82120154B1A78827183F8D5
:100CE00000C000230B4AC2E88F3F8EF3108838BD46
:100CF000074A02EB8101FF248C714BF601538B8074
:100D0000EAE70C4B064A40F28221064802F080F9DD
:100D1000004E0020C552002000ED00E0145E0010DF
:100D20005C640010445C00103C5E00101D0100106B
:100D3000DF580020485E0010014B0B4403607047F1
:100D4000BC52002010B50446FFF78CFC014620463B
:100D5000FFF7F2FFFF232371BFF35F8F10BD10B5C4
:100D60000446FFF77FFC01462046FFF7E5FFFF231F
:100D7000237100236371BFF35F8F10BD10B50D4C5D
:100D800009E00D4B0D4A1A210D4802F041F92046A9
:100D9000FFF7D8FF08340B4B9C4209D22368002B85
:100DA000F5D0012BEDD12046FFF7D9FF0834F2E74B
:100DB00010BD00BF984E0020505E0010106500105E
:100DC000705E0010A04E0020024B0B440360BFF386
:100DD0005F8F7047BC52002010B504460120FFF71A
:100DE0004FFC01462046FFF7EFFF10BD0246EFF330
:100DF0000583DBB2103B990804D0034803F00303DA
:100E0000136070470148F9E700800B4000000B4079
:100E100041EA0040704700000D4B1A68EFF3108163
:100E200072B6D2E8CFCF0120BCF1000FF9D1C2E8F1
:100E30004C0FBCF1000FF4D1BFF35F8F1A68002391
:100E4000C2E88F3F81F3108840BF00200021704727
:100E5000C85800202DE9F04F85B003A8FFF7C6FF62
:100E60008F4B984214BF00230123039901EB8303A6
:100E70008C4A52F823402378994206D10546012234
:100E80008A4000F541535A6020E1874B874A9221FE
:100E9000874802F0BDF8D4F8149006EB46074FEAF5
:100EA000C70A09EBC707D7F808B0D7F80C8028465F
:100EB00000F02EFBB0EB0B0061EB0803002BC0F23F
:100EC0000E81B8F1000F60DB3B691A460093794B45
:100ED0009A4230D0798889B2B4F90800FFF798FFB8
:100EE0007969009B9847009001910099019A51EA15
:100EF00002034AD01346002A29DABBEB010268EB51
:100F00000308BA60C7F80C8039F90A30002BC0F228
:100F1000E680D4F814E003EB43010EEBC1018868CE
:100F2000C968101A68EB01010029C0F2D880A446F4
:100F30002CF8083F15E07A6913690092104698472B
:100F400018B3009A1368009353680193CDE72846BD
:100F500000F0DEFA009B1A18019B43EB0108D0E772
:100F60009C46BCF90070002F0ADB07EB47030EEB31
:100F7000C3039868D968101A68EB01010029EFDAF9
:100F800029F80A70ACF80060A9E039F90A30238129
:100F90002369EFF3108272B6D3E8CF0F0121002846
:100FA000FAD1C3E8401F0028F6D1BFF35F8FB4F930
:100FB000023029F80A30668021690023C1E88F3F9A
:100FC00082F310888BE02369EFF3108272B6D3E8C6
:100FD000CF0F01210028FAD1C3E8401F0028F6D125
:100FE000BFF35F8FB4F804800FFA88F84FF6FF73F1
:100FF000A38021690023C1E88F3F82F3108815E0A8
:101000001E46B6F90020002A0ADB02EB42030CEB75
:10101000C3039868D968381A6EEB01010029EFDA2A
:10102000A6F800803CF909802CF80920B8F1000FDF
:101030005ADBD4F814C008EB48034FEAC3090CEBA1
:10104000C3039F68D3F80CE004F10806D9E7002336
:10105000A37104F1080CB4F9083010E04FF0FF3828
:101060004FF0FF39C0E90289B4F90800984205D071
:10107000ACF80020B4F90800C85323811346B3F13B
:10108000FF3F34D0616903EB4302D70001EBC2009C
:1010900031F93220468816F4004FDFD18446EDE75F
:1010A00000800B40A0580020045F00103C65001039
:1010B000305F0010550E0010284600F029FA361A4D
:1010C00067EB0107012E77F100072EDA039A01235F
:1010D0009340EB63B4F90860002EBFF6DCAEA38842
:1010E00013F4004F3FF46FAFA379002BAFD1B4F9E5
:1010F0000830002B19DB626903EB430302EBC303E7
:101100009E68DF68B7F1FF3F08BFB6F1FF3FD3D05D
:10111000039AA96A701A131D55F823305B1A984276
:10112000CAD2043245F82260C6E740BF05B0BDE828
:10113000F08F00BFF8B504460D4611460A4B9842A1
:1011400010D000262E44012707FA05F52562304607
:10115000FFF770FB39463046FFF75AFB04F50154A0
:101160002560F8BD0426EDE700800B40F8B5044685
:101170000E4617461D46C160FFF774FA164B03442E
:1011800023612770ABB263814FF0504212786270D6
:101190004FF6FF722281A280013B63804FF0000C6A
:1011A00008E00CF1FF300CEB4C0E636923F83E00B5
:1011B0000CF1010CAC45F4D3084B9E4214BF002344
:1011C000012307EB8303064A42F82340054A3946C8
:1011D0003046FFF7AFFFF8BDBC52002000800B4047
:1011E000A0580020550E001008B5054B1B690BB127
:1011F000034808BD034B044A6521044801F008FF79
:10120000484E0020705F001024650010305F001011
:10121000F8B504469E460069EFF3108172B6D0E837
:10122000CF6F0125002EFAD1C0E8465F002EF6D11F
:10123000BFF35F8FB4F90250666905EB4500C70044
:1012400006EBC000002D03DB36F907C0A4F802C08E
:101250004FF0000C2369C3E88FCF81F310886545F8
:1012600033DB06990161079941618260C0F80CE0A7
:10127000418889B20131C1F30E0101B901214180D8
:101280002846FFF7C5FD2369EFF3108272B6D3E855
:10129000CFCF0121BCF1000FF9D1C3E84C1FBCF145
:1012A000000FF4D1BFF35F8FA388F353A5802169AA
:1012B0000023C1E88F3F82F31088E3682178012280
:1012C0008A4003F501535A60F8BD4FF0FF30FBE749
:1012D00070B582B0064615461C469DF8203033B9DD
:1012E00000F040F9854264EB010100290ADB079B0D
:1012F0000193069B00932A4623463046FFF788FF5A
:1013000002B070BD0020FBE7F0B585B005460C4685
:1013100016461F46FFF768FF9DF828300293019795
:1013200000962A462346FFF7D3FF05B0F0BD0346DB
:101330004089B0EB214F31DD10B50A14586902EB3A
:10134000420200EBC2001A69EFF3108C72B6D2E8C9
:10135000CF4F5FF0010E002CF9D1C2E844EF002C12
:10136000F5D1BFF35F8F428892B289B28A420FD023
:10137000002019690022C1E88F2F8CF3108830B14A
:10138000DA681B780121994002F50153596010BDBC
:1013900042F40042428001209871EAE70020704741
:1013A00010B50446FFF720FF2146FFF7C0FF10BD30
:1013B00030B583B005460C46EFF30583DBB293B13D
:1013C000394B5B6A8B4209D3374A926A824208D210
:1013D0008B4201D0012002E0002000E0002003B099
:1013E00030BD0120FBE7FFF7FFFEC16803788A6A82
:1013F000A81A043351F823309B1A984212D320BF05
:10140000294B5B6A9C4209D8274A926A954207D9C0
:101410009C4201D00120E2E70020E0E70020DEE767
:101420000120DCE700230093204A28462146FFF7ED
:101430006BFF00280BDD1C4B5B6A9C421BD81A4AD1
:10144000926A954228D99C4213D0012314E0164B8E
:101450005B6A9C4209D8144A926A954207D99C4219
:1014600001D00120BBE70020B9E70020B7E7012049
:10147000B5E7002300E0002303B920BFFFF790FF8A
:10148000094B5B6A9C420BD8074A926A954209D97C
:101490009C4203D00120A2E70123EDE700209EE754
:1014A00000209CE701209AE700000B40190E001075
:1014B0000048704700000B4010B50A4B1B6923B170
:1014C0000A210948FFF738FC10BDFFF7F1FF044679
:1014D000032100F00BF81023032221460148FFF7F7
:1014E00045FEEDE7484E0020C858002010B5054ADB
:1014F000054C064BA04214BF1846581CFFF772F863
:1015000010BD00BF945F001000800B404C540020C1
:101510000246436A906A1946536A9942FAD1704763
:10152000416A00E0416A9942FCD300E0416A994275
:1015300002D1816A9142F9D3704770B506461446CC
:101540001D46FFF7E5FF021941EB0503824273EBED
:10155000010102D24FF0FF3213463046FFF7E0FFA1
:1015600070BD000008B50248FFF7D2FF08BD00BFFC
:1015700000000B4008B502460B460248FFF7DDFFAE
:1015800008BD00BF00000B40074B98420AD01A2349
:1015900001229A40054B1A60054B9B6832EA03030F
:1015A000FAD170471B23F3E7008007400030024068
:1015B0000000024038B5046B14F0010F01D1204641
:1015C00038BD00F5405340F201321A63436A856A20
:1015D00005EB8315AD02062000F0EAF8044BA3FBEF
:1015E0000030C00AB5FBF0F00021FFF7C3FFE6E7CB
:1015F000757B2B8F70B505460C461646FFF7DAFF54
:10160000EB6A5C40344005F58153DC60286370BDB3
:1016100070B505460C46062000F0CAF8C300B3FBBF
:10162000F4F30133DC0907D04FF6FE72944214D86C
:101630002646C3F3450400E001266E62AC62002238
:1016400011462846FFF7D6FF062000F0B1F88000CB
:1016500004EB8614B0FBF4F070BD00244FF6FF7667
:10166000EBE7000049B10A22054B984214BF002065
:101670000120044B23F8102070474FF48072F3E7E9
:1016800000800740D058002038B504460D4606209B
:1016900000F08EF8F8B1114B9C421DD01A220123A4
:1016A00093400F4A13602046FFF76EFF002120464B
:1016B000FFF7D8FF29462046FFF7AAFFE36A83F029
:1016C000700303F07E0304F58152D36040F20133CE
:1016D00023630323A36438BD1B22E0E70080074097
:1016E0000020024070B51646049D00EB400C4FEA06
:1016F0008C0C0CF1804C0CF5803CDCF80420AA42E8
:1017000001D2CCF80450A0F1040E5FFA8EFEBEF1B7
:10171000010F28D90CF540524FF4006414601E4AA2
:1017200052F8202042B11C4C6469B4FBF2F401343D
:1017300004EB4404033CFDD2DCF8002082EA4612AC
:1017400002F0E0020CF580542260BEF1010F16D9C0
:101750000CF500524FF400611160CCF804500E4AB1
:1017600042F8203070BD0129D4D10CF54052032439
:101770001460DCF8082012F0010FFAD0DCE7DCF886
:1017800000204A4002F003022260DCF808400122F7
:101790008A401442F9D0DBE75054002010B582B0E3
:1017A0004FF480340094FFF79DFF02B010BD00009D
:1017B000014B53F8200070475054002070B5049C32
:1017C000344DB5FBF1FC344D1544344EB54237D899
:1017D000B2FBFCF5A5F1100EBEF5987F36D803F1EB
:1017E000FF3EBEF1060F37D804F1FF3EBEF1060FF3
:1017F00032D8BCEB121F35D8240344EA03440368F3
:10180000002B35DB264B984242D00E2301229A4012
:10181000244B1A6003F580531A60234B9B6832EA0D
:101820000303FAD10160856000F5405204322123A0
:1018300013600368002BFCDAC4600823136070BDDA
:101840001A4B1B4A11211B4801F0E2FB1A4B184AA4
:101850001921184801F0DCFB184B154A1C211548CA
:1018600001F0D6FB164B124A2321124801F0D0FB9F
:10187000036803F03F038B42C4D18368C3F30B03B7
:10188000AB42BFD1C36803F4EE23A342BAD1D6E77B
:101890000F23BBE7001BB70080E84BD380F8A932C9
:1018A000008005400020024000000240B85F0010A8
:1018B0005465001008600010506000106C6000104B
:1018C000B8600010054A00EB400302EB8303596047
:1018D00000EB40008000012313507047008010404F
:1018E00008B50023DB8A002242E800F212F4800FE0
:1018F00002D11021984708BD04219847FBE700005A
:10190000034BD3F82838002BFAD0BFF35F8F704712
:1019100000000E40002207E0054B13449B00BFF37C
:101920005F8F002119600132072AF5D9704700BF87
:101930000382031008B5FFF7EDFF08BD074B4FF416
:101940002A621A602F22DA6003F50053044A1A60F3
:10195000024B5B68002BFBDA704700BF008004403D
:1019600000B0FA0010B5044602E054F8043B984772
:10197000014B9C42F9D310BDB85B001070470000CA
:1019800008B50248FFF7EEFF08BD00BF785B001006
:10199000064B074A1A6003F58053064A1A60064B45
:1019A0009A68044B9343FAD1704700BF002002406D
:1019B0007F3BEFEFF6FFF30300000240054BDB6CCB
:1019C000B3F5004F00D07047034B4FF48022DA6428
:1019D000F9E700BF00001150002011504FF0E02245
:1019E000D2F8881D034B0B43C2F8883D10EE30043B
:1019F000704700BF03033000054B6FF060421A6070
:101A0000044B9B68DB4333F06043F9D1704700BF60
:101A1000003002400000024008B545F25320FFF7B5
:101A20005FFF03460420984708BD08B545F25320E0
:101A3000FFF756FF03460120984708BD08B5FEF79B
:101A400039FE08BD38B5054CA168054D4FF48872C4
:101A5000284603F0B9FFA56038BD00BF00ED00E0E7
:101A60000000002038B50420FFF7A2FE064BA3FBC0
:101A70000035AD0C002404E02946E0B2FFF722FF58
:101A80000134052CF8DD38BD83DE1B4330B583B04F
:101A9000264B0022C3F88420FFF750FF244B01227D
:101AA000DA63224B5B6C012BFBD1214B03221A63BF
:101AB0001E4B9B6B012BFBD10224009405231D4A76
:101AC00001211D48FFF77AFE052500952B461B4A8C
:101AD00001211B48FFF772FE1A4B00222146042009
:101AE000FFF75CFE184C2346002201212846FFF731
:101AF00055FE164D2B46002211460820FFF74EFEDC
:101B00002B46002211460920FFF748FE23460022FB
:101B100011460620FFF742FE234600221146072009
:101B2000FFF73CFEFFF79EFF03B030BD0000014011
:101B300000300140002F685900000540008C8647A6
:101B400000800540001BB70080D1F008006CDC026B
:101B500086B003B451FC0804CDE9020151FC09042C
:101B6000CDE9040151EC0A04CDE9060103BCF047BC
:101B7000BDE800504EEC00C4BDE800504EEC01C47E
:101B8000BDE800504EEC02C400BD000000B5FFF7F8
:101B9000DFFF02E010FE30F4F8D441EC100443EC17
:101BA000112400EE010410EE010480EE200451EC3B
:101BB0001004704700B5FFF7CBFF02E010FE30F4D1
:101BC000F8D441EC100443EC112400EE010410EEB3
:101BD000210480EE200451EC3004704700B5FFF77B
:101BE000B7FF02E010FE30F4F8D410B541EC100459
:101BF00043EC112451EC040453EC0524A0FB024CEB
:101C00005FF0000EE0FB03CEE1FB02CE4CEC204483
:101C10000024E1FB03E444EC30E480EE200451ECCA
:101C20005004BDE81040704700B5FFF791FF02E097
:101C300010FE30F4F8D441EC100443EC112451ECC4
:101C40002104A0FB01126FEA820252FB100052FB3A
:101C500012F252FB1000A0EBD07C53EC04245CFB8E
:101C600013F153EC1524A1FB022001FB030053ECFC
:101C70004424A2EB000050FB1CF24FEA111312EBBC
:101C8000017043EBE27140EA515020EA915020F09C
:101C9000070053EC7524A0FB023C53EC752400FBB9
:101CA00003CC01FB02CC53EC0424ACEB824C40EAA5
:101CB0005C70A0F1010041EC400480EE200451EC86
:101CC0007004704700B5FFF743FF02E010FE30F4E8
:101CD000F8D440EC700400EE010410EE210480EE14
:101CE000200451EC3004704700B5FFF731FF02E0EB
:101CF00010FE30F4F8D440EC600400EE010410EE65
:101D0000210480EE200451EC3004704700B5FFF749
:101D10001FFF02E010FE30F4F8D441EC800400EE26
:101D2000010410EE010480EE400410EE130470472D
:101D300000B5FFF70DFF02E010FE30F4F8D441ECDF
:101D4000800400EE010410EE010480EE400410EE69
:101D50003304704700B5FFF7FBFE02E010FE30F4DD
:101D6000F8D441EC100443EC112400EE010410EE11
:101D70003004C0F30070704700B5FFF7E9FE02E0E1
:101D800010FE30F4F8D443EC102441EC110400EEC2
:101D9000010410EE30F48CBF01200020704700BF1A
:101DA00000B5FFF7D5FE02E010FE30F4F8D443ECA6
:101DB000102441EC110400EE010410EE30F42CBFAD
:101DC00001200020704700BF00B5FFF7C1FE02E010
:101DD00010FE30F4F8D441EC100443EC112400EE72
:101DE000010410EE30F42CBF01200020704700BF2A
:101DF00000B5FFF7ADFE02E010FE30F4F8D441EC80
:101E0000100443EC112400EE010410EE30F48CBFFA
:101E100001200020704700BF704720B108B50A6854
:101E20004968904708BD70470146002008E000EB74
:101E30008000531C0B60137803EB4003A3F13000C8
:101E40000A681378303BDBB2092BF0D970472DE9D3
:101E5000F04F83B005460E4693461F46DDF830A08E
:101E60000D9CDDF838900F9B13F0030F19D1A0469D
:101E70000192C84509D202F1010B3B4631462020B0
:101E8000A84708F101085A46F3E7DDF804B008E076
:101E9000013C02F101083B4631461AF80400A8470C
:101EA0004246002CF4D10F9B13F0020F03D11046D1
:101EB00003B0BDE8F08FA2EB0B034B45F7D2541CE7
:101EC0003B4631462020A8472246F4E72DE9F0435F
:101ED00085B099460C9D0D9C9DF83880DDF840E05A
:101EE000119F129E16F0020F21D17FB116F0010F43
:101EF0000CD0B8F1000F02D116F00C0F06D0013F44
:101F000004E04FF0300C05F804C00134744501D2F0
:101F10001F2CF6D916F0010F09D0BC4207D21F2C96
:101F200005D84FF0300C05F804C00134F2E716F084
:101F3000100F14D016F4806F04D11CB1744522D058
:101F4000BC4220D00F9B102B36D00F9B022B3ED0D3
:101F50001F2C0ED84FF0300C05F804C001341F2C94
:101F600007D8B8F1000F3AD04FF02D0C05F804C097
:101F7000013403960297019400954B46FFF767FFE3
:101F800005B0BDE8F083B4F1010C13D00F9B102B0A
:101F90000ED064460F9B102BD7D116F0200FD4D053
:101FA0001F2CD2D84FF0580C05F804C00134CFE7ED
:101FB000023CC7E76446C5E716F0200FEAD11F2CA4
:101FC000E8D84FF0780C05F804C00134C0E71F2CA6
:101FD000CFD84FF0620C05F804C00134B8E716F012
:101FE000040F05D04FF02B0C05F804C00134C0E7F6
:101FF00016F0080FBDD04FF0200C05F804C00134D6
:10200000B7E7F0B591B0169C189D1B9E0CB926F051
:10201000100616F4806E16D064B34FF0000E12E076
:102020000CF1300C5FFA8CFC0EF101070EF1400E42
:10203000EE440EF820CCB4FBF5FCAC421BD31F2FB2
:1020400019D8BE466446B4FBF5FC05FB1C4C5FFA90
:102050008CFCBCF1090FE3D916F0200F08D0412702
:10206000BC445FFA8CFCACF10A0C5FFA8CFCDBE739
:102070006127F5E7274606961A9C0594199C049457
:1020800003959DF85C400294019708AC0094FFF71B
:102090001DFF11B0F0BD2DE9F04F95B009900A91E8
:1020A0000B929846DDF878B0DDF87C90229D239F56
:1020B000269E5BEA090201D126F0100616F4806420
:1020C0001ED05BEA09022FD0002419E03032D3B2CF
:1020D00004F1010A04F150020DEB020404F8203C63
:1020E0002A463B465846494603F02AFDAB4579EB64
:1020F00007091BD3BAF11F0F18D8544683468946E7
:102100002A463B465846494603F01AFDD2B2092AF0
:10211000DCD916F0200F05D041231344DBB20A3B73
:10212000DBB2D5E76123F8E74FF0000A0696259B5E
:102130000593249B049303959DF880300293CDF87A
:1021400004A00CAB009343460B9A0A990998FFF739
:10215000BDFE15B0BDE8F08F2DE9F04F91B00446FB
:102160000D4617461E46DDE91A2310461946FFF7AD
:10217000F5FD002840F0ED804FF0FF32AE4BDDE979
:102180001A01FFF739FE002840F0E3804FF0FF32DC
:102190006FF48013DDE91A01FFF7F2FD002840F02B
:1021A000D88000220023DDE91A01FFF7E9FD0028AD
:1021B00040F0E2809DED1A7B8DED067B1E9B13F4B3
:1021C00080630D9301D106231C93DDE9062310469D
:1021D0001946CDE9080152EA030100F0D880C3F3A3
:1021E0000A50C3F31303904643F07F5949F4401952
:1021F000A0F2FF30FFF76AFD7DA3D3E90023FFF7CC
:10220000F1FC7DA3D3E90023FFF7C4FC82468B4693
:1022100000228A4B40464946FFF7D0FC78A3D3E919
:102220000023FFF7DFFC02460B4650465946FFF7F6
:10223000B1FCFFF76FFD8246FFF748FD80468946F7
:1022400071A3D3E90023FFF7CDFC00227C4BFFF7FD
:10225000A1FCFFF75FFD83466DA3D3E90023404651
:102260004946FFF7BFFC804689465846FFF72EFDDA
:1022700069A3D3E90023FFF7B5FC02460B464046AD
:102280004946FFF79BFC8046894602460B46FFF70E
:10229000A9FCCDE90A010BF2FF3B00210022CDE9A8
:1022A00008124FEA0B5309930023089342464B460A
:1022B00040464946FFF76EFCCDE90E0142464B46CB
:1022C00000204FF08041FFF779FC804689460022CC
:1022D0005C4BDDE90A01FFF7ABFC00225A4BFFF72C
:1022E00059FC02460B46DDE90A01FFF7A1FC00227A
:1022F000564BFFF74FFC02460B46DDE90A01FFF79C
:1023000097FC02460B4640464946FFF743FC02460F
:102310000B46DDE90E01FFF78BFC00224C4BFFF76B
:1023200039FCDDE90823FFF75DFC80468946CDE9ED
:102330000889DDE90623FFF75FFD50B30AF1FF3A94
:102340000022414B40464946FFF772FCCDE90801A7
:102350001FE01E9B04931D9B03931C9B02939DED0A
:102360001A7B8DED007B33463A462946204600F025
:1023700003F911B0BDE8F08F9FED297B8DED067B51
:102380001A9B06931B9B03F10043079316E74FF03C
:10239000000A0AF16303C62B27D84FF004081E9BDE
:1023A00013F4006F5FD0DDE9081213460B4313D01E
:1023B0001DA3D3E90023DDE90601FFF709FD00288D
:1023C00000F0B4801AA3D3E90023DDE90601FFF78A
:1023D000D7FC002800F0AA801C9B53453ADDA3EBF4
:1023E0000A0A0AF1FF331C9336E04FF00508D6E7DE
:1023F000FB799F501344D33FB3C8608B288AC63FF4
:1024000061436F63A787D23F71A379094F930A4055
:102410001655B5BBB16B0240EF39FAFE422EE63FCE
:1024200000000000000000002D431CEBE2361A3FC4
:102430000000000080842E41FFFFEF7F0000F83F86
:102440000000E03F00002C40000024400000184045
:102450000000F03F00231C931E9B43F480631E93F7
:102460004FF00008C2461D9B984569D2A3EB0809AE
:102470001E9B13F0020B04D0B8F1000F01D04FF0F7
:102480000009BAF1000F07D0DDE90823DDE90601F4
:10249000FFF7CEFBCDE9060100220023DDE91A019A
:1024A000FFF76EFC00284ED11E9B23F400630493BB
:1024B000CDF80C901C9B02939DED067B8DED007B6F
:1024C00033463A462946204600F056F8B8F1000F48
:1024D0003FF44FAF1E9B13F0200F3CD04FF0450C44
:1024E00000F101093346024629466046A0478AEAC0
:1024F000EA72A2EBEA720523059308F1FF33049315
:10250000002303930A2302934FEADA7301930092A4
:1025100033464A4629462046FFF773FDBBF1000FBC
:102520003FF427AF0246DDF874901EE01C9B002BA1
:1025300099D00D9B002B96D01C9B013B1C9392E7DE
:102540004FF0000994E7DDE90601024601F100437E
:10255000CDE90623A8E74FF0650CC1E702F10108B9
:10256000334629462020A0474246D31B4B45F5D38E
:102570001046FEE6000000002DE9F04F2DED028B25
:1025800095B007900A9192469B46DDE92089229DED
:1025900042464B4640464946FFF7E0FB002835D10E
:1025A0004FF0FF326FF4801340464946FFF7E8FBD7
:1025B00000283AD14FF0FF329F4B40464946FFF783
:1025C0001BFC002840D198A3D3E90023404649468C
:1025D000FFF712FC00284FD195A3D3E90023404612
:1025E0004946FFF7CDFB002846D100220023404694
:1025F0004946FFF7C5FB00284CD100230B93249BD1
:1026000013F4806F00F0B780002456E0249B0393FE
:10261000239B029303230193884B00935B4652460E
:102620000A990798FFF713FC37E1249B0393239B38
:10263000029304230193824B00935B4652460A990E
:102640000798FFF704FC28E1249B13F004030FD044
:102650007C4A7BB10423249903912399029101932D
:1026600000925B4652460A990798FFF7F0FB14E187
:10267000754AEEE70323EEE7249B0493239B039321
:102680000295CDE900895B4652460A990798FFF703
:1026900063FD02E142464B4600200021FFF78EFA1F
:1026A0008046894601230B93A9E704F150036B444C
:1026B000302203F8202C013D01341F2C01D8092DB4
:1026C000F3D840464946FFF725FB0646FFF7FEFADA
:1026D00002460B4640464946FFF770FA5B4B03EB58
:1026E000C50393ED008B53EC182BFFF77BFA0246E2
:1026F0000B46CDE90823FFF71FFB0746FFF7F8FA63
:1027000002460B46DDE90801FFF758FA02460B4680
:10271000CDE9082300224E4BFFF76EFB68B301376B
:102720003846FFF7E5FA02460B4651EC180BFFF767
:102730003BFB08B1013600276DBB3046FFF7C6FAF8
:1027400002460B4640464946FFF738FA0746884698
:1027500000223F4BFFF714FB00284CD100223C4BDA
:1027600038464146FFF748FB002844D116F0010FD8
:1027700041D001363FE0062546E70022344BDDE933
:102780000801FFF7FDFA0028D6D117B117F0010FA5
:10279000D2D00137D0E71F2C17D8013D2D4BA3FB1A
:1027A0000723DB08194603EB8303A7EB4303621CF3
:1027B000303304F150000DEB000404F8203C092FE5
:1027C00002D90F461446E6E714461F2C0AD86B1EA2
:1027D00045B104F150026A44302102F8201C1D4624
:1027E0000134F2E71F2C06D804F150036B442E226B
:1027F00003F8202C01341F2C31D8174A82FB0632F3
:10280000F317C3EBA2031A4603EB8303A6EB4303C0
:10281000611C303304F150000DEB000404F8203C3F
:102820001646DAB10C46E6E70000000065CDCD4162
:102830000000000065CDCDC1FFFFEF7F30610010CB
:1028400034610010246100102C610010B865001084
:102850000000E03FCDCCCCCC676666660C46249B7E
:1028600003F00303012B1DD01F2C09D80B9B002B59
:1028700035D004F150036B442D2203F8202C013491
:10288000249B0393239B029301940CAB00935B4620
:1028900052460A990798FFF7DAFA15B0BDEC028B99
:1028A000BDE8F08F239BB3B10B9B1BB9249B13F0A6
:1028B0000C0F12D0239B013B2393194606E004F131
:1028C00050036B44302203F8202C01348C42CBD2CD
:1028D0001F2CF4D9C8E72399F8E72399F6E7249B3E
:1028E00013F0040F07D004F150036B442B2203F8BC
:1028F000202C0134C4E7249B13F0080FC0D004F14E
:1029000050036B44202203F8202C0134B8E700BFA9
:102910002DE9F04F91B0804617460F938946002964
:1029200000F04B8300260F9B1878002800F04883A6
:10293000252809D0741C3B4632464946C0470F9BA8
:1029400001330F932646EEE701330F9300251FE076
:1029500045F0010501320F92012318E045F0020510
:1029600001320F92012312E045F0040501320F926B
:1029700001230CE045F0080501320F92012306E027
:1029800045F0100501320F92012300E000234BB304
:102990000F9A1378203B102BF8D801A151F823F09F
:1029A000752900108D2900108D2900108129001033
:1029B0008D2900108D2900108D2900108D290010FF
:1029C0008D2900108D2900108D2900106929001013
:1029D0008D2900105D2900108D2900108D2900100F
:1029E000512900100B930F9B1A78A2F13003DBB230
:1029F000092B18D92A2A1BD0DDF82CB00F9B1A7886
:102A00002E2A25D00F9A1378683B122B5CD8DFE86A
:102A100003F0495BAC5B3B5B5B5B5B5B5B5B575BAE
:102A20005B5B5B5BB1000FA8FFF7FEF98346E5E750
:102A30001A9B1A1D1A921B68002B04DB9B460F9BE6
:102A400001330F93DAE745F00205C3F1000BF6E717
:102A500045F480655A1C0F925A78A2F13003DBB21C
:102A6000092B0CD92A2ACDD11A9B1A1D1A921C683F
:102A700024EAE4730B930F9B01330F93C2E70FA873
:102A8000FFF7D2F90B90BDE745F48071531C0F930B
:102A900053786C2B01D00D4616E045F44075023298
:102AA0000F9211E045F08001531C0F935378682B6F
:102AB00001D00D4608E045F0C00502320F9203E058
:102AC00045F4807501320F920F9B1878672856D80D
:102AD0002528C0F06882A0F12503422B00F2638212
:102AE000DFE813F0560261026102610261026102D5
:102AF00061026102610261026102610261026102BE
:102B000061026102610261026102610261026102AD
:102B1000610261026102610261026102610261029D
:102B2000610261028801680188016102610261023B
:102B3000610261026102610261026102610261027D
:102B4000610261026102610261027100610261025F
:102B5000610261026102610261026102610271004F
:102B6000AF01710088016801880145F400750132E8
:102B70000F92A9E745F4807501320F92A4E77828F7
:102B800000F211826928C0F00E82A0F16902D2B26F
:102B90000123934049F24102134214D113F0800FF4
:102BA00040F0DB8113F4806F00F0FD811A9B1A1D49
:102BB0001A92D3F800A00B9B002B40F090814FF0AD
:102BC000FF32534671E16F280CD005D858283CD00D
:102BD000622803D1022306E0782838D025F01005BA
:102BE0000A2300E00823582833D0692803D064283A
:102BF00001D025F00C0515F4806F01D025F00105FA
:102C0000692829D0642827D015F4007F40F09480EB
:102C100015F4807F40F0AC8015F0400F00F0BD80CF
:102C20001A9A111D1A9112780595CDF810B00B99CA
:102C3000039102930023019300923B46324649469A
:102C40004046FFF7DEF9064627E01023CBE71023C6
:102C5000C9E745F02005C8E715F4007F21D115F438
:102C6000807F42D115F0400F58D01A9A111D1A9149
:102C7000127882EAE271A1EBE2710595CDF810B00D
:102C80000B9803900293D20F019200913B4632467B
:102C900049464046FFF7B5F906460F9B01330F93AF
:102CA00041E61A9A073222F0070202F108011A914E
:102CB000516812680846002913DB0895CDF81CB04E
:102CC0000B9C0694049300230593C90F0291009274
:102CD00001903B46324649464046FFF7DCF906463E
:102CE000DBE7524261EB4100E7E71A9A111D1A91A6
:102CF000126882EAE271A1EBE2710595CDF810B09D
:102D00000B9803900293D20F019200913B463246FA
:102D100049464046FFF775F90646BEE715F0800FB5
:102D200005D01A9A111D1A91B2F90020A1E71A9A3A
:102D3000111D1A9112689CE71A9A073222F00702B5
:102D400002F108011A910895CDF81CB00B99069173
:102D50000021049305910291D2E90023CDE90023DB
:102D60003B46324649464046FFF795F9064694E70A
:102D70001A9A111D1A910595CDF810B00B9903916F
:102D8000029300230193136800933B463246494661
:102D90004046FFF736F906467FE715F0800F04D06E
:102DA0001A9A111D1A9112883EE71A9A111D1A914A
:102DB000126839E746281AD01A9B073323F0070315
:102DC00003F108021A920495CDF80CB00B9A029206
:102DD000D3E90023CDE900233B463246494640462D
:102DE000FFF7CAFB06460F9B01330F939BE545F0A7
:102DF0002005E1E7672801D0472801D145F40065A7
:102E0000452801D0472801D145F020051A9B0733FA
:102E100023F0070303F108021A920495CDF80CB0D1
:102E20000B9A0292D3E90023CDE900233B463246B8
:102E300049464046FFF790F906460F9B01330F9332
:102E400071E515F002051DD001241A98031D1A938F
:102E500006F1010A3B46324649460078C047A5B90B
:102E60000F9B01330F9356465DE502F1010A3B4685
:102E700049462020C047234652465C1C9B45F4D857
:102E80001646E2E701233246F7E7524606E0561CB3
:102E90003B4649462020C0472C463246651CA34588
:102EA000F5D89246DCE701330A46197811B1511E74
:102EB000002AF8D1A3EB0A0315F480620C9203D028
:102EC0000B9A934228BF134615F0020409D00D94C3
:102ED000CDF838B00B9D32460C9E9B461FE00B9AF6
:102EE0006FE63246264606E0541C3B464946202003
:102EF000C0472B4622465D1C9B45F5D834462B46E1
:102F00000D94CDF838B00B9D0C9E9B4607E01D46F6
:102F10000AF1010A541C3B464946C04722469AF82A
:102F2000000020B1002EF3D06B1E002DEFD10D9CC0
:102F300016465B46DDF838B054B90F9B01330F934A
:102F4000F1E4551C3B4649462020C04723462A460B
:102F50005C1C9B45F5D81646EFE745F021051A9B0A
:102F60001A1D1A921B680595082204920B9A039267
:102F7000102202920022019200933B4632464946BB
:102F80004046FFF73EF806460F9B01330F93CAE415
:102F9000741C3B46324649462520C0470F9B0133EF
:102FA0000F932646BFE4741C3B4632464946C04751
:102FB0000F9B01330F932646B5E4DFF82080B1E480
:102FC000BE4208D37A1E3B4649460020C0473046E1
:102FD00011B0BDE8F08F3246F5E700BF191E0010B2
:102FE00000B585B002900391009313464FF0FF3275
:102FF00002A90348FFF78CFC05B05DF804FB00BF95
:103000001B1E001000BEFDE708B5FFF7FBFF000028
:1030100000B583B08C4619465AB11446064B01944C
:10302000009363460246054800F04EF90120FFF781
:10303000E9FF034B1C46F2E73C6100104C610010B5
:103040004861001010B5EFF30583DBB203B100BE99
:10305000FEF796FC044C02E054F8043B9847034BFF
:103060009C42F9D310BD00BFB85B0010C05B0010DC
:1030700008B5034608461B681146984708BD00007E
:10308000F8B507460D461646437D13B10024204689
:103090000CE003681146284698472EE03B7D10E07F
:1030A0003B68022115489847601C0134B44214DA89
:1030B000002CF3DD2B1913F8013C0D2B14BF00235A
:1030C00001232A5D0A2AF0D1002BEED1A042E7DAD3
:1030D0003B68211A28449847E2E7B04203DA3B688C
:1030E000311A28449847002E07DD354415F8013C75
:1030F0000D2B14BF002301233B75F8BD086600109B
:1031000038B50368BBB105460B4B1C6806E0294681
:1031100051F8042B2046FFF7B3FF24694CB1236814
:10312000002BFAD0054B1B68002BF0D0A342F4D142
:10313000EDE700232B6038BD785400208054002038
:1031400038B505460C460B68802B05D023685A1C01
:1031500022601C44257138BD0846FFF7D1FFF5E712
:1031600008B5FEF7FFF9074A821841F10003002B6A
:1031700003DB054802F0F4FC08BD4FF0FF326FF0AE
:103180000043F6E740420F00984E002008B5024881
:1031900002F0DAFC08BD00BF984E00202DE9F04394
:1031A00083B006460D4690461C46FFF7D9FF814680
:1031B000B5F1FF3F04D044B1174F184B1C6807E02E
:1031C000304602F077FC0546F5E7154FF5E7246930
:1031D000BCB12368002BFAD0124B1B680BB1A34281
:1031E000F5D12A4631462046B847B8F1000FEED057
:1031F0000A238DF8073001220DF107012046B84758
:10320000E5E7B9F1000F03D1284603B0BDE8F0832C
:10321000FFF7BCFFF8E700BF8130001078540020B2
:103220007130001080540020084A01E003F11002C0
:1032300013683BB18342F9D131B9036913600023AC
:103240000361704701B11060704700BF78540020DF
:1032500010B5054B1C6801E0984724691CB16368F0
:10326000002BF9D1F9E710BD7854002038B5054698
:1032700002F020FC044601231A4601462846FFF7C7
:103280008DFFFFF7E5FF204638BD000070B5A2B006
:1032900004460E46FFF764FF0546002301933346BC
:1032A000224601A90748FFF79BFE044601A8FFF745
:1032B00027FFFFF7CDFF15B9204622B070BDFFF7FD
:1032C00065FFF9E7413100100FB400B583B004A9E0
:1032D00051F8040B0191FFF7D9FF03B05DF804EB3F
:1032E00004B0704782B08C46184B984214BF00233C
:1032F0000123174A32F913308B4205D08DF807C0ED
:1033000000210DF107021CE00D238DF8073000218C
:103310000DF107020029F1D1836913F0200FFBD1D1
:10332000134613F8012B026001311A46F2E7836954
:1033300013F0200FFBD1134613F8012B026001316B
:103340001A460029F3D002B0704700BF0080074042
:10335000D058002010B483B000210DF1070209E01D
:10336000836913F0100FFBD10468134603F8014B77
:1033700001311A460029F3D09DF8070003B05DF82B
:10338000044B704770B506460D46002405E0315DDC
:10339000034B1868FFF7A6FF0134AC42F7DB70BDA2
:1033A000D8580020F8B507460E46002404E0651CF6
:1033B000FFF7D0FF38552C46B44205DA0C4B18689D
:1033C000836913F0100FF2D00A4B1B684BB1084B06
:1033D0001B6850229A635A6B02F0380203F581533E
:1033E0005A610CB12046F8BD6FF00204FAE700BF45
:1033F000D85800204054002008B5054B1B6833B155
:10340000044A126800219163034A1068984708BD76
:1034100040540020D858002044540020034B1A6820
:10342000936913F0080FFBD1704700BFD8580020F4
:1034300038B51B4B1B681B4A934205D02124E0B1D1
:10344000194B1B6813B138BD2224F8E7164B1860DE
:10345000164B196016492046FDF7ECF9012120466C
:10346000FDF7D6F90E4B1B6850229A635A6B02F097
:10347000380203F581535A61E5E70B4A1268002AC6
:10348000E1D000259D6329462046FDF7C1F9084992
:103490002046FDF719FB044B1D60044B1D60D2E76D
:1034A000D858002000800740405400204454002099
:1034B000F933001038B50D461C46104B1860101E2D
:1034C00005DB10F0020F15D00B21FDF72FF8002CB3
:1034D00006DB14F0020F0FD00B212046FDF726F873
:1034E0002946064B1868FEF7CFF801210448FFF77C
:1034F0009BFE38BD0221E8E70221EEE7D858002004
:10350000604E002008B51920FDF72CF80123192280
:1035100043EC44200448054A106000224FF4E13196
:10352000FFF7C8FF08BD00BF00000740D4580020C7
:10353000192340EC4030704708B502F0F9FA80F0EA
:103540000100C0B208BD30B583B005460C466846E0
:1035500000F038F8072C07D822466946284602F0C2
:1035600033FA204603B030BD0824F5E700B58BB030
:1035700045F24730FEF7B4F903460122092101A8BC
:103580009847042801D100230EE00A4B0A4A29215A
:103590000A48FFF73DFDC3F10F0228326A4412F8D2
:1035A000241C074AD1540133072BF4DD0BB05DF81E
:1035B00004FB00BF806100102066001088610010CD
:1035C000C05800200346024A03CA18605960704779
:1035D000C058002010B5038B3F3323F03F0302296E
:1035E00019D0144C2268C2601344236013F03F0FBB
:1035F00013D182F0A04282F4801283F0A04383F4BE
:103600008013B3F5805F0ED842EA816242F0004237
:1036100043681A6010BD5B00E3E7074B074A51217E
:103620000748FFF7F5FC074B044A53210448FFF70E
:10363000EFFC00BF84580020D86100107C660010A9
:10364000086200106462001038B5034600F07F0481
:103650004FEA440C0CEBD01C224800EB4C1083705A
:10366000DB090CBF0125002545700025C5700183CD
:10367000C276C3B9E1001C4D0D4403EB440C19495B
:1036800001EB4C118D6003EB440C164901EB4C111E
:10369000896800250D605CB9124A02EB4C135D602D
:1036A000124ADA6038BD124D05EBC4058560EAE7C1
:1036B0006BB9611EC9000F4D0D4403EB440309496A
:1036C00001EB43135D601146FFF784FFEAE7611EDB
:1036D000094D05EBC10503EB4403024901EB43131C
:1036E0005D60F0E784540020840010500001105009
:1036F000800010500C0010500800105008B500F069
:103700007F035B0003EBD010024B03EB401000F093
:1037100023F908BD8454002008B520B901210E20EA
:10372000FDF776F808BD034B034A4FF4D471034804
:10373000FFF76EFCAC6200106C66001008620010AF
:1037400008B528B9002211468020FFF7D7FF08BD31
:10375000034B044A4FF4D9710348FFF759FC00BFEB
:10376000AC6200105C66001008620010024B4FF45F
:103770008032DA64704700BF0020115070B540BB42
:10378000064600F0C9F8164C0C23A367FF22154922
:103790000E20FDF77FF840252A460021124802F04E
:1037A000C1F8002229461046FFF74EFF00222946A5
:1037B0008020FFF749FF02F0BFF9012323644FF097
:1037C0000053E364094BC4F890303046FFF7CEFF56
:1037D00070BD074B074A40F275110748FFF718FC08
:1037E00000001150ED0300208454002010D001008F
:1037F000AC6200109066001008620010044B197053
:1038000021B1044B4FF40032C3F89020704700BF41
:10381000DD580020002011500B7813F07F0F02D1EB
:103820004B78052B00D070474B88DBB2014A136000
:10383000F9E700BF0000115008B558B90B46898858
:10384000DA7802F00302C1F30A019878FFF7FCFE70
:10385000012008BD034B044A40F2EF110348FFF773
:10386000D7FB00BFAC6200104C660010086200106D
:1038700008B502F061F908BD10B530B90846114627
:103880001A46FFF73BFF012010BD034B034A4FF4DC
:10389000FE710348FFF7BCFBAC6200103C660010F1
:1038A0000862001008B511F07F0304D1CA090ED1D7
:1038B0000220084A90665B0003EBD1134FF40062CC
:1038C0000021054800EB431002F046F908BD012035
:1038D000EFE700BF002011508454002008B511F01C
:1038E0007F0300D108BD5B0003EBD113044800EB5C
:1038F00043100022C2706FF4006102F02DF9F1E76D
:103900008454002004E011F8012B00F8012B1A4622
:10391000531E002AF7D1704708B54FF080530A4A6A
:10392000136002F580521360084B9B6813F0805FB0
:10393000FAD04FF480520021054801F0F3FF054B07
:1039400009225A6708BD00BF002002400000024063
:10395000000010500000115070B504460D46164688
:10396000837EABB9A6820023E3820123A37625617F
:10397000204602F0F9F820B10B4B4FF40032C3F8A7
:103980009020204602F0F4F850B10123237770BD57
:1039900081780648FFF798FC204602F0BDF8E1E781
:1039A000204602F0C1F8F2E7002011509C6300109D
:1039B0000368EFF3108272B6D3E8CFCF0121BCF1D8
:1039C000000FF9D1C3E84C1FBCF1000FF4D1BFF3D5
:1039D0005F8F4260704700207047000038B5054691
:1039E000002408E0E31A1A4A02EB4313DB68284676
:1039F00098470134E4B2174B1B78A34215D3A34276
:103A0000F0D9154B1B6813EB4413EFD140F216228B
:103A100012491348FFF758FC4FF0E023D3F8F03D6C
:103A200013F0010F13D000BE11E00E4C5422002100
:103A3000204601F077FF4FF0FF336360A360E3603F
:103A400023612022FF2104F1140001F06BFF38BD37
:103A500060670010DC580020205000203067001004
:103A6000D46300102453002008B5FFF7B7FF00F01F
:103A7000D1FE08BD70B505460C461646486900F0F3
:103A8000D3FE6369324601212846984770BD000085
:103A90002DE9F0470746481EC0B2FCF70FFD18B1EC
:103AA00080464378022B10D040F2C732574958481D
:103AB000FFF70AFC4FF0E023D3F8F03D13F0010FBD
:103AC00000D000BE0020BDE8F087C279C2F34010EC
:103AD000504B197860F304111970C2F38012C9B207
:103AE00062F34511197008F10906B8F802309844DC
:103AF0006BE096F8039033781E446DE040F2E232BA
:103B000042494348FFF7E0FB4FF0E023D3F8F03D94
:103B100013F0010F00D000BE0020D4E7E31A3E4AA4
:103B200002EB43131B692A463146384698478246C2
:103B3000082801D985422CD20134E4B2374B1B78D6
:103B4000A3423ED3A342E9D9354B1B6813EB441380
:103B5000E8D140F2EB322D492D48FFF7B5FB4FF08D
:103B6000E023D3F8F03D13F0010F00D000BE002099
:103B7000A9E740F20A4225492548FFF7A5FB4FF087
:103B8000E023D3F8F03D13F0010F00D000BE002079
:103B900099E7002291450DD9B3781344DBB21D4952
:103BA00019440979FF29E4D11A490B441C710132E7
:103BB000D2B2EFE72346524631461A4801F050FD93
:103BC0005644164B1B78A3420ED346451CD273783D
:103BD0000B2B8ED04FF001097378042B8ED1A8EBFC
:103BE0000605ADB20024A9E740F21942074908488A
:103BF000FFF76AFB4FF0E023D3F8F03D13F0010F1D
:103C000000D000BE00205EE701205CE704670010E2
:103C1000D46300102453002060670010DC5800209B
:103C20002050002038530020704770470020704714
:103C3000002070470020704738B505460C464B8879
:103C40001A0AD8B2531E0E2B64D8DFE803F0082DF1
:103C50004E6363592D636363636363632200FCF700
:103C600029FC024628B112232146284600F07CFD9B
:103C700051E040F22B422C492C48FFF725FB4FF036
:103C8000E023D3F8F03D13F0010F00D000BE002078
:103C900041E0FFF7CBFF024600283DD04388214694
:103CA000284600F061FD36E0022A09D0FFF7C2FF86
:103CB000024698B353882146284600F055FD2AE075
:103CC000FCF7FCFB02460028F4D140F252421649B0
:103CD0001648FFF7F9FA4FF0E023D3F8F03D13F060
:103CE000010F00D000BE002015E0A188FCF7EAFB20
:103CF0000246A8B103782146284600F035FD0AE0C7
:103D0000FFF796FF024668B103782146284600F087
:103D10002BFD00E0002038BD0020FCE70020FAE782
:103D20000020F8E70020F6E7EC660010D4630010EE
:103D3000024B5878003818BF0120704724530020E8
:103D4000024B1878FF3818BF01207047944E0020AE
:103D500070B50546FFF7F4FF064608B1304670BD62
:103D600054220021254801F0DDFD254B00221A7068
:103D7000244C2046FCF7E6FF234B1C60234C2046D6
:103D8000FDF72AF8143C204601F02FFD204B1C6063
:103D9000204B23B12048AFF30080204B1860002453
:103DA00008E0E31A1E4A02EB43135B686BB19847C5
:103DB0000134E4B2184B1B78A34215D3A342F0D9C7
:103DC000164B1B6813EB4413EFD14FF4F1721549F6
:103DD0001548FFF779FA4FF0E023D3F8F03D13F0E0
:103DE000010FBBD000BEB9E7104B1D702846FFF78E
:103DF000C5FC2846FFF790FC0126AFE724530020BE
:103E0000DE580020DC520020785300208C4E002029
:103E10007C53002000000000DC58002020500020CF
:103E20006067001054670010D4630010944E0020A7
:103E300070B51A4B1E788B7813F0700F0ED10C46AC
:103E4000174B9978204601F09BFB0546B0B12146FF
:103E50003046FFF7F1FC0546284670BD40F2FC42B3
:103E600010491148FFF730FA4FF0E023D3F8F03D46
:103E700013F0010F00D000BE0025EDE740F2FD4237
:103E800008490948FFF720FA4FF0E023D3F8F03D46
:103E900013F0010FE0D000BEDEE700BF944E00201B
:103EA00024530020BC660010D46300102DE9F84FA5
:103EB00080460C4616461F46DDF82890DDF82CA0FB
:103EC000002526E04FF49B621F492048FFF7FCF9CC
:103ED0004FF0E023D3F8F03D13F0010F00D000BE07
:103EE0004FF0000B5846BDE8F88F40F2D942164912
:103EF0001648FFF7E9F94FF0E023D3F8F03D13F04F
:103F0000010FEFD000BEEDE78AF8003023781C44A3
:103F10000135AE4214DD6378052BD3D1E17801F091
:103F20000301B942CED121464046FFF781FF8346C7
:103F30000028DAD0A378DA09E6D189F80030E5E77D
:103F40004FF0010BCEE700BFCC660010D463001029
:103F500070B51F48007801F07F051E4C04EB450C3E
:103F60000CEBD11C9CF8344014F0010F1FD1CE098A
:103F7000184C04EB4504344494F834C04CF0010C64
:103F800084F834C03034FFF777FCF8B9227922F096
:103F900001022271227922F0040222714FF0E02303
:103FA000D3F8F03D13F0010F10D000BE0EE040F248
:103FB0002A5209490948FFF787F94FF0E023D3F85F
:103FC000F03D13F0010F00D000BE002070BD00BF17
:103FD000944E002024530020AC660010D4630010DF
:103FE00001F07F02044B03EB420303EBD11191F884
:103FF000340000F0010070472453002038B501F070
:104000007F05CC090A4B1878FFF74CFC094B03EBF2
:104010004503234493F8342042F0020283F834200D
:1040200093F8342042F0010283F8342038BD00BFF9
:10403000944E00202453002038B501F07F05CC09B0
:104040000A4B1878FFF74AFC094B03EB450323445E
:1040500093F8342022F0020283F8342093F83420BD
:1040600022F0010283F8342038BD00BF944E0020B6
:104070002453002001F07F02044B03EB420303EBC7
:10408000D11191F83400C0F3400070472453002050
:104090002DE9F04182B006460C46002000F0C4FB3A
:1040A000237803F06003602B21D0402B32D022789C
:1040B00002F01F02012A00F00181022A00F0418172
:1040C000002A40F0C781202B2ED0002B4CD16378E2
:1040D000092B00F2E880DFE813F0D300C300E6000C
:1040E000B300E6005100AD00E60060006D0040F254
:1040F000C522B149B148FFF7E7F84FF0E023D3F804
:10410000F03D13F0010F00D000BE0025284602B09C
:10411000BDE8F081AA4800F087FB22460121304625
:10412000FFF759FC0546F1E7A388DBB20F2B00F23D
:104130009B81A44A13441B79A34A1278934206D266
:10414000A24A116811EB431108D10025DEE7934222
:1041500000F28C819B1A9E4901EB431122463046A6
:10416000FFF788FC0546D1E74FF0E023D3F8F03D98
:1041700013F0010F00D000BE0025C7E7204600F075
:1041800059FB6188C9B23046FFF7DAFA8D4A1378D5
:1041900043F0020313700125B8E78A4B5B788DF872
:1041A000063001230DF106022146304600F0DCFA0C
:1041B0000125ABE76588EDB2824B5B78DBB2AB42A1
:1041C00032D0804B5B785BB97E4B5D7055B329462E
:1041D0003046FFF75DFC054690B1FCF741F823E05F
:1041E00000213046FFF70AFB3046FFF741FB754FD1
:1041F00097F802803046FFF7F1FB87F80280E3E78B
:1042000040F215326C496D48FFF75EF84FF0E0233D
:10421000D3F8F03D13F0010F00D000BE694B00222F
:104220005A7073E7FCF724F82146304600F088FA0C
:1042300001256BE721463046FFF7FEFC054665E7A2
:104240006388012B01D0002560E75E4A137843F0B4
:10425000080313702146304600F072FA012555E735
:104260006388012B01D0002550E7564A137823F0CC
:10427000080313702146304600F062FA012545E735
:10428000504B1B789A08C3F3401302F00202134309
:10429000ADF8063002230DF106022146304600F04B
:1042A00063FA012532E74FF0E023D3F8F03D13F035
:1042B000010F00F0DD8000BE002527E7A388DBB2F8
:1042C0000F2B00F2D7803F4A13441B793E4A1278E5
:1042D000934222D23D4A116811EB431100F0CC8089
:1042E00022463046FFF7C6FB054600287FF40EAF96
:1042F000237813F0600F7FF409AF63780A3B012B3A
:104300003FF604AF00F090FA63780A2B0DD02146F7
:10431000304600F015FA0125F8E6934200F2AE802F
:104320009B1A2B4901EB4311DAE700238DF8063085
:1043300001230DF106022146304600F015FA012551
:10434000E4E6A288D1B202F07F05C2F3C01012F0F9
:10435000700F17D11B4A02EB45020244127D1A4826
:10436000007882421ED21948056805EB42158BB3CE
:10437000002D00F08580224629463046FFF77AFB63
:104380000546C3E640F286320B490C48FEF79CFF17
:104390004FF0E023D3F8F03D13F0010F00D000BE42
:1043A0000025B3E6824204D8121A094D05EB4215E6
:1043B000DDE70025DBE700BF18670010D4630010BD
:1043C000D739001024530020DC5800202050002052
:1043D000606700106378012B10D0032B0ED07BBBDD
:1043E0003046FFF747FEADF8060002230DF1060246
:1043F0002146304600F0B8F9012587E6628822B9E7
:10440000012B19D03046FFF7F9FD002D3AD0224696
:1044100029463046FFF72EFB002000F005FA1B4B23
:1044200093F8355015F001057FF470AE2146304603
:1044300000F086F9012569E63046FFF7FDFDE4E767
:104440004FF0E023D3F8F03D13F0010F00D000BE91
:1044500000255BE64FF0E023D3F8F03D13F0010FA9
:1044600012D000BE002551E600254FE600254DE69E
:1044700000254BE6002549E6002547E6002545E6F0
:10448000002543E6012541E600253FE624530020B0
:1044900010B584B0FFF754FC48B904B010BD9DF8C6
:1044A0000400FFF7E1FA9DF808207F4B9A707F4BDC
:1044B0001C6804F11400FFF77BFA01A9204601F003
:1044C00046F96169A3690022C1E88F2F83F3108840
:1044D0000028E2D09DF80530013B072B00F2D9807F
:1044E00001A252F823F000BF9F44001009450010BC
:1044F0007F460010454600105F460010174500102B
:10450000AD450010714600109DF80400FFF7ACFAAD
:10451000FBF7AEFECBE7664B1B78002B36D0644A28
:104520001378013BDBB213701378002BBFD15E4BC5
:104530001A7842F001021A7093F8342022F0010236
:1045400083F8342093F8342022F0040283F83420D6
:1045500093F8352022F0010283F8352093F83520B6
:1045600022F0040283F8352002A99DF80400FFF729
:104570008FFD00289BD100219DF80400FFF792F9E0
:1045800080219DF80400FFF78DF990E740F2562254
:1045900048494948FEF798FE4FF0E023D3F8F03D34
:1045A00013F0010F3FF479AF00BE76E79DF80810D5
:1045B00001F07F00CC093C4B03EB400303EBD1132C
:1045C00093F8342022F0010283F8342093F8342049
:1045D00022F0040283F83420A8B1334B03EB4003EC
:1045E00023441B7D354A1278934214D2344A126810
:1045F00012EB431316D09C69039B9DF809209DF88C
:104600000400A04753E7039B9DF809209DF8040090
:1046100000F01EF94BE7934204D89B1A294A02EB9B
:104620004313E8E740F2812222492348FEF74CFE7B
:104630004FF0E023D3F8F03D13F0010F3FF42DAF1E
:1046400000BE2AE7184B1B7813F0010F3FF42FAF81
:10465000154B1878C0F3C000FBF710FE27E7124B8C
:104660001B7813F0010F3FF422AFFBF70FFE1EE79C
:10467000029B002B3FF41BAF0398984717E70A4BA8
:10468000DB7813F0010F3FF412AF0298FFF7CDFA79
:104690000DE74FF0E023D3F8F03D13F0010F3FF4A6
:1046A00006AF00BE03E700BF245300207C53002068
:1046B000DE58002044670010D4630010DC5800204E
:1046C000205000206067001008B591F90030002BE1
:1046D00005DB802100231A46FFF73AFC08BD0021C4
:1046E000F8E70000F8B50746134B9E89DD89741B77
:1046F000A4B2402C28BF402493F90030002B08DBE3
:104700000021AE4213D00D4A23463846FFF720FC65
:10471000F8BDAE4209D0084B9968402C09D8224612
:10472000064801F051F98021EBE78021E9E70022FA
:10473000EAE70020ECE700BF24500020E45200200C
:1047400008B586460B46074A944608684968ACE8AF
:10475000030000219160D181918119467046FFF7D5
:10476000B3FF08BD2450002038B505468C46264CC2
:10477000A64608684968AEE80300A2600021E1810E
:10478000BCF806108B4228BF0B46A381BCF806106C
:1047900029B303B132B12846FFF7A4FF044680B124
:1047A000204638BD772219491948FEF78DFD4FF094
:1047B000E023D3F8F03D13F0010F00D000BE002439
:1047C000EEE77D2211491248FEF77EFD4FF0E0230F
:1047D000D3F8F03D13F0010FE2D000BEE0E76146F0
:1047E0002846FFF771FF04460028D9D180220749E7
:1047F0000748FEF769FD4FF0E023D3F8F03D13F0D2
:10480000010FCDD000BECBE72450002098670010E8
:10481000D4630010034B00221A605A609A60DA6079
:104820001A61704724500020014B1861704700BF87
:10483000245000200146054B1A460068496803C20F
:1048400000229A60DA819A81704700BF24500020CC
:1048500038B505461C463D4B1B78DB09B3EBD11F31
:104860001CD07CB1A7223A493A48FEF72DFD4FF003
:10487000E023D3F8F03D13F0010F00D000BE002478
:10488000204638BD314C2146FEF7C6FF23691BB1D7
:1048900022460321284698470124F1E72B4B93F940
:1048A0000030002B07DB294B986800284CD02246AB
:1048B000294901F089F8254AD38913FA84F39BB278
:1048C000D381916821449160D288934201D03F2CDA
:1048D00026D81E4B1B6923B11C4A02212846984743
:1048E000A0B11A492846FFF7EFFE04460028C7D1B9
:1048F000D02217491748FEF7E7FC4FF0E023D3F822
:10490000F03D13F0010FBBD000BEB9E700212846EF
:10491000FEF7C8FF80212846FEF7C4FF0124AFE759
:104920002846FFF7DFFE04460028A9D1D82208490F
:104930000848FEF7C9FC4FF0E023D3F8F03D13F030
:10494000010F9DD000BE9BE7002499E72450002072
:1049500080670010D4630010E4520020002380F828
:1049600030304363836380F83C3080F83D3080F81A
:104970003E30704708B58B688A6B9B1A8B620323A5
:1049800081F830300D2301F1200291F82E10FFF74D
:10499000DFFA08BDC28A816811B91ABB00207047CE
:1049A00053BA9BB290F80FC0BCF1280F07D0BCF1EE
:1049B0002A0F20D022B3994224D30020704700B59B
:1049C00090F80CE05FEADE1E0ED0BCF12A0F04D096
:1049D00062B199420DD3002009E0007BC009F7D0F5
:1049E000022004E002207047022000E001205DF870
:1049F00004FB0220FBE7007BC009DBD002207047EC
:104A00000120704702207047044880F83C1080F86D
:104A10003D2080F83E300120704700BF7C520020CE
:104A200070B58CB0054616461C4691F800C0BCF126
:104A3000250F00F28281DFE81CF026008001800152
:104A400039018001800180018001800180018001A5
:104A50008001800180018001800180018001CD0002
:104A600080018001800180018001800180010E01B0
:104A70003A0080018001580080018001800180019E
:104A80009A0080017200FBF777FC002840F05A8101
:104A9000B14B93F83C3013B14FF0FF344FE13A2261
:104AA00002212846FFF7B0FF4FF0FF3447E1AB4B40
:104AB000002B00F049810979C1F3400301F00102A4
:104AC0000909FBF76BFC002840F04081A24B93F8EA
:104AD0003C3013B14FF0FF3431E13A220221284635
:104AE000FFF792FF4FF0FF3429E19D4B002B00F0C0
:104AF0002F814A790979AFF30080002840F02A819C
:104B0000954B93F83C3013B14FF0FF3417E13A2244
:104B100002212846FFF778FF4FF0FF340FE10DF137
:104B2000060202A9FBF734FCBDF80620029B03B184
:104B300072B9894B93F83C3013B14FF0FF34FEE06B
:104B40003A2202212846FFF75FFF4FF0FF34F6E0DC
:104B5000013B1BBA039312BA0492072C05D903AB8D
:104B600003CB306071600824E9E00024E7E0002313
:104B700003930493059308238DF80F3002238DF8D7
:104B800014300DF1060202A9FBF702FC029B13B1DF
:104B9000BDF8062072B9704B93F83C3013B14FF05A
:104BA000FF34CCE03A2202212846FFF72DFF4FF0D8
:104BB000FF34C4E01BBA049352BAADF816200B2C94
:104BC00006D903AB07CB30607160B2600C24B6E04D
:104BD0000024B4E02422002103A800F0A3FE9DF8E5
:104BE0000D3043F080038DF80D3002228DF80E2039
:104BF0009DF80F3062F303038DF80F301F238DF8FB
:104C000010304FF0203305930693079308930993D0
:104C10000A930B930BAB07AA05A92846FBF778FB71
:104C2000232C16D903ADB4460BAE2C460FCCCCF8D2
:104C30000000CCF80410CCF80820CCF80C30254645
:104C40000CF1100CB442F0D12068CCF80000242400
:104C500075E0002473E003238DF80C3000238DF8F9
:104C60000D309DF80E2063F306028DF80E20D2B2AF
:104C700063F3C7128DF80E208DF80F30394B8BB1CE
:104C8000FBF7AAFB034683F00103DBB29DF80E207D
:104C900063F3C7128DF80E20032C05D9039B3360F4
:104CA00004244CE00123EEE7002448E000230393B2
:104CB000049305930693ADF81C309DF80C307022D8
:104CC00062F306038DF80C30DBB243F080038DF8FD
:104CD0000C300A238DF813301F4B93F83C109DF8CD
:104CE0000E2061F303028DF80E2093F83D208DF81D
:104CF000182093F83E308DF81930112C1BD90DF186
:104D00000C0CBCE80F0030607160B260F360BCF85E
:104D100000303382144B63B1A2B231462846AFF360
:104D20000080044600231A4619462846FFF76CFE09
:104D300005E01224F6E7002401E04FF0FF3420469E
:104D40000CB070BD0024FAE70024F8E70024F6E771
:104D50000024F4E70024F2E77C5200209D030010B9
:104D600000000000D90300100000000038B505461F
:104D70000C4681F82C208B688A6B9B1A8B6202236D
:104D800081F8303091F83C3063B1A3684BB1A36A2D
:104D90003BB1237BDB090BD094F82E102846FFF79C
:104DA0002DF938BD20220521607BFFF72DFEECE7B1
:104DB00094F82F102846FFF721F9F2E730B587B0B5
:104DC00005460C46CA8A2AB153BA9BB28A68B2FB1E
:104DD000F3F292B2D4F8111009BAA06BB0FBF2FC56
:104DE000A3681B1AB3F5007F28BF4FF4007300932C
:104DF0001F4B02FB1C026144607BFBF7D1FA0028C9
:104E000012DBE8B994F82E3000210391049105914A
:104E10008DF80C5007228DF80D208DF8103003A866
:104E200000F096FE07B030BD00233A220221607BDD
:104E3000FFF7EAFD012221462846FFF797FFF1E739
:104E400083B20B4A94F82E102846FFF781F8002809
:104E5000E8D140F2773207490748FEF735FA4FF0BC
:104E6000E023D3F8F03D13F0010FDBD000BED9E70B
:104E70007C500020AC670010D463001038B50546A4
:104E80000C46194B1BB1487BFBF7A6FA80B1A3680F
:104E9000A26B9B1AB3F5007F28BF4FF400739BB23F
:104EA000124A94F82F102846FFF752F860B138BD27
:104EB000002327220721607BFFF7A6FD0122214660
:104EC0002846FFF753FFF2E740F2923208490948BB
:104ED000FEF7FAF94FF0E023D3F8F03D13F0010F9D
:104EE000E5D000BEE3E700BFD90300107C500020EE
:104EF000BC670010D4630010F0B587B007460C46BD
:104F00001646CD8A2DB16BBA9BB28D68B5FBF3F511
:104F1000ADB2D4F8111009BAA26BB2FBF5F000964D
:104F2000244B05FB10220144607BFBF757FA011E5E
:104F300017DBB1422ED2761A002921DC94F82F30EB
:104F400000210391049105918DF80C7007228DF8D2
:104F50000D208DF81030059603A800F0F9FD07B07C
:104F6000F0BDA36B3344A36300233A220221607B8C
:104F7000FFF74AFD012221463846FFF7F7FEEEE72C
:104F8000A36B13FA81F3A3630A483246014400F08D
:104F900049FCD3E7A36B3344A363626B934203D30F
:104FA000022384F83030DAE721463846FFF766FFFF
:104FB000D5E700BF7C50002008B540220021024800
:104FC00000F0B0FC08BD00BF7C52002008B54022B4
:104FD0000021024800F0A6FC08BD00BF7C52002062
:104FE0004B79082B58D110B582B004468B79062B2B
:104FF00054D1CB79502B54D1162A1DD98A782A4BFB
:1050000083F82D20087803F12E0201922F330093AC
:1050100002231A4601442046FEF748FFE0B1224A27
:10502000002382F830301F2392F82F102046FEF71D
:105030008FFF08B3172032E04FF48C721B491C48D5
:10504000FEF742F94FF0E023D3F8F03D13F0010FE3
:1050500000D000BE002022E04FF48F7213491448A4
:10506000FEF732F94FF0E023D3F8F03D13F0010FD3
:1050700000D000BE002012E040F221120B490C4883
:10508000FEF722F94FF0E023D3F8F03D13F0010FC3
:1050900000D000BE172002E000207047002002B0C0
:1050A00010BD0020FBE700BF7C520020F867001015
:1050B000D463001030B583B0012940F09A800546D2
:1050C0001446137803F07F02022A13D003F0600322
:1050D000202B40F092806378FE2B6CD0FF2B40F0A9
:1050E0008E806388002B40F08C80E388002B59D0A1
:1050F00000247FE06278012AE8D16288002AE5D1A5
:10510000A188C9B2404B93F83030042B2ED03E4AD0
:1051100092F82E208A422CD03B4A92F82F408C42A3
:1051200029D143BB2146FEF75BFF20BB2146284621
:10513000FEF7A0FFF8B9344A002382F830301F236D
:1051400092F82F102846FEF703FF044698B940F264
:105150005B122E492E48FEF7B7F84FF0E023D3F844
:10516000F03D13F0010F45D000BE43E0FEF746FFCF
:1051700001E0022B01D001243CE02349FFF7FAFBB8
:1051800004460028F7D14FF4A87220492048FEF7C2
:105190009BF84FF0E023D3F8F03D13F0010F29D036
:1051A00000BE27E01848FFF7D9FB21462846FFF745
:1051B000C7FA01241EE063886BB9E388012B0AD18A
:1051C0008DF80730134B1BB1FBF7A0F88DF80700E3
:1051D0009DF807300BB900240CE0013B8DF8073037
:1051E00001230DF1070221462846FFF7BDFA0124ED
:1051F00000E00124204603B030BD0024FAE700247B
:10520000F8E70024F6E700BF7C520020E0670010BA
:10521000D46300100D03001070B505469D4C94F842
:105220003040012C00F0D180032C00F01281002CC2
:1052300040F01981974A92F82F00884240F09481FB
:105240001F2B03D11268944B9A420FD0914C042328
:1052500084F8303094F82E102846FEF7CFFE94F8EC
:105260002F102846FEF7CAFE002402E1894B8B4A24
:105270001A625A685A6200229A6283F82C2001212D
:1052800083F830109C685C639A63DE7B282E10D014
:105290002A2E0ED0002C42D07E4B1B7BDB093ED148
:1052A000B4F5007F21D901227A492846FFF75EFD37
:1052B000D9E07848FFF76EFB024638B984B1282E52
:1052C00009D074492846FFF7D9FDCCE0714928463A
:1052D000FFF74CFDC7E06F492846FFF76FFDC2E0BE
:1052E0006C4B022283F83020BDE0A3B26C4A014629
:1052F0002846FEF72DFE0446002840F0B48040F218
:10530000D91268496848FDF7DFFF4FF0E023D3F872
:10531000F03D13F0010F00F0AC8000BEA9E05D4845
:105320004FF400735E4A00F10F01407BFFF778FBFA
:10533000002808DB10BB574B9B68CBB9554B0222AA
:1053400083F830208FE0534B93F83C303BB100287A
:10535000F0DA01224F492846FFF708FD83E04D4867
:10536000838E4F4A00F10F01407BFBF753F8EEE7C5
:10537000012248492846FFF7F9FC74E0454B9B6839
:105380002BB9012243492846FFF7F0FC6BE083422A
:1053900028BF03463F494B639BB2414A91F82E1008
:1053A0002846FEF7D5FD044600285CD14FF4017273
:1053B0003C493D48FDF788FF4FF0E023D3F8F03D2E
:1053C00013F0010F55D000BE53E0324AD27B282A99
:1053D00012D02A2A1FD02F4A916B19449163137B54
:1053E000DB091DD02B4B9A6B5B6B9A4228D3294B60
:1053F000022283F8302036E026498A6B13448B63FF
:105400004A6B934203D3022281F830202BE02149DA
:10541000FFF7D4FC27E01A461E49FFF76DFD22E096
:105420001046938E1E4A00F10F01407BFAF7F2FFFF
:105430000028D7DA012217492846FFF797FCD1E761
:105440004FF0E023D3F8F03D13F0010F0BD000BE76
:1054500009E0104A92F82E208A4201D10D2B0AD081
:105460001248FDF703FF0B4B93F83030022B4BD063
:105470000124204670BD074BDB7B282B1AD02A2B3A
:105480003AD00B4BE3B1034B03F10F01587BAFF361
:10549000008015E07C52002055534243555342533F
:1054A0007C500020D0670010D4630010EC63001023
:1054B000000000002D4B1BB12D4B587BAFF300803B
:1054C0002B4A002382F830301F2392F82F102846F1
:1054D000FEF73EFD04460028C5D140F25E22254974
:1054E0002548FDF7F1FE4FF0E023D3F8F03D13F02F
:1054F000010FBED000BEBCE7204B002BE0D01C4B00
:10550000587BAFF30080DBE7194B93F82E10284649
:10551000FEF7B0FD04460028ABD1154B9A689B6B93
:105520009A4203D9124B1B7BDB0915D1104928463F
:10553000FFF720FA044600289BD140F275220D495E
:105540000D48FDF7C1FE4FF0E023D3F8F03D13F016
:10555000010F8ED000BE8CE7054B93F82E10284625
:10556000FEF74CFD012484E7012482E700000000DF
:105570007C520020D0670010D463001000000000AF
:1055800008B58388C3F30A02C37803F00303022B30
:105590001DD0032B44D0012B5BD1022905D040F252
:1055A000FF33934204D3012054E04FF48063F8E7C3
:1055B000902229492948FDF787FE4FF0E023D3F8D0
:1055C000F03D13F0010F00D000BE002042E00229A0
:1055D00003D0402A15D801203CE0B2F5007F01D16C
:1055E000012037E097221C491C48FDF76DFE4FF063
:1055F000E023D3F8F03D13F0010F00D000BE0020EF
:1056000028E09A2214491548FDF75EFE4FF0E0238A
:10561000D3F8F03D13F0010F00D000BE002019E0D8
:10562000022904D04023934204D3012012E04FF416
:105630008063F8E7A02208490848FDF745FE4FF0CF
:10564000E023D3F8F03D13F0010F00D000BE00209E
:1056500000E0002008BD00BF04680010D463001003
:105660000A4404E05DF804FB91F800C061449142F3
:105670001AD291F801C0BCF1050FF5D100B591F82F
:1056800002C00CF07F0E00EB4E0E4FEADC1C0EF851
:105690000C3091F800C061449142E3D291F801C00E
:1056A000BCF1050FF5D1EAE7704703460A4490B212
:1056B000814202D8B0EB430F03DB5B009BB2C01A00
:1056C00080B2704710B586460846BEF804C09A42BC
:1056D0000CD3D41AA4B224B3A44514D294450CD844
:1056E000A2EB0C0293B2AEF80A300CE0D41A4FEAE7
:1056F0004C0111FA84F4A4B2EDE7624493B2F2E7EC
:10570000A3EB0C039BB29C45FAD9DEF80010BEF85F
:105710000620C2F30E0202FB031100F055F901202E
:1057200010BD0020FCE7818803899BB2428992B2B8
:10573000934206D39B1A98B281428CBF002001206D
:1057400070479B1A4A0012FA83F398B2F4E738B50F
:1057500004460D46006918B14FF0FF3100F0E0F942
:10576000228963899BB292B229462046FFF7AAFF9D
:1057700005466189024689B2A088FFF796FF6081DD
:10578000206908B100F0E0F9284638BDF8B50446B4
:105790000E46C06818B14FF0FF3100F0C1F92589FD
:1057A000ADB22046FFF7BFFF10B1E779FF0916D071
:1057B000A2882B4601E09B1A9BB29A42FBD9206833
:1057C000E288C2F30E02314602FB030000F0FCF84F
:1057D00001222946A088FFF768FF20810127E068A1
:1057E00008B100F0B1F93846F8BD10B50446C068FC
:1057F00018B14FF0FF3100F093F9206918B14FF064
:10580000FF3100F08DF9002363812381E06808B146
:1058100000F09AF9206908B100F096F9012010BD56
:105820007047000088420ED98B1883420BD900EBD9
:10583000020C002A6ED0624613F801CD994202F89C
:1058400001CDF9D170470F2A0FD8034602F1FF3C72
:10585000002A5FD00CF1010C013B8C4411F8012BA4
:10586000614503F8012FF9D1704740EA01039B0716
:1058700051D1A2F1100301F1200C70B523F00F05F6
:1058800001F1100E00F110041B09AC445EF8105C2D
:105890000EF1100E103444F8205C5EF81C5C44F8E5
:1058A0001C5C5EF8185C44F8185C5EF8145CE64515
:1058B00044F8145CEAD1013312F00C0F02F00F0C23
:1058C00001EB031100EB031329D0ACF1040C1C1FF6
:1058D0008E462CF003064FEA9C0C1E445EF8045BD7
:1058E00044F8045FB442F9D10CF1010402F0030260
:1058F00003EB840301EB840102F1FF3C4AB10CF19C
:10590000010C013B8C4411F8012B614503F8012F78
:10591000F9D170BD704702F1FF3C03469AE7624639
:10592000EAE700BF70B5860747D0541E002A3ED074
:10593000CAB2034601E0013C39D303F8012B9D07AD
:10594000F9D1032C2CD9CDB20F2C05EB052505EB95
:10595000054535D9A4F1100C03F1100E1A462CF0B0
:105960000F064FEA1C1CB644C2E90055C2E90255B5
:1059700010327245F8D10CF1010214F00C0F04F052
:105980000F0C03EB021213D0ACF1040323F003035A
:105990000433134442F8045B9342FBD10CF003043C
:1059A0002CB1C9B21C4403F8011BA342FBD170BD4A
:1059B00064461346002CF4D1F9E703461446C0E7C9
:1059C0001A46A446E0E700BF844641EA000313F00C
:1059D000030349D1403A23D30B6803604B6843600B
:1059E0008B688360CB68C3600B6903614B6943615B
:1059F0008B698361CB69C3610B6A03624B6A436243
:105A00008B6A8362CB6AC3620B6B03634B6B43632A
:105A10008B6B8363CB6BC36340304031403ADBD246
:105A200030320BD30B6803604B6843608B68836034
:105A3000CB68C36010301031103AF3D20C3205D36A
:105A400051F8043B40F8043B043AF9D2043208D040
:105A5000D2071CBF11F8013B00F8013B01D30B88B2
:105A600003806046704700BF082A13D38B07B1D06C
:105A700010F00303AED0C3F10403D21ADB071CBF3E
:105A800011F8013B00F8013BA4D331F8023B20F8A8
:105A9000023B9FE7043AD9D3013A11F8013B00F8E1
:105AA000013BF9D20B7803704B7843708B7883708D
:105AB0006046704720F0030110F00300C0F10000C1
:105AC00051F8043B00F1040C4FEACC0C6FF00002DB
:105AD0001CBF22FA0CF213434FF0010C4CEA0C2CC1
